ARM GAS  C:\Users\User\AppData\Local\Temp\ccDgUeH4.s 			page 1


   1              		.syntax unified
   2              		.cpu cortex-m3
   3              		.fpu softvfp
   4              		.eabi_attribute 20, 1
   5              		.eabi_attribute 21, 1
   6              		.eabi_attribute 23, 3
   7              		.eabi_attribute 24, 1
   8              		.eabi_attribute 25, 1
   9              		.eabi_attribute 26, 1
  10              		.eabi_attribute 30, 1
  11              		.eabi_attribute 34, 1
  12              		.eabi_attribute 18, 4
  13              		.thumb
  14              		.syntax unified
  15              		.file	"ADC.c"
  16              		.text
  17              	.Ltext0:
  18              		.cfi_sections	.debug_frame
  19              		.section	.text.ADC_GainCompensation,"ax",%progbits
  20              		.align	2
  21              		.thumb
  22              		.thumb_func
  23              		.type	ADC_GainCompensation, %function
  24              	ADC_GainCompensation:
  25              	.LFB21:
  26              		.file 1 "Generated_Source\\PSoC5\\ADC.c"
   1:Generated_Source\PSoC5/ADC.c **** /*******************************************************************************
   2:Generated_Source\PSoC5/ADC.c **** * File Name: ADC.c
   3:Generated_Source\PSoC5/ADC.c **** * Version 3.30
   4:Generated_Source\PSoC5/ADC.c **** *
   5:Generated_Source\PSoC5/ADC.c **** * Description:
   6:Generated_Source\PSoC5/ADC.c **** *  This file provides the source code to the API for the Delta-Sigma ADC
   7:Generated_Source\PSoC5/ADC.c **** *  Component.
   8:Generated_Source\PSoC5/ADC.c **** *
   9:Generated_Source\PSoC5/ADC.c **** * Note:
  10:Generated_Source\PSoC5/ADC.c **** *
  11:Generated_Source\PSoC5/ADC.c **** ********************************************************************************
  12:Generated_Source\PSoC5/ADC.c **** * Copyright 2008-2017, Cypress Semiconductor Corporation.  All rights reserved.
  13:Generated_Source\PSoC5/ADC.c **** * You may use this file only in accordance with the license, terms, conditions,
  14:Generated_Source\PSoC5/ADC.c **** * disclaimers, and limitations in the end user license agreement accompanying
  15:Generated_Source\PSoC5/ADC.c **** * the software package with which this file was provided.
  16:Generated_Source\PSoC5/ADC.c **** *******************************************************************************/
  17:Generated_Source\PSoC5/ADC.c **** 
  18:Generated_Source\PSoC5/ADC.c **** #include "ADC.h"
  19:Generated_Source\PSoC5/ADC.c **** 
  20:Generated_Source\PSoC5/ADC.c **** #if(ADC_DEFAULT_INTERNAL_CLK)
  21:Generated_Source\PSoC5/ADC.c ****     #include "ADC_theACLK.h"
  22:Generated_Source\PSoC5/ADC.c **** #endif /* ADC_DEFAULT_INTERNAL_CLK */
  23:Generated_Source\PSoC5/ADC.c **** 
  24:Generated_Source\PSoC5/ADC.c **** #include "ADC_Ext_CP_Clk.h"
  25:Generated_Source\PSoC5/ADC.c **** 
  26:Generated_Source\PSoC5/ADC.c **** #if(ADC_DEFAULT_INPUT_MODE)
  27:Generated_Source\PSoC5/ADC.c ****     #include "ADC_AMux.h"
  28:Generated_Source\PSoC5/ADC.c **** #endif /* ADC_DEFAULT_INPUT_MODE */
  29:Generated_Source\PSoC5/ADC.c **** 
  30:Generated_Source\PSoC5/ADC.c **** 
  31:Generated_Source\PSoC5/ADC.c **** /***************************************
ARM GAS  C:\Users\User\AppData\Local\Temp\ccDgUeH4.s 			page 2


  32:Generated_Source\PSoC5/ADC.c **** * Global data allocation
  33:Generated_Source\PSoC5/ADC.c **** ***************************************/
  34:Generated_Source\PSoC5/ADC.c **** 
  35:Generated_Source\PSoC5/ADC.c **** /* Software flag for checking conversion completed or not */
  36:Generated_Source\PSoC5/ADC.c **** volatile uint8 ADC_convDone = 0u;
  37:Generated_Source\PSoC5/ADC.c **** 
  38:Generated_Source\PSoC5/ADC.c **** /* Software flag to stop conversion for single sample conversion mode
  39:Generated_Source\PSoC5/ADC.c **** *   with resolution above 16 bits 
  40:Generated_Source\PSoC5/ADC.c **** */
  41:Generated_Source\PSoC5/ADC.c **** volatile uint8 ADC_stopConversion = 0u;
  42:Generated_Source\PSoC5/ADC.c **** 
  43:Generated_Source\PSoC5/ADC.c **** /* To run the initialization block only at the start up */
  44:Generated_Source\PSoC5/ADC.c **** uint8 ADC_initVar = 0u;
  45:Generated_Source\PSoC5/ADC.c **** 
  46:Generated_Source\PSoC5/ADC.c **** /* To check whether ADC started or not before switching the configuration */
  47:Generated_Source\PSoC5/ADC.c **** volatile uint8 ADC_started = 0u;
  48:Generated_Source\PSoC5/ADC.c **** 
  49:Generated_Source\PSoC5/ADC.c **** /* Flag to hold ADC config number. By default active config is 1. */
  50:Generated_Source\PSoC5/ADC.c **** volatile uint8 ADC_Config = 1u;
  51:Generated_Source\PSoC5/ADC.c **** 
  52:Generated_Source\PSoC5/ADC.c **** volatile int32 ADC_Offset = 0;
  53:Generated_Source\PSoC5/ADC.c **** volatile int32 ADC_CountsPerVolt;
  54:Generated_Source\PSoC5/ADC.c **** 
  55:Generated_Source\PSoC5/ADC.c **** 
  56:Generated_Source\PSoC5/ADC.c **** /***************************************
  57:Generated_Source\PSoC5/ADC.c **** * Local data allocation
  58:Generated_Source\PSoC5/ADC.c **** ***************************************/
  59:Generated_Source\PSoC5/ADC.c **** 
  60:Generated_Source\PSoC5/ADC.c **** /* The array with precalculated gain compensation coefficients */
  61:Generated_Source\PSoC5/ADC.c **** static ADC_GCOR_STRUCT ADC_gcor[ADC_DEFAULT_NUM_CONFIGS];
  62:Generated_Source\PSoC5/ADC.c **** 
  63:Generated_Source\PSoC5/ADC.c **** 
  64:Generated_Source\PSoC5/ADC.c **** 
  65:Generated_Source\PSoC5/ADC.c **** /***************************************
  66:Generated_Source\PSoC5/ADC.c **** * Forward function references
  67:Generated_Source\PSoC5/ADC.c **** ***************************************/
  68:Generated_Source\PSoC5/ADC.c **** static void ADC_InitConfig(uint8 config) ;
  69:Generated_Source\PSoC5/ADC.c **** static void ADC_GainCompensation(uint8 inputRange, uint16 idealDecGain, uint16 idealOddDecGain, 
  70:Generated_Source\PSoC5/ADC.c ****                             uint8 resolution, uint8 config) ;
  71:Generated_Source\PSoC5/ADC.c **** static void ADC_SetDSMRef0Reg(uint8 value) ;
  72:Generated_Source\PSoC5/ADC.c **** 
  73:Generated_Source\PSoC5/ADC.c **** 
  74:Generated_Source\PSoC5/ADC.c **** /******************************************************************************
  75:Generated_Source\PSoC5/ADC.c **** * Function Name: ADC_Init
  76:Generated_Source\PSoC5/ADC.c **** *******************************************************************************
  77:Generated_Source\PSoC5/ADC.c **** *
  78:Generated_Source\PSoC5/ADC.c **** * Summary:
  79:Generated_Source\PSoC5/ADC.c **** *  Initialize component's parameters to the parameters set by user in the
  80:Generated_Source\PSoC5/ADC.c **** *  customizer of the component placed onto schematic. Usually called in
  81:Generated_Source\PSoC5/ADC.c **** * ADC_Start().
  82:Generated_Source\PSoC5/ADC.c **** *
  83:Generated_Source\PSoC5/ADC.c **** *
  84:Generated_Source\PSoC5/ADC.c **** * Parameters:
  85:Generated_Source\PSoC5/ADC.c **** *  None
  86:Generated_Source\PSoC5/ADC.c **** *
  87:Generated_Source\PSoC5/ADC.c **** * Return:
  88:Generated_Source\PSoC5/ADC.c **** *  None
ARM GAS  C:\Users\User\AppData\Local\Temp\ccDgUeH4.s 			page 3


  89:Generated_Source\PSoC5/ADC.c **** *
  90:Generated_Source\PSoC5/ADC.c **** *******************************************************************************/
  91:Generated_Source\PSoC5/ADC.c **** void ADC_Init(void) 
  92:Generated_Source\PSoC5/ADC.c **** {
  93:Generated_Source\PSoC5/ADC.c **** 
  94:Generated_Source\PSoC5/ADC.c ****     ADC_Config = 1u;
  95:Generated_Source\PSoC5/ADC.c ****     ADC_convDone = 0u;
  96:Generated_Source\PSoC5/ADC.c **** 
  97:Generated_Source\PSoC5/ADC.c ****     ADC_Ext_CP_Clk_SetMode(CYCLK_DUTY);
  98:Generated_Source\PSoC5/ADC.c **** 
  99:Generated_Source\PSoC5/ADC.c ****     /* This is only valid if there is an internal clock */
 100:Generated_Source\PSoC5/ADC.c ****     #if(ADC_DEFAULT_INTERNAL_CLK)
 101:Generated_Source\PSoC5/ADC.c ****         ADC_theACLK_SetMode(CYCLK_DUTY);
 102:Generated_Source\PSoC5/ADC.c ****     #endif /* ADC_DEFAULT_INTERNAL_CLK */
 103:Generated_Source\PSoC5/ADC.c **** 
 104:Generated_Source\PSoC5/ADC.c ****     #if(ADC_IRQ_REMOVE == 0u)
 105:Generated_Source\PSoC5/ADC.c ****         /* Set interrupt priority */
 106:Generated_Source\PSoC5/ADC.c ****         CyIntSetPriority(ADC_INTC_NUMBER, ADC_INTC_PRIOR_NUMBER);
 107:Generated_Source\PSoC5/ADC.c ****     #endif   /* End ADC_IRQ_REMOVE */
 108:Generated_Source\PSoC5/ADC.c **** 
 109:Generated_Source\PSoC5/ADC.c ****     /* Init static registers with common configuration */
 110:Generated_Source\PSoC5/ADC.c ****     ADC_DSM_DEM0_REG    = ADC_CFG1_DSM_DEM0;
 111:Generated_Source\PSoC5/ADC.c ****     ADC_DSM_DEM1_REG    = ADC_CFG1_DSM_DEM1;
 112:Generated_Source\PSoC5/ADC.c ****     ADC_DSM_MISC_REG    = ADC_CFG1_DSM_MISC;
 113:Generated_Source\PSoC5/ADC.c ****     ADC_DSM_CLK_REG    |= ADC_CFG1_DSM_CLK;
 114:Generated_Source\PSoC5/ADC.c ****     ADC_DSM_REF1_REG    = ADC_CFG1_DSM_REF1;
 115:Generated_Source\PSoC5/ADC.c **** 
 116:Generated_Source\PSoC5/ADC.c ****     ADC_DSM_OUT0_REG    = ADC_CFG1_DSM_OUT0;
 117:Generated_Source\PSoC5/ADC.c ****     ADC_DSM_OUT1_REG    = ADC_CFG1_DSM_OUT1;
 118:Generated_Source\PSoC5/ADC.c **** 
 119:Generated_Source\PSoC5/ADC.c ****     ADC_DSM_CR0_REG     = ADC_CFG1_DSM_CR0;
 120:Generated_Source\PSoC5/ADC.c ****     ADC_DSM_CR1_REG     = ADC_CFG1_DSM_CR1;
 121:Generated_Source\PSoC5/ADC.c **** #if(ADC_MI_ENABLE != 0u) /* Enable Modulator Input */
 122:Generated_Source\PSoC5/ADC.c ****     ADC_DSM_CR3_REG     |= ADC_DSM_MODBIT_EN;
 123:Generated_Source\PSoC5/ADC.c **** #else
 124:Generated_Source\PSoC5/ADC.c ****     ADC_DSM_CR3_REG     = ADC_CFG1_DSM_CR3;
 125:Generated_Source\PSoC5/ADC.c **** #endif /* ADC_MI_ENABLE != 0u*/    
 126:Generated_Source\PSoC5/ADC.c ****     ADC_DSM_CR8_REG     = ADC_CFG1_DSM_CR8;
 127:Generated_Source\PSoC5/ADC.c ****     ADC_DSM_CR9_REG     = ADC_CFG1_DSM_CR9;
 128:Generated_Source\PSoC5/ADC.c ****     ADC_DSM_CR13_REG    = ADC_CFG1_DSM_CR13;
 129:Generated_Source\PSoC5/ADC.c **** 
 130:Generated_Source\PSoC5/ADC.c ****     ADC_DEC_SR_REG      = ADC_CFG1_DEC_SR;
 131:Generated_Source\PSoC5/ADC.c **** 
 132:Generated_Source\PSoC5/ADC.c ****     /* Calculate Gain compensation coefficients for all configurations */
 133:Generated_Source\PSoC5/ADC.c ****     ADC_GainCompensation(ADC_CFG1_INPUT_RANGE,
 134:Generated_Source\PSoC5/ADC.c ****                                       ADC_CFG1_IDEAL_DEC_GAIN,
 135:Generated_Source\PSoC5/ADC.c ****                                       ADC_CFG1_IDEAL_ODDDEC_GAIN,
 136:Generated_Source\PSoC5/ADC.c ****                                       ADC_CFG1_RESOLUTION,
 137:Generated_Source\PSoC5/ADC.c ****                                       ADC_CFG1);
 138:Generated_Source\PSoC5/ADC.c ****     #if(ADC_DEFAULT_NUM_CONFIGS > 1)
 139:Generated_Source\PSoC5/ADC.c ****         ADC_GainCompensation(ADC_CFG2_INPUT_RANGE,
 140:Generated_Source\PSoC5/ADC.c ****                                           ADC_CFG2_IDEAL_DEC_GAIN,
 141:Generated_Source\PSoC5/ADC.c ****                                           ADC_CFG2_IDEAL_ODDDEC_GAIN,
 142:Generated_Source\PSoC5/ADC.c ****                                           ADC_CFG2_RESOLUTION,
 143:Generated_Source\PSoC5/ADC.c ****                                           ADC_CFG2);
 144:Generated_Source\PSoC5/ADC.c ****     #endif /* ADC_DEFAULT_NUM_CONFIGS > 1 */
 145:Generated_Source\PSoC5/ADC.c ****     #if(ADC_DEFAULT_NUM_CONFIGS > 2)
ARM GAS  C:\Users\User\AppData\Local\Temp\ccDgUeH4.s 			page 4


 146:Generated_Source\PSoC5/ADC.c ****         ADC_GainCompensation(ADC_CFG3_INPUT_RANGE,
 147:Generated_Source\PSoC5/ADC.c ****                                           ADC_CFG3_IDEAL_DEC_GAIN,
 148:Generated_Source\PSoC5/ADC.c ****                                           ADC_CFG3_IDEAL_ODDDEC_GAIN,
 149:Generated_Source\PSoC5/ADC.c ****                                           ADC_CFG3_RESOLUTION,
 150:Generated_Source\PSoC5/ADC.c ****                                           ADC_CFG3);
 151:Generated_Source\PSoC5/ADC.c ****     #endif /* ADC_DEFAULT_NUM_CONFIGS > 2 */
 152:Generated_Source\PSoC5/ADC.c ****     #if(ADC_DEFAULT_NUM_CONFIGS > 3)
 153:Generated_Source\PSoC5/ADC.c ****         ADC_GainCompensation(ADC_CFG4_INPUT_RANGE,
 154:Generated_Source\PSoC5/ADC.c ****                                           ADC_CFG4_IDEAL_DEC_GAIN,
 155:Generated_Source\PSoC5/ADC.c ****                                           ADC_CFG4_IDEAL_ODDDEC_GAIN,
 156:Generated_Source\PSoC5/ADC.c ****                                           ADC_CFG4_RESOLUTION,
 157:Generated_Source\PSoC5/ADC.c ****                                           ADC_CFG4);
 158:Generated_Source\PSoC5/ADC.c ****     #endif /* ADC_DEFAULT_NUM_CONFIGS > 3 */
 159:Generated_Source\PSoC5/ADC.c **** 
 160:Generated_Source\PSoC5/ADC.c ****     /* Set GCOR register for config1 */
 161:Generated_Source\PSoC5/ADC.c ****     ADC_DEC_GVAL_REG = ADC_gcor[ADC_Config - 1u].gval;
 162:Generated_Source\PSoC5/ADC.c ****     CY_SET_REG16(ADC_DEC_GCOR_16B_PTR, ADC_gcor[ADC_Config - 1u].gcor);
 163:Generated_Source\PSoC5/ADC.c **** 
 164:Generated_Source\PSoC5/ADC.c ****     /* Initialize the registers with default customizer settings for config1 */
 165:Generated_Source\PSoC5/ADC.c ****     ADC_InitConfig(ADC_Config);
 166:Generated_Source\PSoC5/ADC.c **** }
 167:Generated_Source\PSoC5/ADC.c **** 
 168:Generated_Source\PSoC5/ADC.c **** 
 169:Generated_Source\PSoC5/ADC.c **** /******************************************************************************
 170:Generated_Source\PSoC5/ADC.c **** * Function Name: ADC_Enable
 171:Generated_Source\PSoC5/ADC.c **** *******************************************************************************
 172:Generated_Source\PSoC5/ADC.c **** *
 173:Generated_Source\PSoC5/ADC.c **** * Summary:
 174:Generated_Source\PSoC5/ADC.c **** *  Enables the ADC DelSig block operation.
 175:Generated_Source\PSoC5/ADC.c **** *
 176:Generated_Source\PSoC5/ADC.c **** * Parameters:
 177:Generated_Source\PSoC5/ADC.c **** *  None
 178:Generated_Source\PSoC5/ADC.c **** *
 179:Generated_Source\PSoC5/ADC.c **** * Return:
 180:Generated_Source\PSoC5/ADC.c **** *  None
 181:Generated_Source\PSoC5/ADC.c **** *
 182:Generated_Source\PSoC5/ADC.c **** * Side Effects: 
 183:Generated_Source\PSoC5/ADC.c **** *  Enables internal interrupt.
 184:Generated_Source\PSoC5/ADC.c **** *
 185:Generated_Source\PSoC5/ADC.c **** *******************************************************************************/
 186:Generated_Source\PSoC5/ADC.c **** void ADC_Enable(void) 
 187:Generated_Source\PSoC5/ADC.c **** {
 188:Generated_Source\PSoC5/ADC.c **** 	uint8 config;
 189:Generated_Source\PSoC5/ADC.c ****     uint8 enableInterrupts;
 190:Generated_Source\PSoC5/ADC.c ****     enableInterrupts = CyEnterCriticalSection();
 191:Generated_Source\PSoC5/ADC.c **** 
 192:Generated_Source\PSoC5/ADC.c ****     /* Read volatile variable to the local variable */
 193:Generated_Source\PSoC5/ADC.c ****     config = ADC_Config;
 194:Generated_Source\PSoC5/ADC.c ****     
 195:Generated_Source\PSoC5/ADC.c ****     /* Enable active mode power for ADC */
 196:Generated_Source\PSoC5/ADC.c ****     ADC_PWRMGR_DEC_REG |= ADC_ACT_PWR_DEC_EN;
 197:Generated_Source\PSoC5/ADC.c ****     ADC_PWRMGR_DSM_REG |= ADC_ACT_PWR_DSM_EN;
 198:Generated_Source\PSoC5/ADC.c **** 
 199:Generated_Source\PSoC5/ADC.c ****      /* Enable alternative active mode power for ADC */
 200:Generated_Source\PSoC5/ADC.c ****     ADC_STBY_PWRMGR_DEC_REG |= ADC_STBY_PWR_DEC_EN;
 201:Generated_Source\PSoC5/ADC.c ****     ADC_STBY_PWRMGR_DSM_REG |= ADC_STBY_PWR_DSM_EN;
 202:Generated_Source\PSoC5/ADC.c **** 
ARM GAS  C:\Users\User\AppData\Local\Temp\ccDgUeH4.s 			page 5


 203:Generated_Source\PSoC5/ADC.c ****     /* Disable PRES, Enable power to VCMBUF0, REFBUF0 and REFBUF1, enable PRES */
 204:Generated_Source\PSoC5/ADC.c ****     ADC_RESET_CR4_REG |= ADC_IGNORE_PRESA1;
 205:Generated_Source\PSoC5/ADC.c ****     ADC_RESET_CR5_REG |= ADC_IGNORE_PRESA2;
 206:Generated_Source\PSoC5/ADC.c **** 
 207:Generated_Source\PSoC5/ADC.c ****     ADC_DSM_CR17_REG |= (ADC_DSM_EN_BUF_VREF | ADC_DSM_EN_BUF_VCM);
 208:Generated_Source\PSoC5/ADC.c **** 
 209:Generated_Source\PSoC5/ADC.c ****     /* Code to disable the REFBUF0 if reference chosen is External ref */
 210:Generated_Source\PSoC5/ADC.c ****     #if (((ADC_CFG1_REFERENCE == ADC_EXT_REF_ON_P03) || \
 211:Generated_Source\PSoC5/ADC.c ****           (ADC_CFG1_REFERENCE == ADC_EXT_REF_ON_P32)) || \
 212:Generated_Source\PSoC5/ADC.c ****          ((ADC_DEFAULT_NUM_CONFIGS > 1) && \
 213:Generated_Source\PSoC5/ADC.c ****           ((ADC_CFG2_REFERENCE == ADC_EXT_REF_ON_P03) ||  \
 214:Generated_Source\PSoC5/ADC.c ****            (ADC_CFG2_REFERENCE == ADC_EXT_REF_ON_P32))) || \
 215:Generated_Source\PSoC5/ADC.c ****          ((ADC_DEFAULT_NUM_CONFIGS > 2) && \
 216:Generated_Source\PSoC5/ADC.c ****           ((ADC_CFG3_REFERENCE == ADC_EXT_REF_ON_P03) ||  \
 217:Generated_Source\PSoC5/ADC.c ****            (ADC_CFG3_REFERENCE == ADC_EXT_REF_ON_P32))) || \
 218:Generated_Source\PSoC5/ADC.c ****          ((ADC_DEFAULT_NUM_CONFIGS > 3) && \
 219:Generated_Source\PSoC5/ADC.c ****           ((ADC_CFG4_REFERENCE == ADC_EXT_REF_ON_P03) || \
 220:Generated_Source\PSoC5/ADC.c ****            (ADC_CFG4_REFERENCE == ADC_EXT_REF_ON_P32))))
 221:Generated_Source\PSoC5/ADC.c ****         if (((config == 1u) &&
 222:Generated_Source\PSoC5/ADC.c ****             ((ADC_CFG1_REFERENCE == ADC_EXT_REF_ON_P03) ||
 223:Generated_Source\PSoC5/ADC.c ****              (ADC_CFG1_REFERENCE == ADC_EXT_REF_ON_P32))) ||
 224:Generated_Source\PSoC5/ADC.c ****             ((config == 2u) &&
 225:Generated_Source\PSoC5/ADC.c ****             ((ADC_CFG2_REFERENCE == ADC_EXT_REF_ON_P03) ||
 226:Generated_Source\PSoC5/ADC.c ****              (ADC_CFG2_REFERENCE == ADC_EXT_REF_ON_P32))) ||
 227:Generated_Source\PSoC5/ADC.c ****             ((config == 3u) &&
 228:Generated_Source\PSoC5/ADC.c ****             ((ADC_CFG3_REFERENCE == ADC_EXT_REF_ON_P03) ||
 229:Generated_Source\PSoC5/ADC.c ****              (ADC_CFG3_REFERENCE == ADC_EXT_REF_ON_P32))) ||
 230:Generated_Source\PSoC5/ADC.c ****             ((config == 4u) &&
 231:Generated_Source\PSoC5/ADC.c ****             ((ADC_CFG4_REFERENCE == ADC_EXT_REF_ON_P03) ||
 232:Generated_Source\PSoC5/ADC.c ****              (ADC_CFG4_REFERENCE == ADC_EXT_REF_ON_P32))))
 233:Generated_Source\PSoC5/ADC.c ****         {
 234:Generated_Source\PSoC5/ADC.c ****             /* Disable the REFBUF0 */
 235:Generated_Source\PSoC5/ADC.c ****             ADC_DSM_CR17_REG &= (uint8)~ADC_DSM_EN_BUF_VREF;
 236:Generated_Source\PSoC5/ADC.c ****         }
 237:Generated_Source\PSoC5/ADC.c ****     #endif /* External ref */
 238:Generated_Source\PSoC5/ADC.c **** 
 239:Generated_Source\PSoC5/ADC.c ****     #if (((ADC_CFG1_INPUT_RANGE == ADC_IR_VSSA_TO_2VREF) || \
 240:Generated_Source\PSoC5/ADC.c ****          ((ADC_DEFAULT_NUM_CONFIGS > 1) && \
 241:Generated_Source\PSoC5/ADC.c ****           (ADC_CFG2_INPUT_RANGE == ADC_IR_VSSA_TO_2VREF)) || \
 242:Generated_Source\PSoC5/ADC.c ****          ((ADC_DEFAULT_NUM_CONFIGS > 2) && \
 243:Generated_Source\PSoC5/ADC.c ****           (ADC_CFG3_INPUT_RANGE == ADC_IR_VSSA_TO_2VREF)) || \
 244:Generated_Source\PSoC5/ADC.c ****          ((ADC_DEFAULT_NUM_CONFIGS > 3) && \
 245:Generated_Source\PSoC5/ADC.c ****           (ADC_CFG4_INPUT_RANGE == ADC_IR_VSSA_TO_2VREF))))
 246:Generated_Source\PSoC5/ADC.c ****         if(((config == 1u) &&
 247:Generated_Source\PSoC5/ADC.c ****             (ADC_CFG1_INPUT_RANGE == ADC_IR_VSSA_TO_2VREF) &&
 248:Generated_Source\PSoC5/ADC.c ****             ((ADC_CFG1_REFERENCE != ADC_EXT_REF_ON_P03) &&
 249:Generated_Source\PSoC5/ADC.c ****              (ADC_CFG1_REFERENCE != ADC_EXT_REF_ON_P32))) ||
 250:Generated_Source\PSoC5/ADC.c ****              ((config == 2u) &&
 251:Generated_Source\PSoC5/ADC.c ****               (ADC_CFG2_INPUT_RANGE == ADC_IR_VSSA_TO_2VREF) &&
 252:Generated_Source\PSoC5/ADC.c ****              ((ADC_CFG2_REFERENCE != ADC_EXT_REF_ON_P03) &&
 253:Generated_Source\PSoC5/ADC.c ****              (ADC_CFG2_REFERENCE != ADC_EXT_REF_ON_P32))) ||
 254:Generated_Source\PSoC5/ADC.c ****              ((config == 3u) &&
 255:Generated_Source\PSoC5/ADC.c ****               (ADC_CFG3_INPUT_RANGE == ADC_IR_VSSA_TO_2VREF) &&
 256:Generated_Source\PSoC5/ADC.c ****              ((ADC_CFG3_REFERENCE != ADC_EXT_REF_ON_P03) &&
 257:Generated_Source\PSoC5/ADC.c ****              (ADC_CFG3_REFERENCE != ADC_EXT_REF_ON_P32))) ||
 258:Generated_Source\PSoC5/ADC.c ****              ((config == 4u) &&
 259:Generated_Source\PSoC5/ADC.c ****               (ADC_CFG4_INPUT_RANGE == ADC_IR_VSSA_TO_2VREF) &&
ARM GAS  C:\Users\User\AppData\Local\Temp\ccDgUeH4.s 			page 6


 260:Generated_Source\PSoC5/ADC.c ****              ((ADC_CFG4_REFERENCE != ADC_EXT_REF_ON_P03) &&
 261:Generated_Source\PSoC5/ADC.c ****              (ADC_CFG4_REFERENCE != ADC_EXT_REF_ON_P32))))
 262:Generated_Source\PSoC5/ADC.c ****         {
 263:Generated_Source\PSoC5/ADC.c ****             /* Enable the REFBUF1 */
 264:Generated_Source\PSoC5/ADC.c ****             ADC_DSM_REF0_REG |= ADC_DSM_EN_BUF_VREF_INN;
 265:Generated_Source\PSoC5/ADC.c ****         }
 266:Generated_Source\PSoC5/ADC.c ****     #endif /* VSSA_TO_2VREF */
 267:Generated_Source\PSoC5/ADC.c ****     if(config != 0u)
 268:Generated_Source\PSoC5/ADC.c ****     {
 269:Generated_Source\PSoC5/ADC.c ****         /* Suppress compiler warning */
 270:Generated_Source\PSoC5/ADC.c ****     }
 271:Generated_Source\PSoC5/ADC.c **** 
 272:Generated_Source\PSoC5/ADC.c ****     /* Wait for 3 microseconds */
 273:Generated_Source\PSoC5/ADC.c ****     CyDelayUs(ADC_PRES_DELAY_TIME);
 274:Generated_Source\PSoC5/ADC.c **** 
 275:Generated_Source\PSoC5/ADC.c ****     /* Enable the press circuit */
 276:Generated_Source\PSoC5/ADC.c ****     ADC_RESET_CR4_REG &= (uint8)~ADC_IGNORE_PRESA1;
 277:Generated_Source\PSoC5/ADC.c ****     ADC_RESET_CR5_REG &= (uint8)~ADC_IGNORE_PRESA2;
 278:Generated_Source\PSoC5/ADC.c **** 
 279:Generated_Source\PSoC5/ADC.c ****     /* Enable negative pumps for DSM  */
 280:Generated_Source\PSoC5/ADC.c ****     ADC_PUMP_CR1_REG  |= ( ADC_PUMP_CR1_CLKSEL | ADC_PUMP_CR1_FORCE );
 281:Generated_Source\PSoC5/ADC.c **** 
 282:Generated_Source\PSoC5/ADC.c ****     /* Enable Modulator Chopping if required */
 283:Generated_Source\PSoC5/ADC.c ****     ADC_DSM_CR2_REG = ADC_CFG1_DSM_CR2;
 284:Generated_Source\PSoC5/ADC.c **** 
 285:Generated_Source\PSoC5/ADC.c ****     /* This is only valid if there is an internal clock */
 286:Generated_Source\PSoC5/ADC.c ****     #if(ADC_DEFAULT_INTERNAL_CLK)
 287:Generated_Source\PSoC5/ADC.c ****         ADC_PWRMGR_CLK_REG |= ADC_ACT_PWR_CLK_EN;
 288:Generated_Source\PSoC5/ADC.c ****         ADC_STBY_PWRMGR_CLK_REG |= ADC_STBY_PWR_CLK_EN;
 289:Generated_Source\PSoC5/ADC.c ****     #endif /* ADC_DEFAULT_INTERNAL_CLK */
 290:Generated_Source\PSoC5/ADC.c **** 
 291:Generated_Source\PSoC5/ADC.c ****     /* Enable the active and alternate active power for charge pump clock */
 292:Generated_Source\PSoC5/ADC.c ****     ADC_PWRMGR_CHARGE_PUMP_CLK_REG |= ADC_ACT_PWR_CHARGE_PUMP_CLK_EN;
 293:Generated_Source\PSoC5/ADC.c ****     ADC_STBY_PWRMGR_CHARGE_PUMP_CLK_REG |= ADC_STBY_PWR_CHARGE_PUMP_CLK_EN;
 294:Generated_Source\PSoC5/ADC.c **** 
 295:Generated_Source\PSoC5/ADC.c ****     #if(ADC_IRQ_REMOVE == 0u)
 296:Generated_Source\PSoC5/ADC.c ****         /* Clear a pending interrupt */
 297:Generated_Source\PSoC5/ADC.c ****         CyIntClearPending(ADC_INTC_NUMBER);
 298:Generated_Source\PSoC5/ADC.c ****         /* Enable interrupt */
 299:Generated_Source\PSoC5/ADC.c ****         CyIntEnable(ADC_INTC_NUMBER);
 300:Generated_Source\PSoC5/ADC.c ****     #endif   /* End ADC_IRQ_REMOVE */
 301:Generated_Source\PSoC5/ADC.c **** 
 302:Generated_Source\PSoC5/ADC.c ****     CyExitCriticalSection(enableInterrupts);
 303:Generated_Source\PSoC5/ADC.c **** 
 304:Generated_Source\PSoC5/ADC.c **** }
 305:Generated_Source\PSoC5/ADC.c **** 
 306:Generated_Source\PSoC5/ADC.c **** 
 307:Generated_Source\PSoC5/ADC.c **** /*******************************************************************************
 308:Generated_Source\PSoC5/ADC.c **** * Function Name: ADC_Start
 309:Generated_Source\PSoC5/ADC.c **** ********************************************************************************
 310:Generated_Source\PSoC5/ADC.c **** *
 311:Generated_Source\PSoC5/ADC.c **** * Summary:
 312:Generated_Source\PSoC5/ADC.c **** *  Performs all required initialization for this component and enables
 313:Generated_Source\PSoC5/ADC.c **** *  the power. It configure all the register the first time it is called.
 314:Generated_Source\PSoC5/ADC.c **** *  Subsequent calls of the Start function only enable the ADC and turn
 315:Generated_Source\PSoC5/ADC.c **** *  on the power. If multiple configurations are selected, it will
 316:Generated_Source\PSoC5/ADC.c **** *  configure the ADC for configuration 1 by default, unless the
ARM GAS  C:\Users\User\AppData\Local\Temp\ccDgUeH4.s 			page 7


 317:Generated_Source\PSoC5/ADC.c **** *  ADC_SelectConfiguration( ) function has been called to change
 318:Generated_Source\PSoC5/ADC.c **** *  the default setting.
 319:Generated_Source\PSoC5/ADC.c **** *
 320:Generated_Source\PSoC5/ADC.c **** * Parameters:
 321:Generated_Source\PSoC5/ADC.c **** *  None
 322:Generated_Source\PSoC5/ADC.c **** *
 323:Generated_Source\PSoC5/ADC.c **** * Return:
 324:Generated_Source\PSoC5/ADC.c **** *  None
 325:Generated_Source\PSoC5/ADC.c **** *
 326:Generated_Source\PSoC5/ADC.c **** * Global variables:
 327:Generated_Source\PSoC5/ADC.c **** *  ADC_initVar:  Used to check the initial configuration,
 328:Generated_Source\PSoC5/ADC.c **** *  modified when this function is called for the first time.
 329:Generated_Source\PSoC5/ADC.c **** *
 330:Generated_Source\PSoC5/ADC.c **** * Side Effects: 
 331:Generated_Source\PSoC5/ADC.c **** *  Enables internal interrupt.
 332:Generated_Source\PSoC5/ADC.c **** *
 333:Generated_Source\PSoC5/ADC.c **** *******************************************************************************/
 334:Generated_Source\PSoC5/ADC.c **** void ADC_Start(void) 
 335:Generated_Source\PSoC5/ADC.c **** {
 336:Generated_Source\PSoC5/ADC.c ****     if(ADC_initVar == 0u)
 337:Generated_Source\PSoC5/ADC.c ****     {
 338:Generated_Source\PSoC5/ADC.c ****         if(ADC_started == 0u)
 339:Generated_Source\PSoC5/ADC.c ****         {
 340:Generated_Source\PSoC5/ADC.c ****             ADC_Init();
 341:Generated_Source\PSoC5/ADC.c ****         }
 342:Generated_Source\PSoC5/ADC.c ****         ADC_initVar = 1u;
 343:Generated_Source\PSoC5/ADC.c ****     }
 344:Generated_Source\PSoC5/ADC.c **** 
 345:Generated_Source\PSoC5/ADC.c ****     /* Enable the ADC */
 346:Generated_Source\PSoC5/ADC.c ****     ADC_Enable();
 347:Generated_Source\PSoC5/ADC.c **** }
 348:Generated_Source\PSoC5/ADC.c **** 
 349:Generated_Source\PSoC5/ADC.c **** 
 350:Generated_Source\PSoC5/ADC.c **** /*******************************************************************************
 351:Generated_Source\PSoC5/ADC.c **** * Function Name: ADC_Stop
 352:Generated_Source\PSoC5/ADC.c **** ********************************************************************************
 353:Generated_Source\PSoC5/ADC.c **** *
 354:Generated_Source\PSoC5/ADC.c **** * Summary:
 355:Generated_Source\PSoC5/ADC.c **** *  This function stops and powers down the ADC component and the internal
 356:Generated_Source\PSoC5/ADC.c **** *  clock if the external clock is not selected. If an external clock is
 357:Generated_Source\PSoC5/ADC.c **** *  used, it is up to the designer to power down the external clock it
 358:Generated_Source\PSoC5/ADC.c **** *  required.
 359:Generated_Source\PSoC5/ADC.c **** *
 360:Generated_Source\PSoC5/ADC.c **** * Parameters:
 361:Generated_Source\PSoC5/ADC.c **** *  None
 362:Generated_Source\PSoC5/ADC.c **** *
 363:Generated_Source\PSoC5/ADC.c **** * Return:
 364:Generated_Source\PSoC5/ADC.c **** *  None
 365:Generated_Source\PSoC5/ADC.c **** *
 366:Generated_Source\PSoC5/ADC.c **** *******************************************************************************/
 367:Generated_Source\PSoC5/ADC.c **** void ADC_Stop(void) 
 368:Generated_Source\PSoC5/ADC.c **** {
 369:Generated_Source\PSoC5/ADC.c ****     uint8 enableInterrupts;
 370:Generated_Source\PSoC5/ADC.c ****     enableInterrupts = CyEnterCriticalSection();
 371:Generated_Source\PSoC5/ADC.c **** 
 372:Generated_Source\PSoC5/ADC.c ****     /* Stop conversions */
 373:Generated_Source\PSoC5/ADC.c ****     ADC_DEC_CR_REG &= (uint8)~ADC_DEC_START_CONV;
ARM GAS  C:\Users\User\AppData\Local\Temp\ccDgUeH4.s 			page 8


 374:Generated_Source\PSoC5/ADC.c ****     ADC_DEC_SR_REG |=  ADC_DEC_INTR_CLEAR;
 375:Generated_Source\PSoC5/ADC.c **** 
 376:Generated_Source\PSoC5/ADC.c ****     /* Disable PRES, Disable power to VCMBUF0, REFBUF0 and REFBUF1,
 377:Generated_Source\PSoC5/ADC.c ****        enable PRES */
 378:Generated_Source\PSoC5/ADC.c ****     ADC_RESET_CR4_REG |= ADC_IGNORE_PRESA1;
 379:Generated_Source\PSoC5/ADC.c ****     ADC_RESET_CR5_REG |= ADC_IGNORE_PRESA2;
 380:Generated_Source\PSoC5/ADC.c **** 
 381:Generated_Source\PSoC5/ADC.c ****     ADC_DSM_CR17_REG &= (uint8)~(ADC_DSM_EN_BUF_VREF | ADC_DSM_EN_BUF_VCM);
 382:Generated_Source\PSoC5/ADC.c ****     ADC_DSM_REF0_REG &= (uint8)~ADC_DSM_EN_BUF_VREF_INN;
 383:Generated_Source\PSoC5/ADC.c **** 
 384:Generated_Source\PSoC5/ADC.c ****     /* Wait for 3 microseconds. */
 385:Generated_Source\PSoC5/ADC.c ****     CyDelayUs(ADC_PRES_DELAY_TIME);
 386:Generated_Source\PSoC5/ADC.c **** 
 387:Generated_Source\PSoC5/ADC.c ****     /* Enable the press circuit */
 388:Generated_Source\PSoC5/ADC.c ****     ADC_RESET_CR4_REG &= (uint8)~ADC_IGNORE_PRESA1;
 389:Generated_Source\PSoC5/ADC.c ****     ADC_RESET_CR5_REG &= (uint8)~ADC_IGNORE_PRESA2;
 390:Generated_Source\PSoC5/ADC.c **** 
 391:Generated_Source\PSoC5/ADC.c ****     /* Disable power to the ADC */
 392:Generated_Source\PSoC5/ADC.c ****     ADC_PWRMGR_DSM_REG &= (uint8)~ADC_ACT_PWR_DSM_EN;
 393:Generated_Source\PSoC5/ADC.c **** 
 394:Generated_Source\PSoC5/ADC.c ****     /* Disable power to Decimator block */
 395:Generated_Source\PSoC5/ADC.c ****     ADC_PWRMGR_DEC_REG &= (uint8)~ADC_ACT_PWR_DEC_EN;
 396:Generated_Source\PSoC5/ADC.c **** 
 397:Generated_Source\PSoC5/ADC.c ****     /* Disable alternative active power to the ADC */
 398:Generated_Source\PSoC5/ADC.c ****     ADC_STBY_PWRMGR_DEC_REG &= (uint8)~ADC_STBY_PWR_DEC_EN;
 399:Generated_Source\PSoC5/ADC.c ****     ADC_STBY_PWRMGR_DSM_REG &= (uint8)~ADC_STBY_PWR_DSM_EN;
 400:Generated_Source\PSoC5/ADC.c **** 
 401:Generated_Source\PSoC5/ADC.c ****    /* Disable negative pumps for DSM  */
 402:Generated_Source\PSoC5/ADC.c ****     ADC_PUMP_CR1_REG &= (uint8)~(ADC_PUMP_CR1_CLKSEL | ADC_PUMP_CR1_FORCE );
 403:Generated_Source\PSoC5/ADC.c **** 
 404:Generated_Source\PSoC5/ADC.c ****     /* This is only valid if there is an internal clock */
 405:Generated_Source\PSoC5/ADC.c ****     #if(ADC_DEFAULT_INTERNAL_CLK)
 406:Generated_Source\PSoC5/ADC.c ****         ADC_PWRMGR_CLK_REG &= (uint8)~ADC_ACT_PWR_CLK_EN;
 407:Generated_Source\PSoC5/ADC.c ****         ADC_STBY_PWRMGR_CLK_REG &= (uint8)~ADC_STBY_PWR_CLK_EN;
 408:Generated_Source\PSoC5/ADC.c ****     #endif /* ADC_DEFAULT_INTERNAL_CLK */
 409:Generated_Source\PSoC5/ADC.c **** 
 410:Generated_Source\PSoC5/ADC.c ****     /* Disable Modulator Chopping */
 411:Generated_Source\PSoC5/ADC.c ****     ADC_DSM_CR2_REG &= (uint8)~ADC_DSM_MOD_CHOP_EN;
 412:Generated_Source\PSoC5/ADC.c ****     /* Disable power to charge pump clock */
 413:Generated_Source\PSoC5/ADC.c ****     ADC_PWRMGR_CHARGE_PUMP_CLK_REG &= (uint8)~ADC_ACT_PWR_CHARGE_PUMP_CLK_EN;
 414:Generated_Source\PSoC5/ADC.c ****     ADC_STBY_PWRMGR_CHARGE_PUMP_CLK_REG &= (uint8)~ADC_STBY_PWR_CHARGE_PUMP_CLK_EN;
 415:Generated_Source\PSoC5/ADC.c ****     
 416:Generated_Source\PSoC5/ADC.c ****     CyExitCriticalSection(enableInterrupts);
 417:Generated_Source\PSoC5/ADC.c **** }
 418:Generated_Source\PSoC5/ADC.c **** 
 419:Generated_Source\PSoC5/ADC.c **** 
 420:Generated_Source\PSoC5/ADC.c **** /*******************************************************************************
 421:Generated_Source\PSoC5/ADC.c **** * Function Name: ADC_SetBufferGain
 422:Generated_Source\PSoC5/ADC.c **** ********************************************************************************
 423:Generated_Source\PSoC5/ADC.c **** *
 424:Generated_Source\PSoC5/ADC.c **** * Summary:
 425:Generated_Source\PSoC5/ADC.c **** *  Sets input buffer gain.
 426:Generated_Source\PSoC5/ADC.c **** *
 427:Generated_Source\PSoC5/ADC.c **** * Parameters:
 428:Generated_Source\PSoC5/ADC.c **** *  gain:  Two bit value to select a gain of 1, 2, 4, or 8.
 429:Generated_Source\PSoC5/ADC.c **** *
 430:Generated_Source\PSoC5/ADC.c **** * Return:
ARM GAS  C:\Users\User\AppData\Local\Temp\ccDgUeH4.s 			page 9


 431:Generated_Source\PSoC5/ADC.c **** *  None
 432:Generated_Source\PSoC5/ADC.c **** *
 433:Generated_Source\PSoC5/ADC.c **** *******************************************************************************/
 434:Generated_Source\PSoC5/ADC.c **** void ADC_SetBufferGain(uint8 gain) 
 435:Generated_Source\PSoC5/ADC.c **** {
 436:Generated_Source\PSoC5/ADC.c ****     uint8 tmpReg;
 437:Generated_Source\PSoC5/ADC.c ****     tmpReg = ADC_DSM_BUF1_REG & (uint8)~ADC_DSM_GAIN_MASK;
 438:Generated_Source\PSoC5/ADC.c ****     tmpReg |= (uint8)(gain << ADC_DSM_GAIN_SHIFT) & ADC_DSM_GAIN_MASK;
 439:Generated_Source\PSoC5/ADC.c ****     ADC_DSM_BUF1_REG = tmpReg;
 440:Generated_Source\PSoC5/ADC.c **** }
 441:Generated_Source\PSoC5/ADC.c **** 
 442:Generated_Source\PSoC5/ADC.c **** 
 443:Generated_Source\PSoC5/ADC.c **** /*******************************************************************************
 444:Generated_Source\PSoC5/ADC.c **** * Function Name: ADC_SetCoherency
 445:Generated_Source\PSoC5/ADC.c **** ********************************************************************************
 446:Generated_Source\PSoC5/ADC.c **** *
 447:Generated_Source\PSoC5/ADC.c **** * Summary:
 448:Generated_Source\PSoC5/ADC.c **** *  This function allows the user to change which of the ADC's 3 word
 449:Generated_Source\PSoC5/ADC.c **** *  result will trigger a coherency unlock. The ADC's result will not be
 450:Generated_Source\PSoC5/ADC.c **** *  updated until the set byte is read either by the ADC or DMA. 
 451:Generated_Source\PSoC5/ADC.c **** *  By default the LSB is the coherency byte for right alignment data format. 
 452:Generated_Source\PSoC5/ADC.c **** *  The middle or high byte is set automatically depend on left alignment 
 453:Generated_Source\PSoC5/ADC.c **** *  configuration for DMA data transfer.
 454:Generated_Source\PSoC5/ADC.c **** *  If DMA or if a custom API requires different byte to be read the last,
 455:Generated_Source\PSoC5/ADC.c **** *  this API should be used to set the last byte of the ADC result that is read. 
 456:Generated_Source\PSoC5/ADC.c **** *  If a multibyte read is performed either by DMA or the ARM processor, the
 457:Generated_Source\PSoC5/ADC.c **** *  coherency can be set to any byte in the last word read.
 458:Generated_Source\PSoC5/ADC.c **** *
 459:Generated_Source\PSoC5/ADC.c **** * Parameters:
 460:Generated_Source\PSoC5/ADC.c **** *  coherency:  Two bit value to set the coherency bit.
 461:Generated_Source\PSoC5/ADC.c **** *           00-Coherency checking off
 462:Generated_Source\PSoC5/ADC.c **** *           01-low byte is key byte
 463:Generated_Source\PSoC5/ADC.c **** *           02-middle byte is the key byte
 464:Generated_Source\PSoC5/ADC.c **** *           03-high byte is the key byte
 465:Generated_Source\PSoC5/ADC.c **** *
 466:Generated_Source\PSoC5/ADC.c **** * Return:
 467:Generated_Source\PSoC5/ADC.c **** *  None
 468:Generated_Source\PSoC5/ADC.c **** *
 469:Generated_Source\PSoC5/ADC.c **** *******************************************************************************/
 470:Generated_Source\PSoC5/ADC.c **** void ADC_SetCoherency(uint8 coherency) 
 471:Generated_Source\PSoC5/ADC.c **** {
 472:Generated_Source\PSoC5/ADC.c ****     uint8 tmpReg;
 473:Generated_Source\PSoC5/ADC.c **** 
 474:Generated_Source\PSoC5/ADC.c ****     tmpReg = ADC_DEC_COHER_REG & (uint8)~ADC_DEC_SAMP_KEY_MASK;
 475:Generated_Source\PSoC5/ADC.c ****     tmpReg |= coherency & ADC_DEC_SAMP_KEY_MASK;
 476:Generated_Source\PSoC5/ADC.c ****     ADC_DEC_COHER_REG = tmpReg;
 477:Generated_Source\PSoC5/ADC.c **** }
 478:Generated_Source\PSoC5/ADC.c **** 
 479:Generated_Source\PSoC5/ADC.c **** 
 480:Generated_Source\PSoC5/ADC.c **** /*******************************************************************************
 481:Generated_Source\PSoC5/ADC.c **** * Function Name: ADC_SetGCOR
 482:Generated_Source\PSoC5/ADC.c **** ********************************************************************************
 483:Generated_Source\PSoC5/ADC.c **** *
 484:Generated_Source\PSoC5/ADC.c **** * Summary:
 485:Generated_Source\PSoC5/ADC.c **** *  Calculates a new GCOR value and writes it into the GCOR register. 
 486:Generated_Source\PSoC5/ADC.c **** *  The GCOR value is a 16-bit value that represents a gain of 0 to 2. 
 487:Generated_Source\PSoC5/ADC.c **** *  The ADC result is multiplied by this value before it is placed in the ADC 
ARM GAS  C:\Users\User\AppData\Local\Temp\ccDgUeH4.s 			page 10


 488:Generated_Source\PSoC5/ADC.c **** *  output registers. The numerical format for the GCOR value is:
 489:Generated_Source\PSoC5/ADC.c **** *  0x0000 -> 0.000
 490:Generated_Source\PSoC5/ADC.c **** *  0x8000 -> 1.000
 491:Generated_Source\PSoC5/ADC.c **** *  0xFFFF -> 1.99997
 492:Generated_Source\PSoC5/ADC.c **** *  When executing the function, the old GCOR value is multiplied by
 493:Generated_Source\PSoC5/ADC.c **** *  gainAdjust and reloaded into the GCOR register.
 494:Generated_Source\PSoC5/ADC.c **** *
 495:Generated_Source\PSoC5/ADC.c **** * Parameters:
 496:Generated_Source\PSoC5/ADC.c **** *  gainAdjust:  floating point value to set GCOR registers.
 497:Generated_Source\PSoC5/ADC.c **** *
 498:Generated_Source\PSoC5/ADC.c **** * Return:
 499:Generated_Source\PSoC5/ADC.c **** *  uint8: 0 - if GCOR value is within the expected range.
 500:Generated_Source\PSoC5/ADC.c **** *         1 - the correction value is outside GCOR value range of
 501:Generated_Source\PSoC5/ADC.c **** *             0.00 to 1.9999.
 502:Generated_Source\PSoC5/ADC.c **** *
 503:Generated_Source\PSoC5/ADC.c **** * Side Effects:  The GVAL register is set to the amount of valid bits in the
 504:Generated_Source\PSoC5/ADC.c **** *                GCOR  register minus one. If GVAL is 15 (0x0F), all 16 bits
 505:Generated_Source\PSoC5/ADC.c **** *                of the GCOR registers will be valid. If for example GVAL is
 506:Generated_Source\PSoC5/ADC.c **** *                11 (0x0B) only 12 bits will be valid. The least 4 bits will
 507:Generated_Source\PSoC5/ADC.c **** *                be lost when the GCOR value is shifted 4 places to the right.
 508:Generated_Source\PSoC5/ADC.c **** *
 509:Generated_Source\PSoC5/ADC.c **** ******************************************************************************/
 510:Generated_Source\PSoC5/ADC.c **** uint8 ADC_SetGCOR(float32 gainAdjust) 
 511:Generated_Source\PSoC5/ADC.c **** {
 512:Generated_Source\PSoC5/ADC.c ****     uint16 tmpReg;
 513:Generated_Source\PSoC5/ADC.c ****     uint8 status;
 514:Generated_Source\PSoC5/ADC.c ****     float32 tmpValue;
 515:Generated_Source\PSoC5/ADC.c **** 
 516:Generated_Source\PSoC5/ADC.c ****     tmpReg = ADC_gcor[ADC_Config - 1u].gcor;
 517:Generated_Source\PSoC5/ADC.c ****     tmpValue = ((float32)tmpReg / (float32)ADC_IDEAL_GAIN_CONST);
 518:Generated_Source\PSoC5/ADC.c ****     tmpValue = tmpValue * gainAdjust;
 519:Generated_Source\PSoC5/ADC.c **** 
 520:Generated_Source\PSoC5/ADC.c ****     if (tmpValue > 1.9999)
 521:Generated_Source\PSoC5/ADC.c ****     {
 522:Generated_Source\PSoC5/ADC.c ****         status = 1u;
 523:Generated_Source\PSoC5/ADC.c ****     }
 524:Generated_Source\PSoC5/ADC.c ****     else
 525:Generated_Source\PSoC5/ADC.c ****     {
 526:Generated_Source\PSoC5/ADC.c ****         tmpValue *= (float32)ADC_IDEAL_GAIN_CONST;
 527:Generated_Source\PSoC5/ADC.c **** 		tmpReg = (uint16)tmpValue;
 528:Generated_Source\PSoC5/ADC.c ****         CY_SET_REG16(ADC_DEC_GCOR_16B_PTR, tmpReg);
 529:Generated_Source\PSoC5/ADC.c ****         /* Update gain array to be used by SelectConfiguration() API */
 530:Generated_Source\PSoC5/ADC.c ****        ADC_gcor[ADC_Config - 1u].gcor = tmpReg;
 531:Generated_Source\PSoC5/ADC.c **** 
 532:Generated_Source\PSoC5/ADC.c ****         status = 0u;
 533:Generated_Source\PSoC5/ADC.c **** 
 534:Generated_Source\PSoC5/ADC.c ****     }
 535:Generated_Source\PSoC5/ADC.c ****     return(status);
 536:Generated_Source\PSoC5/ADC.c **** }
 537:Generated_Source\PSoC5/ADC.c **** 
 538:Generated_Source\PSoC5/ADC.c **** 
 539:Generated_Source\PSoC5/ADC.c **** /******************************************************************************
 540:Generated_Source\PSoC5/ADC.c **** * Function Name: ADC_ReadGCOR
 541:Generated_Source\PSoC5/ADC.c **** *******************************************************************************
 542:Generated_Source\PSoC5/ADC.c **** *
 543:Generated_Source\PSoC5/ADC.c **** * Summary:
 544:Generated_Source\PSoC5/ADC.c **** *  This API returns the current GCOR register value, normalized based on the
ARM GAS  C:\Users\User\AppData\Local\Temp\ccDgUeH4.s 			page 11


 545:Generated_Source\PSoC5/ADC.c **** *  GVAL register settings.
 546:Generated_Source\PSoC5/ADC.c **** *  For example, if the GCOR value is 0x0812 and the GVAL register is set to 
 547:Generated_Source\PSoC5/ADC.c **** *  11 (0x0B) then the returned value will be shifted by for bits to the left.
 548:Generated_Source\PSoC5/ADC.c **** *  (Actual GCOR value = 0x0812, returned value = 0x8120)
 549:Generated_Source\PSoC5/ADC.c **** *
 550:Generated_Source\PSoC5/ADC.c **** * Parameters:
 551:Generated_Source\PSoC5/ADC.c **** *  None
 552:Generated_Source\PSoC5/ADC.c **** *
 553:Generated_Source\PSoC5/ADC.c **** * Return:
 554:Generated_Source\PSoC5/ADC.c **** *  uint16:  Normalized GCOR value.
 555:Generated_Source\PSoC5/ADC.c **** *
 556:Generated_Source\PSoC5/ADC.c **** *******************************************************************************/
 557:Generated_Source\PSoC5/ADC.c **** uint16 ADC_ReadGCOR(void) 
 558:Generated_Source\PSoC5/ADC.c **** {
 559:Generated_Source\PSoC5/ADC.c ****     uint8 gValue;
 560:Generated_Source\PSoC5/ADC.c ****     uint16 gcorValue;
 561:Generated_Source\PSoC5/ADC.c **** 
 562:Generated_Source\PSoC5/ADC.c ****     gValue = ADC_DEC_GVAL_REG;
 563:Generated_Source\PSoC5/ADC.c ****     gcorValue = CY_GET_REG16(ADC_DEC_GCOR_16B_PTR);
 564:Generated_Source\PSoC5/ADC.c **** 
 565:Generated_Source\PSoC5/ADC.c ****     if (gValue < ADC_MAX_GVAL)
 566:Generated_Source\PSoC5/ADC.c ****     {
 567:Generated_Source\PSoC5/ADC.c ****         gcorValue <<= ADC_MAX_GVAL - gValue;
 568:Generated_Source\PSoC5/ADC.c ****     }
 569:Generated_Source\PSoC5/ADC.c **** 
 570:Generated_Source\PSoC5/ADC.c ****     return gcorValue;
 571:Generated_Source\PSoC5/ADC.c **** }
 572:Generated_Source\PSoC5/ADC.c **** 
 573:Generated_Source\PSoC5/ADC.c **** 
 574:Generated_Source\PSoC5/ADC.c **** /*******************************************************************************
 575:Generated_Source\PSoC5/ADC.c **** * Function Name: ADC_StartConvert
 576:Generated_Source\PSoC5/ADC.c **** ********************************************************************************
 577:Generated_Source\PSoC5/ADC.c **** *
 578:Generated_Source\PSoC5/ADC.c **** * Summary:
 579:Generated_Source\PSoC5/ADC.c **** *  Forces the ADC to initiate a conversion. If in the "Single Sample"
 580:Generated_Source\PSoC5/ADC.c **** *  mode, one conversion will be performed then the ADC will halt. If in
 581:Generated_Source\PSoC5/ADC.c **** *  one of the other three conversion modes, the ADC will run
 582:Generated_Source\PSoC5/ADC.c **** *  continuously until the ADC_Stop() or ADC_StopConvert() is called.
 583:Generated_Source\PSoC5/ADC.c **** *
 584:Generated_Source\PSoC5/ADC.c **** * Parameters:
 585:Generated_Source\PSoC5/ADC.c **** *  None
 586:Generated_Source\PSoC5/ADC.c **** *
 587:Generated_Source\PSoC5/ADC.c **** * Return:
 588:Generated_Source\PSoC5/ADC.c **** *  None
 589:Generated_Source\PSoC5/ADC.c **** *
 590:Generated_Source\PSoC5/ADC.c **** *******************************************************************************/
 591:Generated_Source\PSoC5/ADC.c **** void ADC_StartConvert(void) 
 592:Generated_Source\PSoC5/ADC.c **** {
 593:Generated_Source\PSoC5/ADC.c ****     /* Start the conversion */
 594:Generated_Source\PSoC5/ADC.c ****     ADC_DEC_CR_REG |= ADC_DEC_START_CONV;
 595:Generated_Source\PSoC5/ADC.c **** }
 596:Generated_Source\PSoC5/ADC.c **** 
 597:Generated_Source\PSoC5/ADC.c **** 
 598:Generated_Source\PSoC5/ADC.c **** /*******************************************************************************
 599:Generated_Source\PSoC5/ADC.c **** * Function Name: ADC_StopConvert
 600:Generated_Source\PSoC5/ADC.c **** ********************************************************************************
 601:Generated_Source\PSoC5/ADC.c **** *
ARM GAS  C:\Users\User\AppData\Local\Temp\ccDgUeH4.s 			page 12


 602:Generated_Source\PSoC5/ADC.c **** * Summary:
 603:Generated_Source\PSoC5/ADC.c **** *  Forces the ADC to stop all conversions. If the ADC is in the middle of a
 604:Generated_Source\PSoC5/ADC.c **** *  conversion, the ADC will be reset and not provide a result for that partial
 605:Generated_Source\PSoC5/ADC.c **** *  conversion.
 606:Generated_Source\PSoC5/ADC.c **** *
 607:Generated_Source\PSoC5/ADC.c **** * Parameters:
 608:Generated_Source\PSoC5/ADC.c **** *  None
 609:Generated_Source\PSoC5/ADC.c **** *
 610:Generated_Source\PSoC5/ADC.c **** * Return:
 611:Generated_Source\PSoC5/ADC.c **** *  None
 612:Generated_Source\PSoC5/ADC.c **** *
 613:Generated_Source\PSoC5/ADC.c **** *******************************************************************************/
 614:Generated_Source\PSoC5/ADC.c **** void ADC_StopConvert(void) 
 615:Generated_Source\PSoC5/ADC.c **** {
 616:Generated_Source\PSoC5/ADC.c ****     /* Stop all conversions */
 617:Generated_Source\PSoC5/ADC.c ****     ADC_DEC_CR_REG &= (uint8)~ADC_DEC_START_CONV;
 618:Generated_Source\PSoC5/ADC.c **** }
 619:Generated_Source\PSoC5/ADC.c **** 
 620:Generated_Source\PSoC5/ADC.c **** 
 621:Generated_Source\PSoC5/ADC.c **** /*******************************************************************************
 622:Generated_Source\PSoC5/ADC.c **** * Function Name: ADC_IsEndConversion
 623:Generated_Source\PSoC5/ADC.c **** ********************************************************************************
 624:Generated_Source\PSoC5/ADC.c **** *
 625:Generated_Source\PSoC5/ADC.c **** * Summary:
 626:Generated_Source\PSoC5/ADC.c **** *  Checks the status that the most recently started conversion has completed.
 627:Generated_Source\PSoC5/ADC.c **** *  The status is cleared by any of ADC_GetResult8(), ADC_GetResult16() or 
 628:Generated_Source\PSoC5/ADC.c **** *  ADC_GetResult32() API.
 629:Generated_Source\PSoC5/ADC.c **** *  This function provides the programmer with two options. In one mode this 
 630:Generated_Source\PSoC5/ADC.c **** *  function immediately returns with the conversion status. In the other mode,
 631:Generated_Source\PSoC5/ADC.c **** *  the function does not return (blocking) until the conversion has completed.
 632:Generated_Source\PSoC5/ADC.c **** *
 633:Generated_Source\PSoC5/ADC.c **** * Parameters:
 634:Generated_Source\PSoC5/ADC.c **** *  retMode: Check conversion return mode. See the following table for options.
 635:Generated_Source\PSoC5/ADC.c **** *   ADC_RETURN_STATUS -   Immediately returns conversion result
 636:Generated_Source\PSoC5/ADC.c **** *                                      status.
 637:Generated_Source\PSoC5/ADC.c **** *   ADC_WAIT_FOR_RESULT - Does not return until ADC conversion
 638:Generated_Source\PSoC5/ADC.c **** *                                      is complete.
 639:Generated_Source\PSoC5/ADC.c **** *
 640:Generated_Source\PSoC5/ADC.c **** * Return:
 641:Generated_Source\PSoC5/ADC.c **** *  If a nonzero value is returned, the last conversion has completed.
 642:Generated_Source\PSoC5/ADC.c **** *  If the returned value is zero, the ADC is still calculating the last result.
 643:Generated_Source\PSoC5/ADC.c **** *
 644:Generated_Source\PSoC5/ADC.c **** * Global variables:
 645:Generated_Source\PSoC5/ADC.c **** *  ADC_convDone:  Used to check whether conversion is complete
 646:Generated_Source\PSoC5/ADC.c **** *  or not for single sample mode with resolution is above 16
 647:Generated_Source\PSoC5/ADC.c **** *
 648:Generated_Source\PSoC5/ADC.c **** *******************************************************************************/
 649:Generated_Source\PSoC5/ADC.c **** uint8 ADC_IsEndConversion(uint8 retMode) 
 650:Generated_Source\PSoC5/ADC.c **** {
 651:Generated_Source\PSoC5/ADC.c ****     uint8 status;
 652:Generated_Source\PSoC5/ADC.c **** 
 653:Generated_Source\PSoC5/ADC.c ****     do
 654:Generated_Source\PSoC5/ADC.c ****     {
 655:Generated_Source\PSoC5/ADC.c ****         /* Check for stop convert if conversion mode is Single Sample with
 656:Generated_Source\PSoC5/ADC.c ****         *   resolution above 16 bit
 657:Generated_Source\PSoC5/ADC.c ****         */
 658:Generated_Source\PSoC5/ADC.c ****         if(ADC_stopConversion != 0u)
ARM GAS  C:\Users\User\AppData\Local\Temp\ccDgUeH4.s 			page 13


 659:Generated_Source\PSoC5/ADC.c ****         {
 660:Generated_Source\PSoC5/ADC.c ****             status = ADC_convDone;
 661:Generated_Source\PSoC5/ADC.c ****         }
 662:Generated_Source\PSoC5/ADC.c ****         else
 663:Generated_Source\PSoC5/ADC.c ****         {
 664:Generated_Source\PSoC5/ADC.c ****             status = ADC_DEC_SR_REG & ADC_DEC_CONV_DONE;
 665:Generated_Source\PSoC5/ADC.c ****         }
 666:Generated_Source\PSoC5/ADC.c ****     }while((status != ADC_DEC_CONV_DONE) && (retMode == ADC_WAIT_FOR_RESULT));
 667:Generated_Source\PSoC5/ADC.c **** 
 668:Generated_Source\PSoC5/ADC.c ****     return(status);
 669:Generated_Source\PSoC5/ADC.c **** }
 670:Generated_Source\PSoC5/ADC.c **** 
 671:Generated_Source\PSoC5/ADC.c **** 
 672:Generated_Source\PSoC5/ADC.c **** /*******************************************************************************
 673:Generated_Source\PSoC5/ADC.c **** * Function Name: ADC_GetResult8
 674:Generated_Source\PSoC5/ADC.c **** ********************************************************************************
 675:Generated_Source\PSoC5/ADC.c **** *
 676:Generated_Source\PSoC5/ADC.c **** * Summary:
 677:Generated_Source\PSoC5/ADC.c **** *  This function returns the result of an 8-bit conversion. If the
 678:Generated_Source\PSoC5/ADC.c **** *  resolution is set greater than 8-bits, the LSB of the result will be
 679:Generated_Source\PSoC5/ADC.c **** *  returned. When the ADC is configured for 8-bit single ended mode,
 680:Generated_Source\PSoC5/ADC.c **** *  the ADC_GetResult16() function should be used instead. This
 681:Generated_Source\PSoC5/ADC.c **** *  function returns only signed 8-bit values. The maximum positive
 682:Generated_Source\PSoC5/ADC.c **** *  signed 8-bit value is 127, but in singled ended 8-bit mode, the
 683:Generated_Source\PSoC5/ADC.c **** *  maximum positive value is 255.
 684:Generated_Source\PSoC5/ADC.c **** *
 685:Generated_Source\PSoC5/ADC.c **** * Parameters:
 686:Generated_Source\PSoC5/ADC.c **** *  None
 687:Generated_Source\PSoC5/ADC.c **** *
 688:Generated_Source\PSoC5/ADC.c **** * Return:
 689:Generated_Source\PSoC5/ADC.c **** *  int8: The LSB of the last ADC conversion.
 690:Generated_Source\PSoC5/ADC.c **** *
 691:Generated_Source\PSoC5/ADC.c **** * Global variables:
 692:Generated_Source\PSoC5/ADC.c **** *  ADC_convDone:  Cleared in single sample mode with resolution
 693:Generated_Source\PSoC5/ADC.c **** *                              above 16 bits
 694:Generated_Source\PSoC5/ADC.c **** *
 695:Generated_Source\PSoC5/ADC.c **** *******************************************************************************/
 696:Generated_Source\PSoC5/ADC.c **** int8 ADC_GetResult8( void ) 
 697:Generated_Source\PSoC5/ADC.c **** {
 698:Generated_Source\PSoC5/ADC.c ****     int8 result;
 699:Generated_Source\PSoC5/ADC.c ****     uint8 coherency;
 700:Generated_Source\PSoC5/ADC.c **** 
 701:Generated_Source\PSoC5/ADC.c ****     /* Read active coherency configuration */
 702:Generated_Source\PSoC5/ADC.c ****     coherency = ADC_DEC_COHER_REG & ADC_DEC_SAMP_KEY_MASK;
 703:Generated_Source\PSoC5/ADC.c **** 
 704:Generated_Source\PSoC5/ADC.c ****     result = (int8)ADC_DEC_SAMP_REG;
 705:Generated_Source\PSoC5/ADC.c **** 
 706:Generated_Source\PSoC5/ADC.c ****     if(coherency == ADC_DEC_SAMP_KEY_MID)
 707:Generated_Source\PSoC5/ADC.c ****     {   /* Dummy read of the middle byte to unlock the coherency */
 708:Generated_Source\PSoC5/ADC.c ****         (void)ADC_DEC_SAMPM_REG;
 709:Generated_Source\PSoC5/ADC.c ****     }
 710:Generated_Source\PSoC5/ADC.c ****     else  if(coherency == ADC_DEC_SAMP_KEY_HIGH)
 711:Generated_Source\PSoC5/ADC.c ****     {   /* Dummy read of the MSB byte to unlock the coherency */
 712:Generated_Source\PSoC5/ADC.c ****         (void)ADC_DEC_SAMPH_REG;
 713:Generated_Source\PSoC5/ADC.c ****     }
 714:Generated_Source\PSoC5/ADC.c ****     else /*No action required for other coherency */
 715:Generated_Source\PSoC5/ADC.c ****     {
ARM GAS  C:\Users\User\AppData\Local\Temp\ccDgUeH4.s 			page 14


 716:Generated_Source\PSoC5/ADC.c ****     }
 717:Generated_Source\PSoC5/ADC.c ****     /* Clear conversion complete status in Single Sample mode with resolution above 16 bit */
 718:Generated_Source\PSoC5/ADC.c ****     if(ADC_stopConversion != 0u)
 719:Generated_Source\PSoC5/ADC.c ****     {
 720:Generated_Source\PSoC5/ADC.c ****         ADC_convDone = 0u;
 721:Generated_Source\PSoC5/ADC.c ****     }
 722:Generated_Source\PSoC5/ADC.c ****     return (result);
 723:Generated_Source\PSoC5/ADC.c **** }
 724:Generated_Source\PSoC5/ADC.c **** 
 725:Generated_Source\PSoC5/ADC.c **** 
 726:Generated_Source\PSoC5/ADC.c **** /*******************************************************************************
 727:Generated_Source\PSoC5/ADC.c **** * Function Name: ADC_GetResult16
 728:Generated_Source\PSoC5/ADC.c **** ********************************************************************************
 729:Generated_Source\PSoC5/ADC.c **** *
 730:Generated_Source\PSoC5/ADC.c **** * Summary:
 731:Generated_Source\PSoC5/ADC.c **** *  Returns a 16-bit result for a conversion with a result that has a
 732:Generated_Source\PSoC5/ADC.c **** *  resolution of 8 to 16 bits. If the resolution is set greater than 16-bits,
 733:Generated_Source\PSoC5/ADC.c **** *  it will return the 16 least significant bits of the result. When the ADC
 734:Generated_Source\PSoC5/ADC.c **** *  is configured for 16-bit single ended mode, the ADC_GetResult32()
 735:Generated_Source\PSoC5/ADC.c **** *  function should be used instead. This function returns only signed
 736:Generated_Source\PSoC5/ADC.c **** *  16-bit result, which allows a maximum positive value of 32767, not 65535.
 737:Generated_Source\PSoC5/ADC.c **** *  This function supports different coherency settings.
 738:Generated_Source\PSoC5/ADC.c **** *
 739:Generated_Source\PSoC5/ADC.c **** * Parameters:
 740:Generated_Source\PSoC5/ADC.c **** *   void
 741:Generated_Source\PSoC5/ADC.c **** *
 742:Generated_Source\PSoC5/ADC.c **** * Return:
 743:Generated_Source\PSoC5/ADC.c **** *  int16:  ADC result.
 744:Generated_Source\PSoC5/ADC.c **** *
 745:Generated_Source\PSoC5/ADC.c **** * Global variables:
 746:Generated_Source\PSoC5/ADC.c **** *  ADC_convDone:  Cleared in single sample mode with resolution
 747:Generated_Source\PSoC5/ADC.c **** *                              above 16 bits
 748:Generated_Source\PSoC5/ADC.c **** *
 749:Generated_Source\PSoC5/ADC.c **** *******************************************************************************/
 750:Generated_Source\PSoC5/ADC.c **** int16 ADC_GetResult16(void) 
 751:Generated_Source\PSoC5/ADC.c **** {
 752:Generated_Source\PSoC5/ADC.c ****     uint16 result;
 753:Generated_Source\PSoC5/ADC.c ****     uint8 coherency;
 754:Generated_Source\PSoC5/ADC.c **** 
 755:Generated_Source\PSoC5/ADC.c ****     /* Read active coherency configuration */
 756:Generated_Source\PSoC5/ADC.c ****     coherency = ADC_DEC_COHER_REG & ADC_DEC_SAMP_KEY_MASK;
 757:Generated_Source\PSoC5/ADC.c **** 
 758:Generated_Source\PSoC5/ADC.c ****     if(coherency <= ADC_DEC_SAMP_KEY_LOW)
 759:Generated_Source\PSoC5/ADC.c ****     {   /*  Use default method to read result registers i.e. LSB byte read at the end*/
 760:Generated_Source\PSoC5/ADC.c ****         #if (CY_PSOC3)
 761:Generated_Source\PSoC5/ADC.c ****             result = ADC_DEC_SAMPM_REG;
 762:Generated_Source\PSoC5/ADC.c ****             result = (result << 8u) | ADC_DEC_SAMP_REG;
 763:Generated_Source\PSoC5/ADC.c ****         #else
 764:Generated_Source\PSoC5/ADC.c ****             result = (CY_GET_REG16(ADC_DEC_SAMP_16B_PTR));
 765:Generated_Source\PSoC5/ADC.c ****         #endif /* CY_PSOC3 */
 766:Generated_Source\PSoC5/ADC.c ****     }
 767:Generated_Source\PSoC5/ADC.c ****     else /* MID or HIGH */
 768:Generated_Source\PSoC5/ADC.c ****     {   /* Read middle byte at the end */
 769:Generated_Source\PSoC5/ADC.c ****         #if (CY_PSOC3)
 770:Generated_Source\PSoC5/ADC.c ****             result = (CY_GET_REG16(ADC_DEC_SAMP_16B_PTR));
 771:Generated_Source\PSoC5/ADC.c ****         #else
 772:Generated_Source\PSoC5/ADC.c ****             result = ADC_DEC_SAMP_REG;
ARM GAS  C:\Users\User\AppData\Local\Temp\ccDgUeH4.s 			page 15


 773:Generated_Source\PSoC5/ADC.c ****             result |=  (uint16)((uint16)ADC_DEC_SAMPM_REG << 8u);
 774:Generated_Source\PSoC5/ADC.c ****         #endif /* CY_PSOC3 */
 775:Generated_Source\PSoC5/ADC.c ****         if(coherency == ADC_DEC_SAMP_KEY_HIGH)
 776:Generated_Source\PSoC5/ADC.c ****         {   /* Dummy read of the MSB byte to unlock the coherency */
 777:Generated_Source\PSoC5/ADC.c ****             (void)ADC_DEC_SAMPH_REG;
 778:Generated_Source\PSoC5/ADC.c ****         }
 779:Generated_Source\PSoC5/ADC.c ****     }
 780:Generated_Source\PSoC5/ADC.c ****     /* Clear conversion complete status in Single Sample mode with resolution above 16 bit */
 781:Generated_Source\PSoC5/ADC.c ****     if(ADC_stopConversion != 0u)
 782:Generated_Source\PSoC5/ADC.c ****     {
 783:Generated_Source\PSoC5/ADC.c ****         ADC_convDone = 0u;
 784:Generated_Source\PSoC5/ADC.c ****     }
 785:Generated_Source\PSoC5/ADC.c **** 
 786:Generated_Source\PSoC5/ADC.c ****     return ((int16)result);
 787:Generated_Source\PSoC5/ADC.c **** }
 788:Generated_Source\PSoC5/ADC.c **** 
 789:Generated_Source\PSoC5/ADC.c **** 
 790:Generated_Source\PSoC5/ADC.c **** /*******************************************************************************
 791:Generated_Source\PSoC5/ADC.c **** * Function Name: ADC_GetResult32
 792:Generated_Source\PSoC5/ADC.c **** ********************************************************************************
 793:Generated_Source\PSoC5/ADC.c **** *
 794:Generated_Source\PSoC5/ADC.c **** * Summary:
 795:Generated_Source\PSoC5/ADC.c **** *  Returns a 32-bit result for a conversion with a result that has a
 796:Generated_Source\PSoC5/ADC.c **** *  resolution of 8 to 20 bits.
 797:Generated_Source\PSoC5/ADC.c **** *  This function supports different coherency settings.
 798:Generated_Source\PSoC5/ADC.c **** *
 799:Generated_Source\PSoC5/ADC.c **** * Parameters:
 800:Generated_Source\PSoC5/ADC.c **** *  None
 801:Generated_Source\PSoC5/ADC.c **** *
 802:Generated_Source\PSoC5/ADC.c **** * Return:
 803:Generated_Source\PSoC5/ADC.c **** *  int32: Result of the last ADC conversion.
 804:Generated_Source\PSoC5/ADC.c **** *
 805:Generated_Source\PSoC5/ADC.c **** * Global variables:
 806:Generated_Source\PSoC5/ADC.c **** *  ADC_convDone:  Cleared in single sample mode with resolution
 807:Generated_Source\PSoC5/ADC.c **** *                              above 16 bits
 808:Generated_Source\PSoC5/ADC.c **** *
 809:Generated_Source\PSoC5/ADC.c **** *******************************************************************************/
 810:Generated_Source\PSoC5/ADC.c **** int32 ADC_GetResult32(void) 
 811:Generated_Source\PSoC5/ADC.c **** {
 812:Generated_Source\PSoC5/ADC.c ****     uint32 result;
 813:Generated_Source\PSoC5/ADC.c ****     uint8 coherency;
 814:Generated_Source\PSoC5/ADC.c ****     #if (CY_PSOC3)
 815:Generated_Source\PSoC5/ADC.c **** 	    uint16 tmp;
 816:Generated_Source\PSoC5/ADC.c ****     #endif /* CY_PSOC3 */
 817:Generated_Source\PSoC5/ADC.c **** 
 818:Generated_Source\PSoC5/ADC.c ****     /* Read active coherency configuration */
 819:Generated_Source\PSoC5/ADC.c ****     coherency = ADC_DEC_COHER_REG & ADC_DEC_SAMP_KEY_MASK;
 820:Generated_Source\PSoC5/ADC.c **** 
 821:Generated_Source\PSoC5/ADC.c ****     if(coherency <= ADC_DEC_SAMP_KEY_LOW)
 822:Generated_Source\PSoC5/ADC.c ****     {   /*  Use default method to read result registers i.e. LSB byte read at the end*/
 823:Generated_Source\PSoC5/ADC.c ****         #if (CY_PSOC3)
 824:Generated_Source\PSoC5/ADC.c ****             result = ADC_DEC_SAMPH_REG;
 825:Generated_Source\PSoC5/ADC.c ****             if((result & 0x80u) != 0u)
 826:Generated_Source\PSoC5/ADC.c ****             {   /* Sign extend */
 827:Generated_Source\PSoC5/ADC.c ****                 result |= 0xFF00u;
 828:Generated_Source\PSoC5/ADC.c ****             }
 829:Generated_Source\PSoC5/ADC.c ****             result = (result << 8u) | ADC_DEC_SAMPM_REG;
ARM GAS  C:\Users\User\AppData\Local\Temp\ccDgUeH4.s 			page 16


 830:Generated_Source\PSoC5/ADC.c ****             result = (result << 8u) | ADC_DEC_SAMP_REG;
 831:Generated_Source\PSoC5/ADC.c ****         #else
 832:Generated_Source\PSoC5/ADC.c ****             result = CY_GET_REG16(ADC_DEC_SAMPH_16B_PTR);
 833:Generated_Source\PSoC5/ADC.c ****             result = (result << 16u) | (CY_GET_REG16(ADC_DEC_SAMP_16B_PTR));
 834:Generated_Source\PSoC5/ADC.c ****         #endif /* CY_PSOC3 */
 835:Generated_Source\PSoC5/ADC.c ****     }
 836:Generated_Source\PSoC5/ADC.c ****     else if(coherency == ADC_DEC_SAMP_KEY_MID)
 837:Generated_Source\PSoC5/ADC.c ****     {   /* Read middle byte at the end */
 838:Generated_Source\PSoC5/ADC.c ****         #if (CY_PSOC3)
 839:Generated_Source\PSoC5/ADC.c ****             result = ADC_DEC_SAMPH_REG;
 840:Generated_Source\PSoC5/ADC.c ****             if((result & 0x80u) != 0u)
 841:Generated_Source\PSoC5/ADC.c ****             {   /* Sign extend */
 842:Generated_Source\PSoC5/ADC.c ****                 result |= 0xFF00u;
 843:Generated_Source\PSoC5/ADC.c ****             }
 844:Generated_Source\PSoC5/ADC.c ****             result = (result << 16u) | (CY_GET_REG16(ADC_DEC_SAMP_16B_PTR));
 845:Generated_Source\PSoC5/ADC.c ****         #else
 846:Generated_Source\PSoC5/ADC.c ****             result = CY_GET_REG16(ADC_DEC_SAMPH_16B_PTR);
 847:Generated_Source\PSoC5/ADC.c ****             result = (result << 16u) | ADC_DEC_SAMP_REG;
 848:Generated_Source\PSoC5/ADC.c ****             result |=  (uint32)((uint32)ADC_DEC_SAMPM_REG << 8u);
 849:Generated_Source\PSoC5/ADC.c ****         #endif /* CY_PSOC3 */
 850:Generated_Source\PSoC5/ADC.c ****     }
 851:Generated_Source\PSoC5/ADC.c ****     else /*ADC_DEC_SAMP_KEY_HIGH */
 852:Generated_Source\PSoC5/ADC.c ****     {
 853:Generated_Source\PSoC5/ADC.c ****         /* Read MSB byte at the end */
 854:Generated_Source\PSoC5/ADC.c ****         #if (CY_PSOC3)
 855:Generated_Source\PSoC5/ADC.c ****             result = CY_GET_REG16(ADC_DEC_SAMP_16B_PTR);
 856:Generated_Source\PSoC5/ADC.c **** 			tmp = ADC_DEC_SAMPH_REG;
 857:Generated_Source\PSoC5/ADC.c ****             if((tmp & 0x80u) != 0u)
 858:Generated_Source\PSoC5/ADC.c ****             {   /* Sign extend */
 859:Generated_Source\PSoC5/ADC.c ****                 tmp |= 0xFF00u;
 860:Generated_Source\PSoC5/ADC.c ****             }
 861:Generated_Source\PSoC5/ADC.c ****             result |= (uint32)tmp << 16u;
 862:Generated_Source\PSoC5/ADC.c ****         #else
 863:Generated_Source\PSoC5/ADC.c ****             result = CY_GET_REG16(ADC_DEC_SAMP_16B_PTR);
 864:Generated_Source\PSoC5/ADC.c ****             result |= (uint32)((uint32)CY_GET_REG16(ADC_DEC_SAMPH_16B_PTR) << 16u);
 865:Generated_Source\PSoC5/ADC.c ****         #endif /* CY_PSOC3 */
 866:Generated_Source\PSoC5/ADC.c ****     }
 867:Generated_Source\PSoC5/ADC.c ****     /* Clear conversion complete status in Single Sample mode with resolution above 16 bit */
 868:Generated_Source\PSoC5/ADC.c ****     if(ADC_stopConversion != 0u)
 869:Generated_Source\PSoC5/ADC.c ****     {
 870:Generated_Source\PSoC5/ADC.c ****         ADC_convDone = 0u;
 871:Generated_Source\PSoC5/ADC.c ****     }
 872:Generated_Source\PSoC5/ADC.c **** 
 873:Generated_Source\PSoC5/ADC.c ****     return ((int32)result);
 874:Generated_Source\PSoC5/ADC.c **** }
 875:Generated_Source\PSoC5/ADC.c **** 
 876:Generated_Source\PSoC5/ADC.c **** 
 877:Generated_Source\PSoC5/ADC.c **** /*******************************************************************************
 878:Generated_Source\PSoC5/ADC.c **** * Function Name: ADC_SetOffset
 879:Generated_Source\PSoC5/ADC.c **** ********************************************************************************
 880:Generated_Source\PSoC5/ADC.c **** *
 881:Generated_Source\PSoC5/ADC.c **** * Summary:
 882:Generated_Source\PSoC5/ADC.c **** *  Sets the ADC offset which is used by the functions ADC_CountsTo_uVolts, 
 883:Generated_Source\PSoC5/ADC.c **** *  ADC_CountsTo_mVolts, and ADC_CountsTo_Volts to subtract the offset from the 
 884:Generated_Source\PSoC5/ADC.c **** *  given reading before calculating the voltage conversion.
 885:Generated_Source\PSoC5/ADC.c **** *
 886:Generated_Source\PSoC5/ADC.c **** * Parameters:
ARM GAS  C:\Users\User\AppData\Local\Temp\ccDgUeH4.s 			page 17


 887:Generated_Source\PSoC5/ADC.c **** *  int32:  This value is a measured value when the inputs are shorted or 
 888:Generated_Source\PSoC5/ADC.c **** *          connected to the same input voltage.
 889:Generated_Source\PSoC5/ADC.c **** *
 890:Generated_Source\PSoC5/ADC.c **** * Return:
 891:Generated_Source\PSoC5/ADC.c **** *  None
 892:Generated_Source\PSoC5/ADC.c **** *
 893:Generated_Source\PSoC5/ADC.c **** * Global variables:
 894:Generated_Source\PSoC5/ADC.c **** *  ADC_Offset:  Modified to set the user provided offset. This
 895:Generated_Source\PSoC5/ADC.c **** *  variable is used for offset calibration purpose.
 896:Generated_Source\PSoC5/ADC.c **** *
 897:Generated_Source\PSoC5/ADC.c **** * Side Effects:
 898:Generated_Source\PSoC5/ADC.c **** *  Affects the ADC_CountsTo_Volts,
 899:Generated_Source\PSoC5/ADC.c **** *  ADC_CountsTo_mVolts, ADC_CountsTo_uVolts functions
 900:Generated_Source\PSoC5/ADC.c **** *  by subtracting the given offset.
 901:Generated_Source\PSoC5/ADC.c **** *
 902:Generated_Source\PSoC5/ADC.c **** *******************************************************************************/
 903:Generated_Source\PSoC5/ADC.c **** void ADC_SetOffset(int32 offset) 
 904:Generated_Source\PSoC5/ADC.c **** {
 905:Generated_Source\PSoC5/ADC.c **** 
 906:Generated_Source\PSoC5/ADC.c ****     ADC_Offset = offset;
 907:Generated_Source\PSoC5/ADC.c **** }
 908:Generated_Source\PSoC5/ADC.c **** 
 909:Generated_Source\PSoC5/ADC.c **** 
 910:Generated_Source\PSoC5/ADC.c **** /*******************************************************************************
 911:Generated_Source\PSoC5/ADC.c **** * Function Name: ADC_SetGain
 912:Generated_Source\PSoC5/ADC.c **** ********************************************************************************
 913:Generated_Source\PSoC5/ADC.c **** *
 914:Generated_Source\PSoC5/ADC.c **** * Summary:
 915:Generated_Source\PSoC5/ADC.c **** *  Sets the ADC gain in counts per volt for the voltage conversion
 916:Generated_Source\PSoC5/ADC.c **** *  functions below. This value is set by default by the reference and
 917:Generated_Source\PSoC5/ADC.c **** *  input range settings. It should only be used to further calibrate the
 918:Generated_Source\PSoC5/ADC.c **** *  ADC with a known input or if an external reference is used. This
 919:Generated_Source\PSoC5/ADC.c **** *  function may also be used to calibrate an entire signal chain, not
 920:Generated_Source\PSoC5/ADC.c **** *  just the ADC.
 921:Generated_Source\PSoC5/ADC.c **** *
 922:Generated_Source\PSoC5/ADC.c **** * Parameters:
 923:Generated_Source\PSoC5/ADC.c **** *  int32: ADC gain in counts per volt.
 924:Generated_Source\PSoC5/ADC.c **** *
 925:Generated_Source\PSoC5/ADC.c **** * Return:
 926:Generated_Source\PSoC5/ADC.c **** *  None
 927:Generated_Source\PSoC5/ADC.c **** *
 928:Generated_Source\PSoC5/ADC.c **** * Global variables:
 929:Generated_Source\PSoC5/ADC.c **** *  ADC_CountsPerVolt:  modified to set the ADC gain in counts
 930:Generated_Source\PSoC5/ADC.c **** *   per volt.
 931:Generated_Source\PSoC5/ADC.c **** *
 932:Generated_Source\PSoC5/ADC.c **** * Side Effects:
 933:Generated_Source\PSoC5/ADC.c **** *  Affects the ADC_CountsTo_Volts,
 934:Generated_Source\PSoC5/ADC.c **** *  ADC_CountsTo_mVolts, ADC_CountsTo_uVolts functions
 935:Generated_Source\PSoC5/ADC.c **** *  supplying the correct conversion between ADC counts and voltage.
 936:Generated_Source\PSoC5/ADC.c **** *
 937:Generated_Source\PSoC5/ADC.c **** *******************************************************************************/
 938:Generated_Source\PSoC5/ADC.c **** void ADC_SetGain(int32 adcGain) 
 939:Generated_Source\PSoC5/ADC.c **** {
 940:Generated_Source\PSoC5/ADC.c ****     ADC_CountsPerVolt = adcGain;
 941:Generated_Source\PSoC5/ADC.c **** }
 942:Generated_Source\PSoC5/ADC.c **** 
 943:Generated_Source\PSoC5/ADC.c **** 
ARM GAS  C:\Users\User\AppData\Local\Temp\ccDgUeH4.s 			page 18


 944:Generated_Source\PSoC5/ADC.c **** /*******************************************************************************
 945:Generated_Source\PSoC5/ADC.c **** * Function Name: ADC_CountsTo_mVolts
 946:Generated_Source\PSoC5/ADC.c **** ********************************************************************************
 947:Generated_Source\PSoC5/ADC.c **** *
 948:Generated_Source\PSoC5/ADC.c **** * Summary:
 949:Generated_Source\PSoC5/ADC.c **** *  Converts the ADC counts output to mVolts as a 16-bit integer. For
 950:Generated_Source\PSoC5/ADC.c **** *  example, if the ADC measured 0.534 volts, the return value would
 951:Generated_Source\PSoC5/ADC.c **** *  be 534 mVolts.
 952:Generated_Source\PSoC5/ADC.c **** *
 953:Generated_Source\PSoC5/ADC.c **** * Parameters:
 954:Generated_Source\PSoC5/ADC.c **** *  int32: adcCounts Result from the ADC conversion.
 955:Generated_Source\PSoC5/ADC.c **** *
 956:Generated_Source\PSoC5/ADC.c **** * Return:
 957:Generated_Source\PSoC5/ADC.c **** *  int16:  Result in mVolts
 958:Generated_Source\PSoC5/ADC.c **** *
 959:Generated_Source\PSoC5/ADC.c **** * Global variables:
 960:Generated_Source\PSoC5/ADC.c **** *  ADC_CountsPerVolt:  used to convert ADC counts to mVolts.
 961:Generated_Source\PSoC5/ADC.c **** *  ADC_Offset:  Used as the offset while converting ADC counts
 962:Generated_Source\PSoC5/ADC.c **** *   to mVolts.
 963:Generated_Source\PSoC5/ADC.c **** *
 964:Generated_Source\PSoC5/ADC.c **** *******************************************************************************/
 965:Generated_Source\PSoC5/ADC.c **** int16 ADC_CountsTo_mVolts(int32 adcCounts) 
 966:Generated_Source\PSoC5/ADC.c **** {
 967:Generated_Source\PSoC5/ADC.c **** 
 968:Generated_Source\PSoC5/ADC.c ****     int16 mVolts;
 969:Generated_Source\PSoC5/ADC.c **** 
 970:Generated_Source\PSoC5/ADC.c ****     /* Convert adcCounts to the right align if left option selected */
 971:Generated_Source\PSoC5/ADC.c ****     #if(ADC_CFG1_DEC_DIV != 0)
 972:Generated_Source\PSoC5/ADC.c ****         if(ADC_Config == ADC_CFG1)
 973:Generated_Source\PSoC5/ADC.c ****         {
 974:Generated_Source\PSoC5/ADC.c ****             adcCounts /= ADC_CFG1_DEC_DIV;
 975:Generated_Source\PSoC5/ADC.c ****         }
 976:Generated_Source\PSoC5/ADC.c ****     #endif /* ADC_CFG1_DEC_DIV */
 977:Generated_Source\PSoC5/ADC.c ****     #if((ADC_CFG2_DEC_DIV != 0) && (ADC_DEFAULT_NUM_CONFIGS > 1))
 978:Generated_Source\PSoC5/ADC.c ****         if(ADC_Config == ADC_CFG2)
 979:Generated_Source\PSoC5/ADC.c ****         {
 980:Generated_Source\PSoC5/ADC.c ****             adcCounts /= ADC_CFG2_DEC_DIV;
 981:Generated_Source\PSoC5/ADC.c ****         }
 982:Generated_Source\PSoC5/ADC.c ****     #endif /* ADC_CFG2_DEC_DIV */
 983:Generated_Source\PSoC5/ADC.c ****     #if((ADC_CFG3_DEC_DIV != 0) && (ADC_DEFAULT_NUM_CONFIGS > 2))
 984:Generated_Source\PSoC5/ADC.c ****         if(ADC_Config == ADC_CFG3)
 985:Generated_Source\PSoC5/ADC.c ****         {
 986:Generated_Source\PSoC5/ADC.c ****             adcCounts /= ADC_CFG3_DEC_DIV;
 987:Generated_Source\PSoC5/ADC.c ****         }
 988:Generated_Source\PSoC5/ADC.c ****     #endif /* ADC_CFG2_DEC_DIV */
 989:Generated_Source\PSoC5/ADC.c ****     #if((ADC_CFG4_DEC_DIV != 0) && (ADC_DEFAULT_NUM_CONFIGS > 3))
 990:Generated_Source\PSoC5/ADC.c ****         if(ADC_Config == ADC_CFG4)
 991:Generated_Source\PSoC5/ADC.c ****         {
 992:Generated_Source\PSoC5/ADC.c ****             adcCounts /= ADC_CFG4_DEC_DIV;
 993:Generated_Source\PSoC5/ADC.c ****         }
 994:Generated_Source\PSoC5/ADC.c ****     #endif /* ADC_CFG2_DEC_DIV */
 995:Generated_Source\PSoC5/ADC.c **** 
 996:Generated_Source\PSoC5/ADC.c ****     /* Subtract ADC offset */
 997:Generated_Source\PSoC5/ADC.c ****     adcCounts -= ADC_Offset;
 998:Generated_Source\PSoC5/ADC.c **** 
 999:Generated_Source\PSoC5/ADC.c ****     mVolts = (int16)(( adcCounts * ADC_1MV_COUNTS ) / ADC_CountsPerVolt) ;
1000:Generated_Source\PSoC5/ADC.c **** 
ARM GAS  C:\Users\User\AppData\Local\Temp\ccDgUeH4.s 			page 19


1001:Generated_Source\PSoC5/ADC.c ****     return(mVolts);
1002:Generated_Source\PSoC5/ADC.c **** }
1003:Generated_Source\PSoC5/ADC.c **** 
1004:Generated_Source\PSoC5/ADC.c **** 
1005:Generated_Source\PSoC5/ADC.c **** /*******************************************************************************
1006:Generated_Source\PSoC5/ADC.c **** * Function Name: ADC_CountsTo_Volts
1007:Generated_Source\PSoC5/ADC.c **** ********************************************************************************
1008:Generated_Source\PSoC5/ADC.c **** *
1009:Generated_Source\PSoC5/ADC.c **** * Summary:
1010:Generated_Source\PSoC5/ADC.c **** *  Converts the ADC output to Volts as a floating point number. For
1011:Generated_Source\PSoC5/ADC.c **** *  example, if the ADC measure a voltage of 1.2345 Volts, the
1012:Generated_Source\PSoC5/ADC.c **** *  returned result would be +1.2345 Volts.
1013:Generated_Source\PSoC5/ADC.c **** *
1014:Generated_Source\PSoC5/ADC.c **** * Parameters:
1015:Generated_Source\PSoC5/ADC.c **** *  int32 adcCounts:  Result from the ADC conversion.
1016:Generated_Source\PSoC5/ADC.c **** *
1017:Generated_Source\PSoC5/ADC.c **** * Return:
1018:Generated_Source\PSoC5/ADC.c **** *  float32: Result in Volts
1019:Generated_Source\PSoC5/ADC.c **** *
1020:Generated_Source\PSoC5/ADC.c **** * Global variables:
1021:Generated_Source\PSoC5/ADC.c **** *  ADC_CountsPerVolt:  used to convert to Volts.
1022:Generated_Source\PSoC5/ADC.c **** *  ADC_Offset:  Used as the offset while converting ADC counts
1023:Generated_Source\PSoC5/ADC.c **** *   to Volts.
1024:Generated_Source\PSoC5/ADC.c **** *
1025:Generated_Source\PSoC5/ADC.c **** *******************************************************************************/
1026:Generated_Source\PSoC5/ADC.c **** float32 ADC_CountsTo_Volts(int32 adcCounts) 
1027:Generated_Source\PSoC5/ADC.c **** {
1028:Generated_Source\PSoC5/ADC.c **** 
1029:Generated_Source\PSoC5/ADC.c ****     float32 Volts;
1030:Generated_Source\PSoC5/ADC.c **** 
1031:Generated_Source\PSoC5/ADC.c ****     /* Convert adcCounts to the right align if left option selected */
1032:Generated_Source\PSoC5/ADC.c ****     #if(ADC_CFG1_DEC_DIV != 0)
1033:Generated_Source\PSoC5/ADC.c ****         if(ADC_Config == ADC_CFG1)
1034:Generated_Source\PSoC5/ADC.c ****         {
1035:Generated_Source\PSoC5/ADC.c ****             adcCounts /= ADC_CFG1_DEC_DIV;
1036:Generated_Source\PSoC5/ADC.c ****         }
1037:Generated_Source\PSoC5/ADC.c ****     #endif /* ADC_CFG1_DEC_DIV */
1038:Generated_Source\PSoC5/ADC.c ****     #if((ADC_CFG2_DEC_DIV != 0) && (ADC_DEFAULT_NUM_CONFIGS > 1))
1039:Generated_Source\PSoC5/ADC.c ****         if(ADC_Config == ADC_CFG2)
1040:Generated_Source\PSoC5/ADC.c ****         {
1041:Generated_Source\PSoC5/ADC.c ****             adcCounts /= ADC_CFG2_DEC_DIV;
1042:Generated_Source\PSoC5/ADC.c ****         }
1043:Generated_Source\PSoC5/ADC.c ****     #endif /* ADC_CFG2_DEC_DIV */
1044:Generated_Source\PSoC5/ADC.c ****     #if((ADC_CFG3_DEC_DIV != 0) && (ADC_DEFAULT_NUM_CONFIGS > 2))
1045:Generated_Source\PSoC5/ADC.c ****         if(ADC_Config == ADC_CFG3)
1046:Generated_Source\PSoC5/ADC.c ****         {
1047:Generated_Source\PSoC5/ADC.c ****             adcCounts /= ADC_CFG3_DEC_DIV;
1048:Generated_Source\PSoC5/ADC.c ****         }
1049:Generated_Source\PSoC5/ADC.c ****     #endif /* ADC_CFG2_DEC_DIV */
1050:Generated_Source\PSoC5/ADC.c ****     #if((ADC_CFG4_DEC_DIV != 0) && (ADC_DEFAULT_NUM_CONFIGS > 3))
1051:Generated_Source\PSoC5/ADC.c ****         if(ADC_Config == ADC_CFG4)
1052:Generated_Source\PSoC5/ADC.c ****         {
1053:Generated_Source\PSoC5/ADC.c ****             adcCounts /= ADC_CFG4_DEC_DIV;
1054:Generated_Source\PSoC5/ADC.c ****         }
1055:Generated_Source\PSoC5/ADC.c ****     #endif /* ADC_CFG2_DEC_DIV */
1056:Generated_Source\PSoC5/ADC.c **** 
1057:Generated_Source\PSoC5/ADC.c ****     /* Subtract ADC offset */
ARM GAS  C:\Users\User\AppData\Local\Temp\ccDgUeH4.s 			page 20


1058:Generated_Source\PSoC5/ADC.c ****     adcCounts -= ADC_Offset;
1059:Generated_Source\PSoC5/ADC.c **** 
1060:Generated_Source\PSoC5/ADC.c ****     Volts = (float32)adcCounts / (float32)ADC_CountsPerVolt;
1061:Generated_Source\PSoC5/ADC.c **** 
1062:Generated_Source\PSoC5/ADC.c ****     return( Volts );
1063:Generated_Source\PSoC5/ADC.c **** }
1064:Generated_Source\PSoC5/ADC.c **** 
1065:Generated_Source\PSoC5/ADC.c **** 
1066:Generated_Source\PSoC5/ADC.c **** /*******************************************************************************
1067:Generated_Source\PSoC5/ADC.c **** * Function Name: ADC_CountsTo_uVolts
1068:Generated_Source\PSoC5/ADC.c **** ********************************************************************************
1069:Generated_Source\PSoC5/ADC.c **** *
1070:Generated_Source\PSoC5/ADC.c **** * Summary:
1071:Generated_Source\PSoC5/ADC.c **** *  Converts the ADC output to uVolts as a 32-bit integer. For example,
1072:Generated_Source\PSoC5/ADC.c **** *  if the ADC measured -0.02345 Volts, the return value would be -23450 uVolts.
1073:Generated_Source\PSoC5/ADC.c **** *
1074:Generated_Source\PSoC5/ADC.c **** * Parameters:
1075:Generated_Source\PSoC5/ADC.c **** *  int32 adcCounts: Result from the ADC conversion.
1076:Generated_Source\PSoC5/ADC.c **** *
1077:Generated_Source\PSoC5/ADC.c **** * Return:
1078:Generated_Source\PSoC5/ADC.c **** *  int32:  Result in uVolts
1079:Generated_Source\PSoC5/ADC.c **** *
1080:Generated_Source\PSoC5/ADC.c **** * Global variables:
1081:Generated_Source\PSoC5/ADC.c **** *  ADC_CountsPerVolt:  used to convert ADC counts to mVolts.
1082:Generated_Source\PSoC5/ADC.c **** *  ADC_Offset:  Used as the offset while converting ADC counts
1083:Generated_Source\PSoC5/ADC.c **** *   to mVolts.
1084:Generated_Source\PSoC5/ADC.c **** *
1085:Generated_Source\PSoC5/ADC.c **** * Theory:
1086:Generated_Source\PSoC5/ADC.c **** *  Care must be taken to not exceed the maximum value for a 31 bit signed
1087:Generated_Source\PSoC5/ADC.c **** *  number in the conversion to uVolts and at the same time not lose resolution.
1088:Generated_Source\PSoC5/ADC.c **** *
1089:Generated_Source\PSoC5/ADC.c **** *  uVolts = ((A * adcCounts) / ((int32)ADC_CountsPerVolt / B));
1090:Generated_Source\PSoC5/ADC.c **** *
1091:Generated_Source\PSoC5/ADC.c **** *******************************************************************************/
1092:Generated_Source\PSoC5/ADC.c **** int32 ADC_CountsTo_uVolts(int32 adcCounts) 
1093:Generated_Source\PSoC5/ADC.c **** {
1094:Generated_Source\PSoC5/ADC.c **** 
1095:Generated_Source\PSoC5/ADC.c ****     int32 uVolts;
1096:Generated_Source\PSoC5/ADC.c ****     int32 coefA;
1097:Generated_Source\PSoC5/ADC.c ****     int32 coefB;
1098:Generated_Source\PSoC5/ADC.c ****     uint8 resolution;
1099:Generated_Source\PSoC5/ADC.c **** 
1100:Generated_Source\PSoC5/ADC.c ****     /* Set the resolution based on the configuration */
1101:Generated_Source\PSoC5/ADC.c ****     /* Convert adcCounts to the right align if left option selected */
1102:Generated_Source\PSoC5/ADC.c ****     if (ADC_Config == ADC_CFG1)
1103:Generated_Source\PSoC5/ADC.c ****     {
1104:Generated_Source\PSoC5/ADC.c ****         resolution = ADC_CFG1_RESOLUTION;
1105:Generated_Source\PSoC5/ADC.c ****         #if(ADC_CFG1_DEC_DIV != 0)
1106:Generated_Source\PSoC5/ADC.c ****             adcCounts /= ADC_CFG1_DEC_DIV;
1107:Generated_Source\PSoC5/ADC.c ****         #endif /* ADC_CFG1_DEC_DIV */
1108:Generated_Source\PSoC5/ADC.c ****     }
1109:Generated_Source\PSoC5/ADC.c ****     else if (ADC_Config == ADC_CFG2)
1110:Generated_Source\PSoC5/ADC.c ****     {
1111:Generated_Source\PSoC5/ADC.c ****         resolution = ADC_CFG2_RESOLUTION;
1112:Generated_Source\PSoC5/ADC.c ****         #if(ADC_CFG2_DEC_DIV != 0)
1113:Generated_Source\PSoC5/ADC.c ****             adcCounts /= ADC_CFG2_DEC_DIV;
1114:Generated_Source\PSoC5/ADC.c ****         #endif /* ADC_CFG2_DEC_DIV */
ARM GAS  C:\Users\User\AppData\Local\Temp\ccDgUeH4.s 			page 21


1115:Generated_Source\PSoC5/ADC.c ****     }
1116:Generated_Source\PSoC5/ADC.c ****     else if (ADC_Config == ADC_CFG3)
1117:Generated_Source\PSoC5/ADC.c ****     {
1118:Generated_Source\PSoC5/ADC.c ****         resolution = ADC_CFG3_RESOLUTION;
1119:Generated_Source\PSoC5/ADC.c ****         #if(ADC_CFG3_DEC_DIV != 0)
1120:Generated_Source\PSoC5/ADC.c ****             adcCounts /= ADC_CFG3_DEC_DIV;
1121:Generated_Source\PSoC5/ADC.c ****         #endif /* ADC_CFG3_DEC_DIV */
1122:Generated_Source\PSoC5/ADC.c ****     }
1123:Generated_Source\PSoC5/ADC.c ****     else
1124:Generated_Source\PSoC5/ADC.c ****     {
1125:Generated_Source\PSoC5/ADC.c ****         resolution = ADC_CFG4_RESOLUTION;
1126:Generated_Source\PSoC5/ADC.c ****         #if(ADC_CFG4_DEC_DIV != 0)
1127:Generated_Source\PSoC5/ADC.c ****             adcCounts /= ADC_CFG4_DEC_DIV;
1128:Generated_Source\PSoC5/ADC.c ****         #endif /* ADC_CFG4_DEC_DIV */
1129:Generated_Source\PSoC5/ADC.c ****     }
1130:Generated_Source\PSoC5/ADC.c **** 
1131:Generated_Source\PSoC5/ADC.c ****     switch (resolution)
1132:Generated_Source\PSoC5/ADC.c ****     {
1133:Generated_Source\PSoC5/ADC.c ****         #if( (ADC_CFG1_RESOLUTION == ADC__BITS_12) || \
1134:Generated_Source\PSoC5/ADC.c ****              (ADC_CFG2_RESOLUTION == ADC__BITS_12) || \
1135:Generated_Source\PSoC5/ADC.c ****              (ADC_CFG3_RESOLUTION == ADC__BITS_12) || \
1136:Generated_Source\PSoC5/ADC.c ****              (ADC_CFG4_RESOLUTION == ADC__BITS_12) )
1137:Generated_Source\PSoC5/ADC.c ****             case (uint8)ADC__BITS_12:
1138:Generated_Source\PSoC5/ADC.c ****                 coefA = ADC_1UV_COUNTS / ADC_DIVISOR_2;
1139:Generated_Source\PSoC5/ADC.c ****                 coefB = ADC_DIVISOR_2;
1140:Generated_Source\PSoC5/ADC.c ****                 break;
1141:Generated_Source\PSoC5/ADC.c ****         #endif /* ADC__BITS_12 */    
1142:Generated_Source\PSoC5/ADC.c ****         #if( (ADC_CFG1_RESOLUTION == ADC__BITS_13) || \
1143:Generated_Source\PSoC5/ADC.c ****              (ADC_CFG2_RESOLUTION == ADC__BITS_13) || \
1144:Generated_Source\PSoC5/ADC.c ****              (ADC_CFG3_RESOLUTION == ADC__BITS_13) || \
1145:Generated_Source\PSoC5/ADC.c ****              (ADC_CFG4_RESOLUTION == ADC__BITS_13) )
1146:Generated_Source\PSoC5/ADC.c ****             case (uint8)ADC__BITS_13:
1147:Generated_Source\PSoC5/ADC.c ****                 coefA = ADC_1UV_COUNTS / ADC_DIVISOR_4;
1148:Generated_Source\PSoC5/ADC.c ****                 coefB = ADC_DIVISOR_4;
1149:Generated_Source\PSoC5/ADC.c ****                 break;
1150:Generated_Source\PSoC5/ADC.c ****         #endif /* ADC__BITS_13 */    
1151:Generated_Source\PSoC5/ADC.c ****         #if( (ADC_CFG1_RESOLUTION == ADC__BITS_14) || \
1152:Generated_Source\PSoC5/ADC.c ****              (ADC_CFG2_RESOLUTION == ADC__BITS_14) || \
1153:Generated_Source\PSoC5/ADC.c ****              (ADC_CFG3_RESOLUTION == ADC__BITS_14) || \
1154:Generated_Source\PSoC5/ADC.c ****              (ADC_CFG4_RESOLUTION == ADC__BITS_14) )
1155:Generated_Source\PSoC5/ADC.c ****             case (uint8)ADC__BITS_14:
1156:Generated_Source\PSoC5/ADC.c ****                 coefA = ADC_1UV_COUNTS / ADC_DIVISOR_8;
1157:Generated_Source\PSoC5/ADC.c ****                 coefB = ADC_DIVISOR_8;
1158:Generated_Source\PSoC5/ADC.c ****                 break;
1159:Generated_Source\PSoC5/ADC.c ****         #endif /* ADC__BITS_14 */    
1160:Generated_Source\PSoC5/ADC.c ****         #if( (ADC_CFG1_RESOLUTION == ADC__BITS_15) || \
1161:Generated_Source\PSoC5/ADC.c ****              (ADC_CFG2_RESOLUTION == ADC__BITS_15) || \
1162:Generated_Source\PSoC5/ADC.c ****              (ADC_CFG3_RESOLUTION == ADC__BITS_15) || \
1163:Generated_Source\PSoC5/ADC.c ****              (ADC_CFG4_RESOLUTION == ADC__BITS_15) )
1164:Generated_Source\PSoC5/ADC.c ****             case (uint8)ADC__BITS_15:
1165:Generated_Source\PSoC5/ADC.c ****                 coefA = ADC_1UV_COUNTS / ADC_DIVISOR_16;
1166:Generated_Source\PSoC5/ADC.c ****                 coefB = ADC_DIVISOR_16;
1167:Generated_Source\PSoC5/ADC.c ****                 break;
1168:Generated_Source\PSoC5/ADC.c ****         #endif /* ADC__BITS_15 */    
1169:Generated_Source\PSoC5/ADC.c ****         #if( (ADC_CFG1_RESOLUTION == ADC__BITS_16) || \
1170:Generated_Source\PSoC5/ADC.c ****              (ADC_CFG2_RESOLUTION == ADC__BITS_16) || \
1171:Generated_Source\PSoC5/ADC.c ****              (ADC_CFG3_RESOLUTION == ADC__BITS_16) || \
ARM GAS  C:\Users\User\AppData\Local\Temp\ccDgUeH4.s 			page 22


1172:Generated_Source\PSoC5/ADC.c ****              (ADC_CFG4_RESOLUTION == ADC__BITS_16) )
1173:Generated_Source\PSoC5/ADC.c ****             case (uint8)ADC__BITS_16:
1174:Generated_Source\PSoC5/ADC.c ****                 coefA = ADC_1UV_COUNTS / ADC_DIVISOR_32;
1175:Generated_Source\PSoC5/ADC.c ****                 coefB = ADC_DIVISOR_32;
1176:Generated_Source\PSoC5/ADC.c ****                 break;
1177:Generated_Source\PSoC5/ADC.c ****         #endif /* ADC__BITS_16 */    
1178:Generated_Source\PSoC5/ADC.c ****         #if( (ADC_CFG1_RESOLUTION == ADC__BITS_17) || \
1179:Generated_Source\PSoC5/ADC.c ****              (ADC_CFG2_RESOLUTION == ADC__BITS_17) || \
1180:Generated_Source\PSoC5/ADC.c ****              (ADC_CFG3_RESOLUTION == ADC__BITS_17) || \
1181:Generated_Source\PSoC5/ADC.c ****              (ADC_CFG4_RESOLUTION == ADC__BITS_17) )
1182:Generated_Source\PSoC5/ADC.c ****             case (uint8)ADC__BITS_17:
1183:Generated_Source\PSoC5/ADC.c ****                 coefA = ADC_1UV_COUNTS / ADC_DIVISOR_64;
1184:Generated_Source\PSoC5/ADC.c ****                 coefB = ADC_DIVISOR_64;
1185:Generated_Source\PSoC5/ADC.c ****                 break;
1186:Generated_Source\PSoC5/ADC.c ****         #endif /* ADC__BITS_17 */    
1187:Generated_Source\PSoC5/ADC.c ****         #if( (ADC_CFG1_RESOLUTION == ADC__BITS_18) || \
1188:Generated_Source\PSoC5/ADC.c ****              (ADC_CFG2_RESOLUTION == ADC__BITS_18) || \
1189:Generated_Source\PSoC5/ADC.c ****              (ADC_CFG3_RESOLUTION == ADC__BITS_18) || \
1190:Generated_Source\PSoC5/ADC.c ****              (ADC_CFG4_RESOLUTION == ADC__BITS_18) )
1191:Generated_Source\PSoC5/ADC.c ****             case (uint8)ADC__BITS_18:
1192:Generated_Source\PSoC5/ADC.c ****                 coefA = ADC_1UV_COUNTS / ADC_DIVISOR_125;
1193:Generated_Source\PSoC5/ADC.c ****                 coefB = ADC_DIVISOR_125;
1194:Generated_Source\PSoC5/ADC.c ****                 break;
1195:Generated_Source\PSoC5/ADC.c ****         #endif /* ADC__BITS_18 */    
1196:Generated_Source\PSoC5/ADC.c ****         #if( (ADC_CFG1_RESOLUTION == ADC__BITS_19) || \
1197:Generated_Source\PSoC5/ADC.c ****              (ADC_CFG2_RESOLUTION == ADC__BITS_19) || \
1198:Generated_Source\PSoC5/ADC.c ****              (ADC_CFG3_RESOLUTION == ADC__BITS_19) || \
1199:Generated_Source\PSoC5/ADC.c ****              (ADC_CFG4_RESOLUTION == ADC__BITS_19) )
1200:Generated_Source\PSoC5/ADC.c ****             case (uint8)ADC__BITS_19:
1201:Generated_Source\PSoC5/ADC.c ****                 coefA = ADC_1UV_COUNTS / ADC_DIVISOR_250;
1202:Generated_Source\PSoC5/ADC.c ****                 coefB = ADC_DIVISOR_250;
1203:Generated_Source\PSoC5/ADC.c ****                 break;
1204:Generated_Source\PSoC5/ADC.c ****         #endif /* ADC__BITS_19 */    
1205:Generated_Source\PSoC5/ADC.c ****         #if( (ADC_CFG1_RESOLUTION == ADC__BITS_20) || \
1206:Generated_Source\PSoC5/ADC.c ****              (ADC_CFG2_RESOLUTION == ADC__BITS_20) || \
1207:Generated_Source\PSoC5/ADC.c ****              (ADC_CFG3_RESOLUTION == ADC__BITS_20) || \
1208:Generated_Source\PSoC5/ADC.c ****              (ADC_CFG4_RESOLUTION == ADC__BITS_20) )
1209:Generated_Source\PSoC5/ADC.c ****             case (uint8)ADC__BITS_20:
1210:Generated_Source\PSoC5/ADC.c ****                 coefA = ADC_1UV_COUNTS / ADC_DIVISOR_500;
1211:Generated_Source\PSoC5/ADC.c ****                 coefB = ADC_DIVISOR_500;
1212:Generated_Source\PSoC5/ADC.c ****                 break;
1213:Generated_Source\PSoC5/ADC.c ****         #endif /* ADC__BITS_20 */    
1214:Generated_Source\PSoC5/ADC.c ****         default:    /* resolution < 12 */
1215:Generated_Source\PSoC5/ADC.c ****             /* 11 bits ADC + 2^20(1048576) = 31 bits */
1216:Generated_Source\PSoC5/ADC.c ****             coefA = ADC_1UV_COUNTS;
1217:Generated_Source\PSoC5/ADC.c ****             coefB = ADC_DIVISOR_1;
1218:Generated_Source\PSoC5/ADC.c ****             break;
1219:Generated_Source\PSoC5/ADC.c ****     }
1220:Generated_Source\PSoC5/ADC.c ****     coefB = ADC_CountsPerVolt / coefB;
1221:Generated_Source\PSoC5/ADC.c ****     uVolts = ((coefA * adcCounts) / coefB) - ((coefA * ADC_Offset) / coefB);
1222:Generated_Source\PSoC5/ADC.c **** 
1223:Generated_Source\PSoC5/ADC.c ****     return( uVolts );
1224:Generated_Source\PSoC5/ADC.c **** }
1225:Generated_Source\PSoC5/ADC.c **** 
1226:Generated_Source\PSoC5/ADC.c **** 
1227:Generated_Source\PSoC5/ADC.c **** /*******************************************************************************
1228:Generated_Source\PSoC5/ADC.c **** * Function Name: ADC_InitConfig(uint8 config)
ARM GAS  C:\Users\User\AppData\Local\Temp\ccDgUeH4.s 			page 23


1229:Generated_Source\PSoC5/ADC.c **** ********************************************************************************
1230:Generated_Source\PSoC5/ADC.c **** *
1231:Generated_Source\PSoC5/ADC.c **** * Summary:
1232:Generated_Source\PSoC5/ADC.c **** *  Initializes all registers based on customizer settings
1233:Generated_Source\PSoC5/ADC.c **** *
1234:Generated_Source\PSoC5/ADC.c **** * Parameters:
1235:Generated_Source\PSoC5/ADC.c **** *   void
1236:Generated_Source\PSoC5/ADC.c **** *
1237:Generated_Source\PSoC5/ADC.c **** * Return:
1238:Generated_Source\PSoC5/ADC.c **** *  None
1239:Generated_Source\PSoC5/ADC.c **** *
1240:Generated_Source\PSoC5/ADC.c **** * Global variables:
1241:Generated_Source\PSoC5/ADC.c **** *  ADC_CountsPerVolt:  Used to set the default counts per volt.
1242:Generated_Source\PSoC5/ADC.c **** *
1243:Generated_Source\PSoC5/ADC.c **** * Side Effects: Rewrites the coherency set by ADC_SetCoherency()
1244:Generated_Source\PSoC5/ADC.c **** *   API to the default value.
1245:Generated_Source\PSoC5/ADC.c **** *
1246:Generated_Source\PSoC5/ADC.c **** *******************************************************************************/
1247:Generated_Source\PSoC5/ADC.c **** static void ADC_InitConfig(uint8 config) 
1248:Generated_Source\PSoC5/ADC.c **** {
1249:Generated_Source\PSoC5/ADC.c ****     ADC_stopConversion = 0u;
1250:Generated_Source\PSoC5/ADC.c **** 
1251:Generated_Source\PSoC5/ADC.c ****     if (config == 1u)
1252:Generated_Source\PSoC5/ADC.c ****     {
1253:Generated_Source\PSoC5/ADC.c ****         /* Default Config */
1254:Generated_Source\PSoC5/ADC.c ****         ADC_DEC_CR_REG      = ADC_CFG1_DEC_CR;
1255:Generated_Source\PSoC5/ADC.c ****         ADC_DEC_SHIFT1_REG  = ADC_CFG1_DEC_SHIFT1;
1256:Generated_Source\PSoC5/ADC.c ****         ADC_DEC_SHIFT2_REG  = ADC_CFG1_DEC_SHIFT2;
1257:Generated_Source\PSoC5/ADC.c ****         ADC_DEC_DR2_REG     = ADC_CFG1_DEC_DR2;
1258:Generated_Source\PSoC5/ADC.c ****         ADC_DEC_DR2H_REG    = ADC_CFG1_DEC_DR2H;
1259:Generated_Source\PSoC5/ADC.c ****         ADC_DEC_DR1_REG     = ADC_CFG1_DEC_DR1;
1260:Generated_Source\PSoC5/ADC.c ****         ADC_DEC_OCOR_REG    = ADC_CFG1_DEC_OCOR;
1261:Generated_Source\PSoC5/ADC.c ****         ADC_DEC_OCORM_REG   = ADC_CFG1_DEC_OCORM;
1262:Generated_Source\PSoC5/ADC.c ****         ADC_DEC_OCORH_REG   = ADC_CFG1_DEC_OCORH;
1263:Generated_Source\PSoC5/ADC.c ****         ADC_DEC_COHER_REG   = ADC_CFG1_DEC_COHER;
1264:Generated_Source\PSoC5/ADC.c **** 
1265:Generated_Source\PSoC5/ADC.c ****         ADC_DSM_CR4_REG     = ADC_CFG1_DSM_CR4;
1266:Generated_Source\PSoC5/ADC.c ****         ADC_DSM_CR5_REG     = ADC_CFG1_DSM_CR5;
1267:Generated_Source\PSoC5/ADC.c ****         ADC_DSM_CR6_REG     = ADC_CFG1_DSM_CR6;
1268:Generated_Source\PSoC5/ADC.c ****         ADC_DSM_CR7_REG     = ADC_CFG1_DSM_CR7;
1269:Generated_Source\PSoC5/ADC.c ****         ADC_DSM_CR10_REG    = ADC_CFG1_DSM_CR10;
1270:Generated_Source\PSoC5/ADC.c ****         ADC_DSM_CR11_REG    = ADC_CFG1_DSM_CR11;
1271:Generated_Source\PSoC5/ADC.c ****         ADC_DSM_CR12_REG    = ADC_CFG1_DSM_CR12;
1272:Generated_Source\PSoC5/ADC.c ****         ADC_DSM_CR14_REG    = ADC_CFG1_DSM_CR14;
1273:Generated_Source\PSoC5/ADC.c ****         ADC_DSM_CR15_REG    = ADC_CFG1_DSM_CR15;
1274:Generated_Source\PSoC5/ADC.c ****         ADC_DSM_CR16_REG    = ADC_CFG1_DSM_CR16;
1275:Generated_Source\PSoC5/ADC.c ****         ADC_DSM_CR17_REG    = ADC_CFG1_DSM_CR17;
1276:Generated_Source\PSoC5/ADC.c ****         /* Set DSM_REF0_REG by disabling and enabling the PRESS circuit */
1277:Generated_Source\PSoC5/ADC.c ****         ADC_SetDSMRef0Reg(ADC_CFG1_DSM_REF0);
1278:Generated_Source\PSoC5/ADC.c ****         ADC_DSM_REF2_REG    = ADC_CFG1_DSM_REF2;
1279:Generated_Source\PSoC5/ADC.c ****         ADC_DSM_REF3_REG    = ADC_CFG1_DSM_REF3;
1280:Generated_Source\PSoC5/ADC.c **** 
1281:Generated_Source\PSoC5/ADC.c ****         ADC_DSM_BUF0_REG    = ADC_CFG1_DSM_BUF0;
1282:Generated_Source\PSoC5/ADC.c ****         ADC_DSM_BUF1_REG    = ADC_CFG1_DSM_BUF1;
1283:Generated_Source\PSoC5/ADC.c ****         ADC_DSM_BUF2_REG    = ADC_CFG1_DSM_BUF2;
1284:Generated_Source\PSoC5/ADC.c ****         ADC_DSM_BUF3_REG    = ADC_CFG1_DSM_BUF3;
1285:Generated_Source\PSoC5/ADC.c **** 
ARM GAS  C:\Users\User\AppData\Local\Temp\ccDgUeH4.s 			page 24


1286:Generated_Source\PSoC5/ADC.c ****         /* To select either Vssa or Vref to -ve input of DSM depending on
1287:Generated_Source\PSoC5/ADC.c ****         *  the input  range selected.
1288:Generated_Source\PSoC5/ADC.c ****         */
1289:Generated_Source\PSoC5/ADC.c ****         #if(ADC_DEFAULT_INPUT_MODE)
1290:Generated_Source\PSoC5/ADC.c ****             #if (ADC_CFG1_INPUT_RANGE == ADC_IR_VSSA_TO_2VREF)
1291:Generated_Source\PSoC5/ADC.c ****                 ADC_AMux_Select(1u);
1292:Generated_Source\PSoC5/ADC.c ****             #else
1293:Generated_Source\PSoC5/ADC.c ****                 ADC_AMux_Select(0u);
1294:Generated_Source\PSoC5/ADC.c ****             #endif /* ADC_IR_VSSA_TO_2VREF) */
1295:Generated_Source\PSoC5/ADC.c ****         #endif /* ADC_DEFAULT_INPUT_MODE */
1296:Generated_Source\PSoC5/ADC.c **** 
1297:Generated_Source\PSoC5/ADC.c ****         /* Set the Conversion stop if resolution is above 16 bit and conversion
1298:Generated_Source\PSoC5/ADC.c ****         *   mode is Single sample
1299:Generated_Source\PSoC5/ADC.c ****         */
1300:Generated_Source\PSoC5/ADC.c ****         #if(ADC_CFG1_RESOLUTION > 16 && \
1301:Generated_Source\PSoC5/ADC.c ****             ADC_CFG1_CONV_MODE == ADC_MODE_SINGLE_SAMPLE)
1302:Generated_Source\PSoC5/ADC.c ****             ADC_stopConversion = 1u;
1303:Generated_Source\PSoC5/ADC.c ****         #endif /* Single sample with resolution above 16 bits. */
1304:Generated_Source\PSoC5/ADC.c **** 
1305:Generated_Source\PSoC5/ADC.c ****         ADC_CountsPerVolt = (int32)ADC_CFG1_COUNTS_PER_VOLT;
1306:Generated_Source\PSoC5/ADC.c **** 
1307:Generated_Source\PSoC5/ADC.c ****         ADC_Ext_CP_Clk_SetDividerRegister(ADC_CFG1_CP_CLK_DIVIDER, 1u);
1308:Generated_Source\PSoC5/ADC.c **** 
1309:Generated_Source\PSoC5/ADC.c ****         /* This is only valid if there is an internal clock */
1310:Generated_Source\PSoC5/ADC.c ****         #if(ADC_DEFAULT_INTERNAL_CLK)
1311:Generated_Source\PSoC5/ADC.c ****             ADC_theACLK_SetDividerRegister(ADC_CFG1_ADC_CLK_DIVIDER, 1u);
1312:Generated_Source\PSoC5/ADC.c ****         #endif /* ADC_DEFAULT_INTERNAL_CLK */
1313:Generated_Source\PSoC5/ADC.c **** 
1314:Generated_Source\PSoC5/ADC.c ****         #if(ADC_IRQ_REMOVE == 0u)
1315:Generated_Source\PSoC5/ADC.c ****             /* Set interrupt vector */
1316:Generated_Source\PSoC5/ADC.c ****             (void)CyIntSetVector(ADC_INTC_NUMBER, &ADC_ISR1);
1317:Generated_Source\PSoC5/ADC.c ****         #endif   /* End ADC_IRQ_REMOVE */
1318:Generated_Source\PSoC5/ADC.c ****     }
1319:Generated_Source\PSoC5/ADC.c **** 
1320:Generated_Source\PSoC5/ADC.c ****     #if(ADC_DEFAULT_NUM_CONFIGS > 1)
1321:Generated_Source\PSoC5/ADC.c ****         if(config == 2u)
1322:Generated_Source\PSoC5/ADC.c ****         {
1323:Generated_Source\PSoC5/ADC.c ****             /* Second Config */
1324:Generated_Source\PSoC5/ADC.c ****             ADC_DEC_CR_REG      = ADC_CFG2_DEC_CR;
1325:Generated_Source\PSoC5/ADC.c ****             ADC_DEC_SHIFT1_REG  = ADC_CFG2_DEC_SHIFT1;
1326:Generated_Source\PSoC5/ADC.c ****             ADC_DEC_SHIFT2_REG  = ADC_CFG2_DEC_SHIFT2;
1327:Generated_Source\PSoC5/ADC.c ****             ADC_DEC_DR2_REG     = ADC_CFG2_DEC_DR2;
1328:Generated_Source\PSoC5/ADC.c ****             ADC_DEC_DR2H_REG    = ADC_CFG2_DEC_DR2H;
1329:Generated_Source\PSoC5/ADC.c ****             ADC_DEC_DR1_REG     = ADC_CFG2_DEC_DR1;
1330:Generated_Source\PSoC5/ADC.c ****             ADC_DEC_OCOR_REG    = ADC_CFG2_DEC_OCOR;
1331:Generated_Source\PSoC5/ADC.c ****             ADC_DEC_OCORM_REG   = ADC_CFG2_DEC_OCORM;
1332:Generated_Source\PSoC5/ADC.c ****             ADC_DEC_OCORH_REG   = ADC_CFG2_DEC_OCORH;
1333:Generated_Source\PSoC5/ADC.c ****             ADC_DEC_COHER_REG   = ADC_CFG2_DEC_COHER;
1334:Generated_Source\PSoC5/ADC.c **** 
1335:Generated_Source\PSoC5/ADC.c ****             ADC_DSM_CR4_REG     = ADC_CFG2_DSM_CR4;
1336:Generated_Source\PSoC5/ADC.c ****             ADC_DSM_CR5_REG     = ADC_CFG2_DSM_CR5;
1337:Generated_Source\PSoC5/ADC.c ****             ADC_DSM_CR6_REG     = ADC_CFG2_DSM_CR6;
1338:Generated_Source\PSoC5/ADC.c ****             ADC_DSM_CR7_REG     = ADC_CFG2_DSM_CR7;
1339:Generated_Source\PSoC5/ADC.c ****             ADC_DSM_CR10_REG    = ADC_CFG2_DSM_CR10;
1340:Generated_Source\PSoC5/ADC.c ****             ADC_DSM_CR11_REG    = ADC_CFG2_DSM_CR11;
1341:Generated_Source\PSoC5/ADC.c ****             ADC_DSM_CR12_REG    = ADC_CFG2_DSM_CR12;
1342:Generated_Source\PSoC5/ADC.c ****             ADC_DSM_CR14_REG    = ADC_CFG2_DSM_CR14;
ARM GAS  C:\Users\User\AppData\Local\Temp\ccDgUeH4.s 			page 25


1343:Generated_Source\PSoC5/ADC.c ****             ADC_DSM_CR15_REG    = ADC_CFG2_DSM_CR15;
1344:Generated_Source\PSoC5/ADC.c ****             ADC_DSM_CR16_REG    = ADC_CFG2_DSM_CR16;
1345:Generated_Source\PSoC5/ADC.c ****             ADC_DSM_CR17_REG    = ADC_CFG2_DSM_CR17;
1346:Generated_Source\PSoC5/ADC.c ****             /* Set DSM_REF0_REG by disabling and enabling the PRESS cirucit */
1347:Generated_Source\PSoC5/ADC.c ****             ADC_SetDSMRef0Reg(ADC_CFG2_DSM_REF0);
1348:Generated_Source\PSoC5/ADC.c ****             ADC_DSM_REF2_REG    = ADC_CFG2_DSM_REF2;
1349:Generated_Source\PSoC5/ADC.c ****             ADC_DSM_REF3_REG    = ADC_CFG2_DSM_REF3;
1350:Generated_Source\PSoC5/ADC.c **** 
1351:Generated_Source\PSoC5/ADC.c ****             ADC_DSM_BUF0_REG    = ADC_CFG2_DSM_BUF0;
1352:Generated_Source\PSoC5/ADC.c ****             ADC_DSM_BUF1_REG    = ADC_CFG2_DSM_BUF1;
1353:Generated_Source\PSoC5/ADC.c ****             ADC_DSM_BUF2_REG    = ADC_CFG2_DSM_BUF2;
1354:Generated_Source\PSoC5/ADC.c ****             ADC_DSM_BUF3_REG    = ADC_CFG2_DSM_BUF3;
1355:Generated_Source\PSoC5/ADC.c **** 
1356:Generated_Source\PSoC5/ADC.c ****             /* To select either Vssa or Vref to -ve input of DSM depending on
1357:Generated_Source\PSoC5/ADC.c ****             *  the input range selected.
1358:Generated_Source\PSoC5/ADC.c ****             */
1359:Generated_Source\PSoC5/ADC.c **** 
1360:Generated_Source\PSoC5/ADC.c ****             #if(ADC_DEFAULT_INPUT_MODE)
1361:Generated_Source\PSoC5/ADC.c ****                 #if (ADC_CFG2_INPUT_RANGE == ADC_IR_VSSA_TO_2VREF)
1362:Generated_Source\PSoC5/ADC.c ****                     ADC_AMux_Select(1u);
1363:Generated_Source\PSoC5/ADC.c ****                 #else
1364:Generated_Source\PSoC5/ADC.c ****                     ADC_AMux_Select(0u);
1365:Generated_Source\PSoC5/ADC.c ****                 #endif /* ADC_IR_VSSA_TO_2VREF) */
1366:Generated_Source\PSoC5/ADC.c ****             #endif /* ADC_DEFAULT_INPUT_MODE */
1367:Generated_Source\PSoC5/ADC.c **** 
1368:Generated_Source\PSoC5/ADC.c ****             /* Set the Conversion stop if resolution is above 16 bit and
1369:Generated_Source\PSoC5/ADC.c ****             *   conversion mode is Single sample
1370:Generated_Source\PSoC5/ADC.c ****             */
1371:Generated_Source\PSoC5/ADC.c ****             #if(ADC_CFG2_RESOLUTION > 16 && \
1372:Generated_Source\PSoC5/ADC.c ****                 ADC_CFG2_CONV_MODE == ADC_MODE_SINGLE_SAMPLE)
1373:Generated_Source\PSoC5/ADC.c ****                 ADC_stopConversion = 1u;
1374:Generated_Source\PSoC5/ADC.c ****             #endif /* Single sample with resolution above 16 bits. */
1375:Generated_Source\PSoC5/ADC.c **** 
1376:Generated_Source\PSoC5/ADC.c ****             ADC_CountsPerVolt = (int32)ADC_CFG2_COUNTS_PER_VOLT;
1377:Generated_Source\PSoC5/ADC.c **** 
1378:Generated_Source\PSoC5/ADC.c ****             ADC_Ext_CP_Clk_SetDividerRegister(ADC_CFG2_CP_CLK_DIVIDER, 1u);
1379:Generated_Source\PSoC5/ADC.c **** 
1380:Generated_Source\PSoC5/ADC.c ****             /* This is only valid if there is an internal clock */
1381:Generated_Source\PSoC5/ADC.c ****             #if(ADC_DEFAULT_INTERNAL_CLK)
1382:Generated_Source\PSoC5/ADC.c ****                 ADC_theACLK_SetDividerRegister(ADC_CFG2_ADC_CLK_DIVIDER, 1u);
1383:Generated_Source\PSoC5/ADC.c ****             #endif /* ADC_DEFAULT_INTERNAL_CLK */
1384:Generated_Source\PSoC5/ADC.c **** 
1385:Generated_Source\PSoC5/ADC.c ****             #if(ADC_IRQ_REMOVE == 0u)
1386:Generated_Source\PSoC5/ADC.c ****                 /* Set interrupt vector */
1387:Generated_Source\PSoC5/ADC.c ****                 (void)CyIntSetVector(ADC_INTC_NUMBER, &ADC_ISR2);
1388:Generated_Source\PSoC5/ADC.c ****             #endif   /* End ADC_IRQ_REMOVE */
1389:Generated_Source\PSoC5/ADC.c ****         }
1390:Generated_Source\PSoC5/ADC.c ****     #endif /* ADC_DEFAULT_NUM_CONFIGS > 1 */
1391:Generated_Source\PSoC5/ADC.c **** 
1392:Generated_Source\PSoC5/ADC.c ****     #if(ADC_DEFAULT_NUM_CONFIGS > 2)
1393:Generated_Source\PSoC5/ADC.c ****         if(config == 3u)
1394:Generated_Source\PSoC5/ADC.c ****         {
1395:Generated_Source\PSoC5/ADC.c ****             /* Third Config */
1396:Generated_Source\PSoC5/ADC.c ****             ADC_DEC_CR_REG      = ADC_CFG3_DEC_CR;
1397:Generated_Source\PSoC5/ADC.c ****             ADC_DEC_SHIFT1_REG  = ADC_CFG3_DEC_SHIFT1;
1398:Generated_Source\PSoC5/ADC.c ****             ADC_DEC_SHIFT2_REG  = ADC_CFG3_DEC_SHIFT2;
1399:Generated_Source\PSoC5/ADC.c ****             ADC_DEC_DR2_REG     = ADC_CFG3_DEC_DR2;
ARM GAS  C:\Users\User\AppData\Local\Temp\ccDgUeH4.s 			page 26


1400:Generated_Source\PSoC5/ADC.c ****             ADC_DEC_DR2H_REG    = ADC_CFG3_DEC_DR2H;
1401:Generated_Source\PSoC5/ADC.c ****             ADC_DEC_DR1_REG     = ADC_CFG3_DEC_DR1;
1402:Generated_Source\PSoC5/ADC.c ****             ADC_DEC_OCOR_REG    = ADC_CFG3_DEC_OCOR;
1403:Generated_Source\PSoC5/ADC.c ****             ADC_DEC_OCORM_REG   = ADC_CFG3_DEC_OCORM;
1404:Generated_Source\PSoC5/ADC.c ****             ADC_DEC_OCORH_REG   = ADC_CFG3_DEC_OCORH;
1405:Generated_Source\PSoC5/ADC.c ****             ADC_DEC_COHER_REG   = ADC_CFG3_DEC_COHER;
1406:Generated_Source\PSoC5/ADC.c **** 
1407:Generated_Source\PSoC5/ADC.c ****             ADC_DSM_CR4_REG     = ADC_CFG3_DSM_CR4;
1408:Generated_Source\PSoC5/ADC.c ****             ADC_DSM_CR5_REG     = ADC_CFG3_DSM_CR5;
1409:Generated_Source\PSoC5/ADC.c ****             ADC_DSM_CR6_REG     = ADC_CFG3_DSM_CR6;
1410:Generated_Source\PSoC5/ADC.c ****             ADC_DSM_CR7_REG     = ADC_CFG3_DSM_CR7;
1411:Generated_Source\PSoC5/ADC.c ****             ADC_DSM_CR10_REG    = ADC_CFG3_DSM_CR10;
1412:Generated_Source\PSoC5/ADC.c ****             ADC_DSM_CR11_REG    = ADC_CFG3_DSM_CR11;
1413:Generated_Source\PSoC5/ADC.c ****             ADC_DSM_CR12_REG    = ADC_CFG3_DSM_CR12;
1414:Generated_Source\PSoC5/ADC.c ****             ADC_DSM_CR14_REG    = ADC_CFG3_DSM_CR14;
1415:Generated_Source\PSoC5/ADC.c ****             ADC_DSM_CR15_REG    = ADC_CFG3_DSM_CR15;
1416:Generated_Source\PSoC5/ADC.c ****             ADC_DSM_CR16_REG    = ADC_CFG3_DSM_CR16;
1417:Generated_Source\PSoC5/ADC.c ****             ADC_DSM_CR17_REG    = ADC_CFG3_DSM_CR17;
1418:Generated_Source\PSoC5/ADC.c ****             /* Set DSM_REF0_REG by disabling and enabling the PRESS circuit */
1419:Generated_Source\PSoC5/ADC.c ****             ADC_SetDSMRef0Reg(ADC_CFG3_DSM_REF0);
1420:Generated_Source\PSoC5/ADC.c ****             ADC_DSM_REF2_REG    = ADC_CFG3_DSM_REF2;
1421:Generated_Source\PSoC5/ADC.c ****             ADC_DSM_REF3_REG    = ADC_CFG3_DSM_REF3;
1422:Generated_Source\PSoC5/ADC.c **** 
1423:Generated_Source\PSoC5/ADC.c ****             ADC_DSM_BUF0_REG    = ADC_CFG3_DSM_BUF0;
1424:Generated_Source\PSoC5/ADC.c ****             ADC_DSM_BUF1_REG    = ADC_CFG3_DSM_BUF1;
1425:Generated_Source\PSoC5/ADC.c ****             ADC_DSM_BUF2_REG    = ADC_CFG3_DSM_BUF2;
1426:Generated_Source\PSoC5/ADC.c ****             ADC_DSM_BUF3_REG    = ADC_CFG3_DSM_BUF3;
1427:Generated_Source\PSoC5/ADC.c **** 
1428:Generated_Source\PSoC5/ADC.c ****             /* To select either Vssa or Vref to -ve input of DSM depending on
1429:Generated_Source\PSoC5/ADC.c ****             *  the input range selected.
1430:Generated_Source\PSoC5/ADC.c ****             */
1431:Generated_Source\PSoC5/ADC.c ****             #if(ADC_DEFAULT_INPUT_MODE)
1432:Generated_Source\PSoC5/ADC.c ****                 #if (ADC_CFG3_INPUT_RANGE == ADC_IR_VSSA_TO_2VREF)
1433:Generated_Source\PSoC5/ADC.c ****                     ADC_AMux_Select(1u);
1434:Generated_Source\PSoC5/ADC.c ****                 #else
1435:Generated_Source\PSoC5/ADC.c ****                     ADC_AMux_Select(0u);
1436:Generated_Source\PSoC5/ADC.c ****                 #endif /* ADC_IR_VSSA_TO_2VREF) */
1437:Generated_Source\PSoC5/ADC.c ****             #endif /* ADC_DEFAULT_INPUT_MODE */
1438:Generated_Source\PSoC5/ADC.c **** 
1439:Generated_Source\PSoC5/ADC.c ****             /* Set the Conversion stop if resolution is above 16 bit and
1440:Generated_Source\PSoC5/ADC.c ****                conversion  mode is Single sample */
1441:Generated_Source\PSoC5/ADC.c ****             #if(ADC_CFG3_RESOLUTION > 16 && \
1442:Generated_Source\PSoC5/ADC.c ****                 ADC_CFG3_CONV_MODE == ADC_MODE_SINGLE_SAMPLE)
1443:Generated_Source\PSoC5/ADC.c ****                 ADC_stopConversion = 1u;
1444:Generated_Source\PSoC5/ADC.c ****             #endif /* Single sample with resolution above 16 bits */
1445:Generated_Source\PSoC5/ADC.c **** 
1446:Generated_Source\PSoC5/ADC.c ****             ADC_CountsPerVolt = (int32)ADC_CFG3_COUNTS_PER_VOLT;
1447:Generated_Source\PSoC5/ADC.c **** 
1448:Generated_Source\PSoC5/ADC.c ****             ADC_Ext_CP_Clk_SetDividerRegister(ADC_CFG3_CP_CLK_DIVIDER, 1u);
1449:Generated_Source\PSoC5/ADC.c **** 
1450:Generated_Source\PSoC5/ADC.c ****             /* This is only valid if there is an internal clock */
1451:Generated_Source\PSoC5/ADC.c ****             #if(ADC_DEFAULT_INTERNAL_CLK)
1452:Generated_Source\PSoC5/ADC.c ****                 ADC_theACLK_SetDividerRegister(ADC_CFG3_ADC_CLK_DIVIDER, 1u);
1453:Generated_Source\PSoC5/ADC.c ****             #endif /* ADC_DEFAULT_INTERNAL_CLK */
1454:Generated_Source\PSoC5/ADC.c **** 
1455:Generated_Source\PSoC5/ADC.c ****             #if(ADC_IRQ_REMOVE == 0u)
1456:Generated_Source\PSoC5/ADC.c ****                 /* Set interrupt vector */
ARM GAS  C:\Users\User\AppData\Local\Temp\ccDgUeH4.s 			page 27


1457:Generated_Source\PSoC5/ADC.c ****                 (void)CyIntSetVector(ADC_INTC_NUMBER, &ADC_ISR3);
1458:Generated_Source\PSoC5/ADC.c ****             #endif   /* End ADC_IRQ_REMOVE */
1459:Generated_Source\PSoC5/ADC.c ****         }
1460:Generated_Source\PSoC5/ADC.c ****     #endif /* ADC_DEFAULT_NUM_CONFIGS > 2 */
1461:Generated_Source\PSoC5/ADC.c **** 
1462:Generated_Source\PSoC5/ADC.c ****     #if(ADC_DEFAULT_NUM_CONFIGS > 3)
1463:Generated_Source\PSoC5/ADC.c ****         if (config == 4u)
1464:Generated_Source\PSoC5/ADC.c ****         {
1465:Generated_Source\PSoC5/ADC.c ****             /* Fourth Config */
1466:Generated_Source\PSoC5/ADC.c ****             ADC_DEC_CR_REG      = ADC_CFG4_DEC_CR;
1467:Generated_Source\PSoC5/ADC.c ****             ADC_DEC_SHIFT1_REG  = ADC_CFG4_DEC_SHIFT1;
1468:Generated_Source\PSoC5/ADC.c ****             ADC_DEC_SHIFT2_REG  = ADC_CFG4_DEC_SHIFT2;
1469:Generated_Source\PSoC5/ADC.c ****             ADC_DEC_DR2_REG     = ADC_CFG4_DEC_DR2;
1470:Generated_Source\PSoC5/ADC.c ****             ADC_DEC_DR2H_REG    = ADC_CFG4_DEC_DR2H;
1471:Generated_Source\PSoC5/ADC.c ****             ADC_DEC_DR1_REG     = ADC_CFG4_DEC_DR1;
1472:Generated_Source\PSoC5/ADC.c ****             ADC_DEC_OCOR_REG    = ADC_CFG4_DEC_OCOR;
1473:Generated_Source\PSoC5/ADC.c ****             ADC_DEC_OCORM_REG   = ADC_CFG4_DEC_OCORM;
1474:Generated_Source\PSoC5/ADC.c ****             ADC_DEC_OCORH_REG   = ADC_CFG4_DEC_OCORH;
1475:Generated_Source\PSoC5/ADC.c ****             ADC_DEC_COHER_REG   = ADC_CFG4_DEC_COHER;
1476:Generated_Source\PSoC5/ADC.c **** 
1477:Generated_Source\PSoC5/ADC.c ****             ADC_DSM_CR4_REG     = ADC_CFG4_DSM_CR4;
1478:Generated_Source\PSoC5/ADC.c ****             ADC_DSM_CR5_REG     = ADC_CFG4_DSM_CR5;
1479:Generated_Source\PSoC5/ADC.c ****             ADC_DSM_CR6_REG     = ADC_CFG4_DSM_CR6;
1480:Generated_Source\PSoC5/ADC.c ****             ADC_DSM_CR7_REG     = ADC_CFG4_DSM_CR7;
1481:Generated_Source\PSoC5/ADC.c ****             ADC_DSM_CR10_REG    = ADC_CFG4_DSM_CR10;
1482:Generated_Source\PSoC5/ADC.c ****             ADC_DSM_CR11_REG    = ADC_CFG4_DSM_CR11;
1483:Generated_Source\PSoC5/ADC.c ****             ADC_DSM_CR12_REG    = ADC_CFG4_DSM_CR12;
1484:Generated_Source\PSoC5/ADC.c ****             ADC_DSM_CR14_REG    = ADC_CFG4_DSM_CR14;
1485:Generated_Source\PSoC5/ADC.c ****             ADC_DSM_CR15_REG    = ADC_CFG4_DSM_CR15;
1486:Generated_Source\PSoC5/ADC.c ****             ADC_DSM_CR16_REG    = ADC_CFG4_DSM_CR16;
1487:Generated_Source\PSoC5/ADC.c ****             ADC_DSM_CR17_REG    = ADC_CFG4_DSM_CR17;
1488:Generated_Source\PSoC5/ADC.c ****             /* Set DSM_REF0_REG by disabling and enabling the PRESS circuit */
1489:Generated_Source\PSoC5/ADC.c ****             ADC_SetDSMRef0Reg(ADC_CFG4_DSM_REF0);
1490:Generated_Source\PSoC5/ADC.c ****             ADC_DSM_REF2_REG    = ADC_CFG4_DSM_REF2;
1491:Generated_Source\PSoC5/ADC.c ****             ADC_DSM_REF3_REG    = ADC_CFG4_DSM_REF3;
1492:Generated_Source\PSoC5/ADC.c **** 
1493:Generated_Source\PSoC5/ADC.c ****             ADC_DSM_BUF0_REG    = ADC_CFG4_DSM_BUF0;
1494:Generated_Source\PSoC5/ADC.c ****             ADC_DSM_BUF1_REG    = ADC_CFG4_DSM_BUF1;
1495:Generated_Source\PSoC5/ADC.c ****             ADC_DSM_BUF2_REG    = ADC_CFG4_DSM_BUF2;
1496:Generated_Source\PSoC5/ADC.c ****             ADC_DSM_BUF3_REG    = ADC_CFG4_DSM_BUF3;
1497:Generated_Source\PSoC5/ADC.c **** 
1498:Generated_Source\PSoC5/ADC.c ****             /* To select either Vssa or Vref to -ve input of DSM depending on
1499:Generated_Source\PSoC5/ADC.c ****             *  the input range selected.
1500:Generated_Source\PSoC5/ADC.c ****             */
1501:Generated_Source\PSoC5/ADC.c ****             #if(ADC_DEFAULT_INPUT_MODE)
1502:Generated_Source\PSoC5/ADC.c ****                 #if (ADC_CFG4_INPUT_RANGE == ADC_IR_VSSA_TO_2VREF)
1503:Generated_Source\PSoC5/ADC.c ****                     ADC_AMux_Select(1u);
1504:Generated_Source\PSoC5/ADC.c ****                 #else
1505:Generated_Source\PSoC5/ADC.c ****                     ADC_AMux_Select(0u);
1506:Generated_Source\PSoC5/ADC.c ****                 #endif /* ADC_IR_VSSA_TO_2VREF) */
1507:Generated_Source\PSoC5/ADC.c ****             #endif /* ADC_DEFAULT_INPUT_MODE */
1508:Generated_Source\PSoC5/ADC.c **** 
1509:Generated_Source\PSoC5/ADC.c ****             /* Set the Conversion stop if resolution is above 16 bit and
1510:Generated_Source\PSoC5/ADC.c ****                conversion mode is Single sample */
1511:Generated_Source\PSoC5/ADC.c ****             #if(ADC_CFG4_RESOLUTION > 16 && \
1512:Generated_Source\PSoC5/ADC.c ****                 ADC_CFG4_CONV_MODE == ADC_MODE_SINGLE_SAMPLE)
1513:Generated_Source\PSoC5/ADC.c ****                 ADC_stopConversion = 1u;
ARM GAS  C:\Users\User\AppData\Local\Temp\ccDgUeH4.s 			page 28


1514:Generated_Source\PSoC5/ADC.c ****             #endif /* Single sample with resolution above 16 bits */
1515:Generated_Source\PSoC5/ADC.c **** 
1516:Generated_Source\PSoC5/ADC.c ****             ADC_CountsPerVolt = (int32)ADC_CFG4_COUNTS_PER_VOLT;
1517:Generated_Source\PSoC5/ADC.c **** 
1518:Generated_Source\PSoC5/ADC.c ****             ADC_Ext_CP_Clk_SetDividerRegister(ADC_CFG4_CP_CLK_DIVIDER, 1u);
1519:Generated_Source\PSoC5/ADC.c **** 
1520:Generated_Source\PSoC5/ADC.c ****             /* This is only valid if there is an internal clock */
1521:Generated_Source\PSoC5/ADC.c ****             #if(ADC_DEFAULT_INTERNAL_CLK)
1522:Generated_Source\PSoC5/ADC.c ****                 ADC_theACLK_SetDividerRegister(ADC_CFG4_ADC_CLK_DIVIDER, 1u);
1523:Generated_Source\PSoC5/ADC.c ****             #endif /* ADC_DEFAULT_INTERNAL_CLK */
1524:Generated_Source\PSoC5/ADC.c **** 
1525:Generated_Source\PSoC5/ADC.c ****             #if(ADC_IRQ_REMOVE == 0u)
1526:Generated_Source\PSoC5/ADC.c ****                 /* Set interrupt vector */
1527:Generated_Source\PSoC5/ADC.c ****                 (void)CyIntSetVector(ADC_INTC_NUMBER, &ADC_ISR4);
1528:Generated_Source\PSoC5/ADC.c ****             #endif   /* End ADC_IRQ_REMOVE */
1529:Generated_Source\PSoC5/ADC.c ****         }
1530:Generated_Source\PSoC5/ADC.c ****     #endif /* ADC_DEFAULT_NUM_CONFIGS > 3 */
1531:Generated_Source\PSoC5/ADC.c **** }
1532:Generated_Source\PSoC5/ADC.c **** 
1533:Generated_Source\PSoC5/ADC.c **** 
1534:Generated_Source\PSoC5/ADC.c **** /*******************************************************************************
1535:Generated_Source\PSoC5/ADC.c **** * Function Name: ADC_SelectCofiguration
1536:Generated_Source\PSoC5/ADC.c **** ********************************************************************************
1537:Generated_Source\PSoC5/ADC.c **** *
1538:Generated_Source\PSoC5/ADC.c **** * Summary:
1539:Generated_Source\PSoC5/ADC.c **** *  Sets one of up to four ADC configurations. Before setting the new
1540:Generated_Source\PSoC5/ADC.c **** *  configuration, the ADC is stopped and powered down. After setting
1541:Generated_Source\PSoC5/ADC.c **** *  the new configuration, the ADC can be powered and conversion
1542:Generated_Source\PSoC5/ADC.c **** *  can be restarted depending up on the value of second parameter
1543:Generated_Source\PSoC5/ADC.c **** *  restart. If the value of this parameter is 1, then ADC will be
1544:Generated_Source\PSoC5/ADC.c **** *  restarted. If this value is zero, then user must call ADC_Start
1545:Generated_Source\PSoC5/ADC.c **** *  and ADC_StartConvert() to restart the conversion.
1546:Generated_Source\PSoC5/ADC.c **** *
1547:Generated_Source\PSoC5/ADC.c **** * Parameters:
1548:Generated_Source\PSoC5/ADC.c **** *  config:  configuration user wants to select.
1549:Generated_Source\PSoC5/ADC.c **** *           Valid range: 1..4
1550:Generated_Source\PSoC5/ADC.c **** *  restart:  Restart option. 1 means start the ADC and restart the conversion.
1551:Generated_Source\PSoC5/ADC.c **** *                            0 means do not start the ADC and conversion.
1552:Generated_Source\PSoC5/ADC.c **** *
1553:Generated_Source\PSoC5/ADC.c **** * Return:
1554:Generated_Source\PSoC5/ADC.c **** *  None
1555:Generated_Source\PSoC5/ADC.c **** *
1556:Generated_Source\PSoC5/ADC.c **** * Side Effects: 
1557:Generated_Source\PSoC5/ADC.c **** *  Enables internal interrupt.
1558:Generated_Source\PSoC5/ADC.c **** *
1559:Generated_Source\PSoC5/ADC.c **** *******************************************************************************/
1560:Generated_Source\PSoC5/ADC.c **** void ADC_SelectConfiguration(uint8 config, uint8 restart)
1561:Generated_Source\PSoC5/ADC.c ****                                               
1562:Generated_Source\PSoC5/ADC.c **** {
1563:Generated_Source\PSoC5/ADC.c ****     /* Check whether the configuration number is valid or not */
1564:Generated_Source\PSoC5/ADC.c ****     if((config > 0u) && (config <= ADC_DEFAULT_NUM_CONFIGS))
1565:Generated_Source\PSoC5/ADC.c ****     {
1566:Generated_Source\PSoC5/ADC.c ****         /* Set the flag to ensure Start() API doesn't override the 
1567:Generated_Source\PSoC5/ADC.c **** 		*  selected configuration
1568:Generated_Source\PSoC5/ADC.c **** 		*/
1569:Generated_Source\PSoC5/ADC.c ****         if(ADC_initVar == 0u)
1570:Generated_Source\PSoC5/ADC.c ****         {
ARM GAS  C:\Users\User\AppData\Local\Temp\ccDgUeH4.s 			page 29


1571:Generated_Source\PSoC5/ADC.c ****             ADC_started = 1u;
1572:Generated_Source\PSoC5/ADC.c ****         }
1573:Generated_Source\PSoC5/ADC.c **** 
1574:Generated_Source\PSoC5/ADC.c ****         /* Update the config flag */
1575:Generated_Source\PSoC5/ADC.c ****         ADC_Config = config;
1576:Generated_Source\PSoC5/ADC.c **** 
1577:Generated_Source\PSoC5/ADC.c ****         /* Stop the ADC  */
1578:Generated_Source\PSoC5/ADC.c ****         ADC_Stop();
1579:Generated_Source\PSoC5/ADC.c **** 
1580:Generated_Source\PSoC5/ADC.c ****         /* Set the  ADC registers based on the configuration */
1581:Generated_Source\PSoC5/ADC.c ****         ADC_InitConfig(config);
1582:Generated_Source\PSoC5/ADC.c **** 
1583:Generated_Source\PSoC5/ADC.c ****         /* Compensate the gain */
1584:Generated_Source\PSoC5/ADC.c ****         ADC_DEC_GVAL_REG = ADC_gcor[config - 1u].gval;
1585:Generated_Source\PSoC5/ADC.c ****         CY_SET_REG16(ADC_DEC_GCOR_16B_PTR, ADC_gcor[config - 1u].gcor);
1586:Generated_Source\PSoC5/ADC.c **** 
1587:Generated_Source\PSoC5/ADC.c ****         if(restart == 1u)
1588:Generated_Source\PSoC5/ADC.c ****         {
1589:Generated_Source\PSoC5/ADC.c ****             /* Restart the ADC */
1590:Generated_Source\PSoC5/ADC.c ****             ADC_Start();
1591:Generated_Source\PSoC5/ADC.c **** 
1592:Generated_Source\PSoC5/ADC.c ****             /* Restart the ADC conversion */
1593:Generated_Source\PSoC5/ADC.c ****             ADC_StartConvert();
1594:Generated_Source\PSoC5/ADC.c ****         }
1595:Generated_Source\PSoC5/ADC.c ****     }
1596:Generated_Source\PSoC5/ADC.c ****     else
1597:Generated_Source\PSoC5/ADC.c ****     {
1598:Generated_Source\PSoC5/ADC.c ****         /* Halt CPU in debug mode if config is out of valid range */
1599:Generated_Source\PSoC5/ADC.c ****         CYASSERT(0u != 0u);
1600:Generated_Source\PSoC5/ADC.c ****     }
1601:Generated_Source\PSoC5/ADC.c **** }
1602:Generated_Source\PSoC5/ADC.c **** 
1603:Generated_Source\PSoC5/ADC.c **** 
1604:Generated_Source\PSoC5/ADC.c **** /*******************************************************************************
1605:Generated_Source\PSoC5/ADC.c **** * Function Name: ADC_GainCompensation
1606:Generated_Source\PSoC5/ADC.c **** ********************************************************************************
1607:Generated_Source\PSoC5/ADC.c **** *
1608:Generated_Source\PSoC5/ADC.c **** * Summary:
1609:Generated_Source\PSoC5/ADC.c **** *  This API calculates the trim value and then store this to gcor structure.
1610:Generated_Source\PSoC5/ADC.c **** *
1611:Generated_Source\PSoC5/ADC.c **** * Parameters:
1612:Generated_Source\PSoC5/ADC.c **** *  inputRange:  input range for which trim value is to be calculated.
1613:Generated_Source\PSoC5/ADC.c **** *  IdealDecGain:  Ideal Decimator gain for the selected resolution and
1614:Generated_Source\PSoC5/ADC.c **** *                 conversion  mode.
1615:Generated_Source\PSoC5/ADC.c **** *  IdealOddDecGain:  Ideal odd decimation gain for the selected resolution and
1616:Generated_Source\PSoC5/ADC.c ****                      conversion mode.
1617:Generated_Source\PSoC5/ADC.c **** *  resolution:  Resolution to select the proper flash location for trim value.
1618:Generated_Source\PSoC5/ADC.c **** *  config:      Specifies the configuration number
1619:Generated_Source\PSoC5/ADC.c **** *               Valid range: 1..4
1620:Generated_Source\PSoC5/ADC.c **** *
1621:Generated_Source\PSoC5/ADC.c **** * Return:
1622:Generated_Source\PSoC5/ADC.c **** *  None
1623:Generated_Source\PSoC5/ADC.c **** *
1624:Generated_Source\PSoC5/ADC.c **** *******************************************************************************/
1625:Generated_Source\PSoC5/ADC.c **** static void ADC_GainCompensation(uint8 inputRange, uint16 idealDecGain, uint16 idealOddDecGain,
1626:Generated_Source\PSoC5/ADC.c ****                               uint8 resolution, uint8 config) 
1627:Generated_Source\PSoC5/ADC.c **** {
ARM GAS  C:\Users\User\AppData\Local\Temp\ccDgUeH4.s 			page 30


  27              		.loc 1 1627 0
  28              		.cfi_startproc
  29              		@ args = 4, pretend = 0, frame = 0
  30              		@ frame_needed = 0, uses_anonymous_args = 0
  31              	.LVL0:
  32 0000 38B5     		push	{r3, r4, r5, lr}
  33              		.cfi_def_cfa_offset 16
  34              		.cfi_offset 3, -16
  35              		.cfi_offset 4, -12
  36              		.cfi_offset 5, -8
  37              		.cfi_offset 14, -4
  38 0002 9DF81040 		ldrb	r4, [sp, #16]	@ zero_extendqisi2
1628:Generated_Source\PSoC5/ADC.c ****     int8 flash;
1629:Generated_Source\PSoC5/ADC.c **** 	int32 normalised;
1630:Generated_Source\PSoC5/ADC.c **** 	uint16 gcorValue;
1631:Generated_Source\PSoC5/ADC.c ****     uint32 gcorTmp;
1632:Generated_Source\PSoC5/ADC.c **** 
1633:Generated_Source\PSoC5/ADC.c ****     if((config > 0u) && (config <= ADC_DEFAULT_NUM_CONFIGS))
  39              		.loc 1 1633 0
  40 0006 651E     		subs	r5, r4, #1
  41 0008 EDB2     		uxtb	r5, r5
  42 000a 032D     		cmp	r5, #3
  43 000c 51D8     		bhi	.L2
1634:Generated_Source\PSoC5/ADC.c ****     {
1635:Generated_Source\PSoC5/ADC.c ****         switch(inputRange)
  44              		.loc 1 1635 0
  45 000e 0138     		subs	r0, r0, #1
  46              	.LVL1:
  47 0010 0928     		cmp	r0, #9
  48 0012 2ED8     		bhi	.L16
  49 0014 DFE800F0 		tbb	[pc, r0]
  50              	.L5:
  51 0018 05       		.byte	(.L4-.L5)/2
  52 0019 2D       		.byte	(.L16-.L5)/2
  53 001a 2D       		.byte	(.L16-.L5)/2
  54 001b 05       		.byte	(.L4-.L5)/2
  55 001c 2D       		.byte	(.L16-.L5)/2
  56 001d 2D       		.byte	(.L16-.L5)/2
  57 001e 0F       		.byte	(.L6-.L5)/2
  58 001f 19       		.byte	(.L7-.L5)/2
  59 0020 2D       		.byte	(.L16-.L5)/2
  60 0021 23       		.byte	(.L8-.L5)/2
  61              		.p2align 1
  62              	.L4:
1636:Generated_Source\PSoC5/ADC.c ****         {
1637:Generated_Source\PSoC5/ADC.c ****             case ADC_IR_VNEG_VREF_DIFF:
1638:Generated_Source\PSoC5/ADC.c ****             case ADC_IR_VSSA_TO_2VREF:
1639:Generated_Source\PSoC5/ADC.c ****                 /* Normalize the flash Value */
1640:Generated_Source\PSoC5/ADC.c ****                 if(resolution > 15u)
  63              		.loc 1 1640 0
  64 0022 0F2B     		cmp	r3, #15
  65 0024 03D9     		bls	.L9
1641:Generated_Source\PSoC5/ADC.c ****                 {
1642:Generated_Source\PSoC5/ADC.c ****                     flash = ADC_DEC_TRIM_VREF_DIFF_16_20;
  66              		.loc 1 1642 0
  67 0026 2548     		ldr	r0, .L18
  68 0028 0078     		ldrb	r0, [r0]	@ zero_extendqisi2
ARM GAS  C:\Users\User\AppData\Local\Temp\ccDgUeH4.s 			page 31


  69 002a 40B2     		sxtb	r0, r0
  70              	.LVL2:
  71 002c 22E0     		b	.L3
  72              	.LVL3:
  73              	.L9:
1643:Generated_Source\PSoC5/ADC.c ****                 }
1644:Generated_Source\PSoC5/ADC.c ****                 else
1645:Generated_Source\PSoC5/ADC.c ****                 {
1646:Generated_Source\PSoC5/ADC.c ****                     flash = ADC_DEC_TRIM_VREF_DIFF_8_15;
  74              		.loc 1 1646 0
  75 002e 2448     		ldr	r0, .L18+4
  76 0030 0078     		ldrb	r0, [r0]	@ zero_extendqisi2
  77 0032 40B2     		sxtb	r0, r0
  78              	.LVL4:
  79 0034 1EE0     		b	.L3
  80              	.LVL5:
  81              	.L6:
1647:Generated_Source\PSoC5/ADC.c ****                 }
1648:Generated_Source\PSoC5/ADC.c ****                 break;
1649:Generated_Source\PSoC5/ADC.c **** 
1650:Generated_Source\PSoC5/ADC.c ****             case ADC_IR_VNEG_VREF_2_DIFF:
1651:Generated_Source\PSoC5/ADC.c ****                 /* Normalize the flash Value */
1652:Generated_Source\PSoC5/ADC.c ****                 if(resolution > 15u)
  82              		.loc 1 1652 0
  83 0036 0F2B     		cmp	r3, #15
  84 0038 03D9     		bls	.L10
1653:Generated_Source\PSoC5/ADC.c ****                 {
1654:Generated_Source\PSoC5/ADC.c ****                     flash = ADC_DEC_TRIM_VREF_2_DIFF_16_20;
  85              		.loc 1 1654 0
  86 003a 2248     		ldr	r0, .L18+8
  87 003c 0078     		ldrb	r0, [r0]	@ zero_extendqisi2
  88 003e 40B2     		sxtb	r0, r0
  89              	.LVL6:
  90 0040 18E0     		b	.L3
  91              	.LVL7:
  92              	.L10:
1655:Generated_Source\PSoC5/ADC.c ****                 }
1656:Generated_Source\PSoC5/ADC.c ****                 else
1657:Generated_Source\PSoC5/ADC.c ****                 {
1658:Generated_Source\PSoC5/ADC.c ****                     flash = ADC_DEC_TRIM_VREF_2_DIFF_8_15;
  93              		.loc 1 1658 0
  94 0042 2148     		ldr	r0, .L18+12
  95 0044 0078     		ldrb	r0, [r0]	@ zero_extendqisi2
  96 0046 40B2     		sxtb	r0, r0
  97              	.LVL8:
  98 0048 14E0     		b	.L3
  99              	.LVL9:
 100              	.L7:
1659:Generated_Source\PSoC5/ADC.c ****                 }
1660:Generated_Source\PSoC5/ADC.c ****                 break;
1661:Generated_Source\PSoC5/ADC.c **** 
1662:Generated_Source\PSoC5/ADC.c ****             case ADC_IR_VNEG_VREF_4_DIFF:
1663:Generated_Source\PSoC5/ADC.c ****                 /* Normalize the flash Value */
1664:Generated_Source\PSoC5/ADC.c ****                 if(resolution > 15u)
 101              		.loc 1 1664 0
 102 004a 0F2B     		cmp	r3, #15
 103 004c 03D9     		bls	.L11
ARM GAS  C:\Users\User\AppData\Local\Temp\ccDgUeH4.s 			page 32


1665:Generated_Source\PSoC5/ADC.c ****                 {
1666:Generated_Source\PSoC5/ADC.c ****                     flash = ADC_DEC_TRIM_VREF_4_DIFF_16_20;
 104              		.loc 1 1666 0
 105 004e 1F48     		ldr	r0, .L18+16
 106 0050 0078     		ldrb	r0, [r0]	@ zero_extendqisi2
 107 0052 40B2     		sxtb	r0, r0
 108              	.LVL10:
 109 0054 0EE0     		b	.L3
 110              	.LVL11:
 111              	.L11:
1667:Generated_Source\PSoC5/ADC.c ****                 }
1668:Generated_Source\PSoC5/ADC.c ****                 else
1669:Generated_Source\PSoC5/ADC.c ****                 {
1670:Generated_Source\PSoC5/ADC.c ****                     flash = ADC_DEC_TRIM_VREF_4_DIFF_8_15;
 112              		.loc 1 1670 0
 113 0056 1E48     		ldr	r0, .L18+20
 114 0058 0078     		ldrb	r0, [r0]	@ zero_extendqisi2
 115 005a 40B2     		sxtb	r0, r0
 116              	.LVL12:
 117 005c 0AE0     		b	.L3
 118              	.LVL13:
 119              	.L8:
1671:Generated_Source\PSoC5/ADC.c ****                 }
1672:Generated_Source\PSoC5/ADC.c ****                 break;
1673:Generated_Source\PSoC5/ADC.c **** 
1674:Generated_Source\PSoC5/ADC.c ****             case ADC_IR_VNEG_VREF_16_DIFF:
1675:Generated_Source\PSoC5/ADC.c ****                 /* Normalize the flash Value */
1676:Generated_Source\PSoC5/ADC.c ****                 if(resolution > 15u)
 120              		.loc 1 1676 0
 121 005e 0F2B     		cmp	r3, #15
 122 0060 03D9     		bls	.L12
1677:Generated_Source\PSoC5/ADC.c ****                 {
1678:Generated_Source\PSoC5/ADC.c ****                     flash = ADC_DEC_TRIM_VREF_16_DIFF_16_20;
 123              		.loc 1 1678 0
 124 0062 1C48     		ldr	r0, .L18+24
 125 0064 0078     		ldrb	r0, [r0]	@ zero_extendqisi2
 126 0066 40B2     		sxtb	r0, r0
 127              	.LVL14:
 128 0068 04E0     		b	.L3
 129              	.LVL15:
 130              	.L12:
1679:Generated_Source\PSoC5/ADC.c ****                 }
1680:Generated_Source\PSoC5/ADC.c ****                 else
1681:Generated_Source\PSoC5/ADC.c ****                 {
1682:Generated_Source\PSoC5/ADC.c ****                     flash = ADC_DEC_TRIM_VREF_16_DIFF_8_15;
 131              		.loc 1 1682 0
 132 006a 1B48     		ldr	r0, .L18+28
 133 006c 0078     		ldrb	r0, [r0]	@ zero_extendqisi2
 134 006e 40B2     		sxtb	r0, r0
 135              	.LVL16:
 136 0070 00E0     		b	.L3
 137              	.LVL17:
 138              	.L16:
1683:Generated_Source\PSoC5/ADC.c ****                 }
1684:Generated_Source\PSoC5/ADC.c ****                 break;
1685:Generated_Source\PSoC5/ADC.c **** 
1686:Generated_Source\PSoC5/ADC.c ****             default:
ARM GAS  C:\Users\User\AppData\Local\Temp\ccDgUeH4.s 			page 33


1687:Generated_Source\PSoC5/ADC.c ****                 flash = 0;
 139              		.loc 1 1687 0
 140 0072 0020     		movs	r0, #0
 141              	.L3:
 142              	.LVL18:
1688:Generated_Source\PSoC5/ADC.c ****                 break;
1689:Generated_Source\PSoC5/ADC.c ****         }
1690:Generated_Source\PSoC5/ADC.c **** 
1691:Generated_Source\PSoC5/ADC.c ****         /* Add two values */
1692:Generated_Source\PSoC5/ADC.c **** 		normalised = (int32)idealDecGain + ((int32)flash * 32);
 143              		.loc 1 1692 0
 144 0074 01EB4011 		add	r1, r1, r0, lsl #5
 145              	.LVL19:
1693:Generated_Source\PSoC5/ADC.c ****         gcorTmp = (uint32)normalised * (uint32)idealOddDecGain;
 146              		.loc 1 1693 0
 147 0078 01FB02F2 		mul	r2, r1, r2
 148              	.LVL20:
1694:Generated_Source\PSoC5/ADC.c ****         gcorValue = (uint16)(gcorTmp / ADC_IDEAL_GAIN_CONST);
 149              		.loc 1 1694 0
 150 007c D20B     		lsrs	r2, r2, #15
 151              	.LVL21:
 152 007e 91B2     		uxth	r1, r2
 153              	.LVL22:
1695:Generated_Source\PSoC5/ADC.c **** 
1696:Generated_Source\PSoC5/ADC.c ****         if (resolution < (ADC_MAX_GVAL - 1u))
 154              		.loc 1 1696 0
 155 0080 0D2B     		cmp	r3, #13
 156 0082 0BD8     		bhi	.L13
1697:Generated_Source\PSoC5/ADC.c ****         {
1698:Generated_Source\PSoC5/ADC.c ****             gcorValue = (gcorValue >> (ADC_MAX_GVAL - (resolution + 1u)));
 157              		.loc 1 1698 0
 158 0084 C3F10E01 		rsb	r1, r3, #14
 159              	.LVL23:
 160 0088 92B2     		uxth	r2, r2
 161 008a 0A41     		asrs	r2, r2, r1
 162              	.LVL24:
 163 008c 91B2     		uxth	r1, r2
 164              	.LVL25:
1699:Generated_Source\PSoC5/ADC.c ****             ADC_gcor[config - 1u].gval = (resolution + 1u);
 165              		.loc 1 1699 0
 166 008e 621E     		subs	r2, r4, #1
 167 0090 1248     		ldr	r0, .L18+32
 168              	.LVL26:
 169 0092 00EB8202 		add	r2, r0, r2, lsl #2
 170 0096 0133     		adds	r3, r3, #1
 171              	.LVL27:
 172 0098 9370     		strb	r3, [r2, #2]
 173 009a 05E0     		b	.L14
 174              	.LVL28:
 175              	.L13:
1700:Generated_Source\PSoC5/ADC.c ****         }
1701:Generated_Source\PSoC5/ADC.c ****         else
1702:Generated_Source\PSoC5/ADC.c ****         {
1703:Generated_Source\PSoC5/ADC.c ****             /* Use all 16 bits */
1704:Generated_Source\PSoC5/ADC.c ****             ADC_gcor[config - 1u].gval = ADC_MAX_GVAL;
 176              		.loc 1 1704 0
 177 009c 631E     		subs	r3, r4, #1
ARM GAS  C:\Users\User\AppData\Local\Temp\ccDgUeH4.s 			page 34


 178              	.LVL29:
 179 009e 0F4A     		ldr	r2, .L18+32
 180 00a0 02EB8303 		add	r3, r2, r3, lsl #2
 181 00a4 0F22     		movs	r2, #15
 182 00a6 9A70     		strb	r2, [r3, #2]
 183              	.LVL30:
 184              	.L14:
1705:Generated_Source\PSoC5/ADC.c ****         }
1706:Generated_Source\PSoC5/ADC.c **** 
1707:Generated_Source\PSoC5/ADC.c ****         /* Save the gain correction register value */
1708:Generated_Source\PSoC5/ADC.c ****         ADC_gcor[config - 1u].gcor = gcorValue;
 185              		.loc 1 1708 0
 186 00a8 013C     		subs	r4, r4, #1
 187 00aa 0C4B     		ldr	r3, .L18+32
 188 00ac 23F82410 		strh	r1, [r3, r4, lsl #2]	@ movhi
 189 00b0 38BD     		pop	{r3, r4, r5, pc}
 190              	.LVL31:
 191              	.L2:
1709:Generated_Source\PSoC5/ADC.c ****     }
1710:Generated_Source\PSoC5/ADC.c ****     else
1711:Generated_Source\PSoC5/ADC.c ****     {
1712:Generated_Source\PSoC5/ADC.c ****         /* Halt CPU in debug mode if config is out of valid range */
1713:Generated_Source\PSoC5/ADC.c ****         CYASSERT(0u != 0u);
 192              		.loc 1 1713 0 discriminator 1
 193 00b2 0020     		movs	r0, #0
 194              	.LVL32:
 195 00b4 FFF7FEFF 		bl	CyHalt
 196              	.LVL33:
 197 00b8 38BD     		pop	{r3, r4, r5, pc}
 198              	.LVL34:
 199              	.L19:
 200 00ba 00BF     		.align	2
 201              	.L18:
 202 00bc 18010049 		.word	1224737048
 203 00c0 1C010049 		.word	1224737052
 204 00c4 19010049 		.word	1224737049
 205 00c8 1D010049 		.word	1224737053
 206 00cc 1A010049 		.word	1224737050
 207 00d0 1E010049 		.word	1224737054
 208 00d4 1B010049 		.word	1224737051
 209 00d8 1F010049 		.word	1224737055
 210 00dc 00000000 		.word	.LANCHOR0
 211              		.cfi_endproc
 212              	.LFE21:
 213              		.size	ADC_GainCompensation, .-ADC_GainCompensation
 214              		.section	.text.ADC_SetDSMRef0Reg,"ax",%progbits
 215              		.align	2
 216              		.thumb
 217              		.thumb_func
 218              		.type	ADC_SetDSMRef0Reg, %function
 219              	ADC_SetDSMRef0Reg:
 220              	.LFB22:
1714:Generated_Source\PSoC5/ADC.c ****     }
1715:Generated_Source\PSoC5/ADC.c **** }
1716:Generated_Source\PSoC5/ADC.c **** 
1717:Generated_Source\PSoC5/ADC.c **** 
1718:Generated_Source\PSoC5/ADC.c **** /******************************************************************************
ARM GAS  C:\Users\User\AppData\Local\Temp\ccDgUeH4.s 			page 35


1719:Generated_Source\PSoC5/ADC.c **** * Function Name: ADC_SetDSMRef0Reg(uint8)
1720:Generated_Source\PSoC5/ADC.c **** ******************************************************************************
1721:Generated_Source\PSoC5/ADC.c **** *
1722:Generated_Source\PSoC5/ADC.c **** * Summary:
1723:Generated_Source\PSoC5/ADC.c **** *  This API sets the DSM_REF0 register. This is written for internal use.
1724:Generated_Source\PSoC5/ADC.c **** *
1725:Generated_Source\PSoC5/ADC.c **** * Parameters:
1726:Generated_Source\PSoC5/ADC.c **** *  value:  Value to be written to DSM_REF0 register.
1727:Generated_Source\PSoC5/ADC.c **** *
1728:Generated_Source\PSoC5/ADC.c **** * Return:
1729:Generated_Source\PSoC5/ADC.c **** *  None
1730:Generated_Source\PSoC5/ADC.c **** *
1731:Generated_Source\PSoC5/ADC.c **** ******************************************************************************/
1732:Generated_Source\PSoC5/ADC.c **** static void ADC_SetDSMRef0Reg(uint8 value) 
1733:Generated_Source\PSoC5/ADC.c **** {
 221              		.loc 1 1733 0
 222              		.cfi_startproc
 223              		@ args = 0, pretend = 0, frame = 0
 224              		@ frame_needed = 0, uses_anonymous_args = 0
 225              	.LVL35:
 226 0000 F8B5     		push	{r3, r4, r5, r6, r7, lr}
 227              		.cfi_def_cfa_offset 24
 228              		.cfi_offset 3, -24
 229              		.cfi_offset 4, -20
 230              		.cfi_offset 5, -16
 231              		.cfi_offset 6, -12
 232              		.cfi_offset 7, -8
 233              		.cfi_offset 14, -4
 234 0002 0746     		mov	r7, r0
1734:Generated_Source\PSoC5/ADC.c ****     uint8 enableInterrupts;
1735:Generated_Source\PSoC5/ADC.c ****     enableInterrupts = CyEnterCriticalSection();
 235              		.loc 1 1735 0
 236 0004 FFF7FEFF 		bl	CyEnterCriticalSection
 237              	.LVL36:
 238 0008 0646     		mov	r6, r0
 239              	.LVL37:
1736:Generated_Source\PSoC5/ADC.c **** 
1737:Generated_Source\PSoC5/ADC.c ****     /* Disable PRES, Enable power to VCMBUF0, REFBUF0 and REFBUF1, enable PRES */
1738:Generated_Source\PSoC5/ADC.c ****     ADC_RESET_CR4_REG |= (ADC_IGNORE_PRESA1 | ADC_IGNORE_PRESD1);
 240              		.loc 1 1738 0
 241 000a 0D4D     		ldr	r5, .L22
 242 000c 2B78     		ldrb	r3, [r5]	@ zero_extendqisi2
 243 000e 43F00303 		orr	r3, r3, #3
 244 0012 2B70     		strb	r3, [r5]
1739:Generated_Source\PSoC5/ADC.c ****     ADC_RESET_CR5_REG |= (ADC_IGNORE_PRESA2 | ADC_IGNORE_PRESD2);
 245              		.loc 1 1739 0
 246 0014 0B4C     		ldr	r4, .L22+4
 247 0016 2378     		ldrb	r3, [r4]	@ zero_extendqisi2
 248 0018 43F00303 		orr	r3, r3, #3
 249 001c 2370     		strb	r3, [r4]
1740:Generated_Source\PSoC5/ADC.c ****     ADC_DSM_REF0_REG = value;
 250              		.loc 1 1740 0
 251 001e 0A4B     		ldr	r3, .L22+8
 252 0020 1F70     		strb	r7, [r3]
1741:Generated_Source\PSoC5/ADC.c **** 
1742:Generated_Source\PSoC5/ADC.c ****     /* Wait for 3 microseconds */
1743:Generated_Source\PSoC5/ADC.c ****     CyDelayUs(ADC_PRES_DELAY_TIME);
ARM GAS  C:\Users\User\AppData\Local\Temp\ccDgUeH4.s 			page 36


 253              		.loc 1 1743 0
 254 0022 0320     		movs	r0, #3
 255 0024 FFF7FEFF 		bl	CyDelayUs
 256              	.LVL38:
1744:Generated_Source\PSoC5/ADC.c ****     /* Enable the press circuit */
1745:Generated_Source\PSoC5/ADC.c ****     ADC_RESET_CR4_REG &= (uint8)~(ADC_IGNORE_PRESA1 | ADC_IGNORE_PRESD1);
 257              		.loc 1 1745 0
 258 0028 2B78     		ldrb	r3, [r5]	@ zero_extendqisi2
 259 002a 03F0FC03 		and	r3, r3, #252
 260 002e 2B70     		strb	r3, [r5]
1746:Generated_Source\PSoC5/ADC.c ****     ADC_RESET_CR5_REG &= (uint8)~(ADC_IGNORE_PRESA2 | ADC_IGNORE_PRESD2);
 261              		.loc 1 1746 0
 262 0030 2378     		ldrb	r3, [r4]	@ zero_extendqisi2
 263 0032 03F0FC03 		and	r3, r3, #252
 264 0036 2370     		strb	r3, [r4]
1747:Generated_Source\PSoC5/ADC.c **** 
1748:Generated_Source\PSoC5/ADC.c ****     CyExitCriticalSection(enableInterrupts);
 265              		.loc 1 1748 0
 266 0038 3046     		mov	r0, r6
 267 003a FFF7FEFF 		bl	CyExitCriticalSection
 268              	.LVL39:
 269 003e F8BD     		pop	{r3, r4, r5, r6, r7, pc}
 270              	.LVL40:
 271              	.L23:
 272              		.align	2
 273              	.L22:
 274 0040 F8460040 		.word	1073759992
 275 0044 F9460040 		.word	1073759993
 276 0048 92580040 		.word	1073764498
 277              		.cfi_endproc
 278              	.LFE22:
 279              		.size	ADC_SetDSMRef0Reg, .-ADC_SetDSMRef0Reg
 280              		.section	.text.ADC_InitConfig,"ax",%progbits
 281              		.align	2
 282              		.thumb
 283              		.thumb_func
 284              		.type	ADC_InitConfig, %function
 285              	ADC_InitConfig:
 286              	.LFB19:
1248:Generated_Source\PSoC5/ADC.c ****     ADC_stopConversion = 0u;
 287              		.loc 1 1248 0
 288              		.cfi_startproc
 289              		@ args = 0, pretend = 0, frame = 0
 290              		@ frame_needed = 0, uses_anonymous_args = 0
 291              	.LVL41:
 292 0000 2DE9F041 		push	{r4, r5, r6, r7, r8, lr}
 293              		.cfi_def_cfa_offset 24
 294              		.cfi_offset 4, -24
 295              		.cfi_offset 5, -20
 296              		.cfi_offset 6, -16
 297              		.cfi_offset 7, -12
 298              		.cfi_offset 8, -8
 299              		.cfi_offset 14, -4
 300 0004 0446     		mov	r4, r0
1249:Generated_Source\PSoC5/ADC.c **** 
 301              		.loc 1 1249 0
 302 0006 0022     		movs	r2, #0
ARM GAS  C:\Users\User\AppData\Local\Temp\ccDgUeH4.s 			page 37


 303 0008 C34B     		ldr	r3, .L30
 304 000a 1A74     		strb	r2, [r3, #16]
1251:Generated_Source\PSoC5/ADC.c ****     {
 305              		.loc 1 1251 0
 306 000c 0128     		cmp	r0, #1
 307 000e 60D1     		bne	.L25
1254:Generated_Source\PSoC5/ADC.c ****         ADC_DEC_SHIFT1_REG  = ADC_CFG1_DEC_SHIFT1;
 308              		.loc 1 1254 0
 309 0010 3822     		movs	r2, #56
 310 0012 C24B     		ldr	r3, .L30+4
 311 0014 1A70     		strb	r2, [r3]
1255:Generated_Source\PSoC5/ADC.c ****         ADC_DEC_SHIFT2_REG  = ADC_CFG1_DEC_SHIFT2;
 312              		.loc 1 1255 0
 313 0016 0422     		movs	r2, #4
 314 0018 0233     		adds	r3, r3, #2
 315 001a 1A70     		strb	r2, [r3]
1256:Generated_Source\PSoC5/ADC.c ****         ADC_DEC_DR2_REG     = ADC_CFG1_DEC_DR2;
 316              		.loc 1 1256 0
 317 001c 0722     		movs	r2, #7
 318 001e 0133     		adds	r3, r3, #1
 319 0020 1A70     		strb	r2, [r3]
1257:Generated_Source\PSoC5/ADC.c ****         ADC_DEC_DR2H_REG    = ADC_CFG1_DEC_DR2H;
 320              		.loc 1 1257 0
 321 0022 0025     		movs	r5, #0
 322 0024 0133     		adds	r3, r3, #1
 323 0026 1D70     		strb	r5, [r3]
1258:Generated_Source\PSoC5/ADC.c ****         ADC_DEC_DR1_REG     = ADC_CFG1_DEC_DR1;
 324              		.loc 1 1258 0
 325 0028 0133     		adds	r3, r3, #1
 326 002a 1D70     		strb	r5, [r3]
1259:Generated_Source\PSoC5/ADC.c ****         ADC_DEC_OCOR_REG    = ADC_CFG1_DEC_OCOR;
 327              		.loc 1 1259 0
 328 002c 3F22     		movs	r2, #63
 329 002e 0133     		adds	r3, r3, #1
 330 0030 1A70     		strb	r2, [r3]
1260:Generated_Source\PSoC5/ADC.c ****         ADC_DEC_OCORM_REG   = ADC_CFG1_DEC_OCORM;
 331              		.loc 1 1260 0
 332 0032 1B22     		movs	r2, #27
 333 0034 0233     		adds	r3, r3, #2
 334 0036 1A70     		strb	r2, [r3]
1261:Generated_Source\PSoC5/ADC.c ****         ADC_DEC_OCORH_REG   = ADC_CFG1_DEC_OCORH;
 335              		.loc 1 1261 0
 336 0038 7122     		movs	r2, #113
 337 003a 0133     		adds	r3, r3, #1
 338 003c 1A70     		strb	r2, [r3]
1262:Generated_Source\PSoC5/ADC.c ****         ADC_DEC_COHER_REG   = ADC_CFG1_DEC_COHER;
 339              		.loc 1 1262 0
 340 003e 0133     		adds	r3, r3, #1
 341 0040 1D70     		strb	r5, [r3]
1263:Generated_Source\PSoC5/ADC.c **** 
 342              		.loc 1 1263 0
 343 0042 0126     		movs	r6, #1
 344 0044 0A33     		adds	r3, r3, #10
 345 0046 1E70     		strb	r6, [r3]
1265:Generated_Source\PSoC5/ADC.c ****         ADC_DSM_CR5_REG     = ADC_CFG1_DSM_CR5;
 346              		.loc 1 1265 0
 347 0048 5022     		movs	r2, #80
ARM GAS  C:\Users\User\AppData\Local\Temp\ccDgUeH4.s 			page 38


 348 004a 03F52763 		add	r3, r3, #2672
 349 004e 1A70     		strb	r2, [r3]
1266:Generated_Source\PSoC5/ADC.c ****         ADC_DSM_CR6_REG     = ADC_CFG1_DSM_CR6;
 350              		.loc 1 1266 0
 351 0050 2722     		movs	r2, #39
 352 0052 0133     		adds	r3, r3, #1
 353 0054 1A70     		strb	r2, [r3]
1267:Generated_Source\PSoC5/ADC.c ****         ADC_DSM_CR7_REG     = ADC_CFG1_DSM_CR7;
 354              		.loc 1 1267 0
 355 0056 2C22     		movs	r2, #44
 356 0058 0133     		adds	r3, r3, #1
 357 005a 1A70     		strb	r2, [r3]
1268:Generated_Source\PSoC5/ADC.c ****         ADC_DSM_CR10_REG    = ADC_CFG1_DSM_CR10;
 358              		.loc 1 1268 0
 359 005c 0133     		adds	r3, r3, #1
 360 005e 1D70     		strb	r5, [r3]
1269:Generated_Source\PSoC5/ADC.c ****         ADC_DSM_CR11_REG    = ADC_CFG1_DSM_CR11;
 361              		.loc 1 1269 0
 362 0060 5522     		movs	r2, #85
 363 0062 0333     		adds	r3, r3, #3
 364 0064 1A70     		strb	r2, [r3]
1270:Generated_Source\PSoC5/ADC.c ****         ADC_DSM_CR12_REG    = ADC_CFG1_DSM_CR12;
 365              		.loc 1 1270 0
 366 0066 5A22     		movs	r2, #90
 367 0068 0133     		adds	r3, r3, #1
 368 006a 1A70     		strb	r2, [r3]
1271:Generated_Source\PSoC5/ADC.c ****         ADC_DSM_CR14_REG    = ADC_CFG1_DSM_CR14;
 369              		.loc 1 1271 0
 370 006c 0527     		movs	r7, #5
 371 006e 0133     		adds	r3, r3, #1
 372 0070 1F70     		strb	r7, [r3]
1272:Generated_Source\PSoC5/ADC.c ****         ADC_DSM_CR15_REG    = ADC_CFG1_DSM_CR15;
 373              		.loc 1 1272 0
 374 0072 0233     		adds	r3, r3, #2
 375 0074 1D70     		strb	r5, [r3]
1273:Generated_Source\PSoC5/ADC.c ****         ADC_DSM_CR16_REG    = ADC_CFG1_DSM_CR16;
 376              		.loc 1 1273 0
 377 0076 0133     		adds	r3, r3, #1
 378 0078 1D70     		strb	r5, [r3]
1274:Generated_Source\PSoC5/ADC.c ****         ADC_DSM_CR17_REG    = ADC_CFG1_DSM_CR17;
 379              		.loc 1 1274 0
 380 007a 4FF00A08 		mov	r8, #10
 381 007e 0133     		adds	r3, r3, #1
 382 0080 83F80080 		strb	r8, [r3]
1275:Generated_Source\PSoC5/ADC.c ****         /* Set DSM_REF0_REG by disabling and enabling the PRESS circuit */
 383              		.loc 1 1275 0
 384 0084 4322     		movs	r2, #67
 385 0086 0133     		adds	r3, r3, #1
 386 0088 1A70     		strb	r2, [r3]
1277:Generated_Source\PSoC5/ADC.c ****         ADC_DSM_REF2_REG    = ADC_CFG1_DSM_REF2;
 387              		.loc 1 1277 0
 388 008a 4C20     		movs	r0, #76
 389              	.LVL42:
 390 008c FFF7FEFF 		bl	ADC_SetDSMRef0Reg
 391              	.LVL43:
1278:Generated_Source\PSoC5/ADC.c ****         ADC_DSM_REF3_REG    = ADC_CFG1_DSM_REF3;
 392              		.loc 1 1278 0
ARM GAS  C:\Users\User\AppData\Local\Temp\ccDgUeH4.s 			page 39


 393 0090 5822     		movs	r2, #88
 394 0092 A34B     		ldr	r3, .L30+8
 395 0094 1A70     		strb	r2, [r3]
1279:Generated_Source\PSoC5/ADC.c **** 
 396              		.loc 1 1279 0
 397 0096 0133     		adds	r3, r3, #1
 398 0098 1D70     		strb	r5, [r3]
1281:Generated_Source\PSoC5/ADC.c ****         ADC_DSM_BUF1_REG    = ADC_CFG1_DSM_BUF1;
 399              		.loc 1 1281 0
 400 009a 0533     		adds	r3, r3, #5
 401 009c 1F70     		strb	r7, [r3]
1282:Generated_Source\PSoC5/ADC.c ****         ADC_DSM_BUF2_REG    = ADC_CFG1_DSM_BUF2;
 402              		.loc 1 1282 0
 403 009e 0133     		adds	r3, r3, #1
 404 00a0 1E70     		strb	r6, [r3]
1283:Generated_Source\PSoC5/ADC.c ****         ADC_DSM_BUF3_REG    = ADC_CFG1_DSM_BUF3;
 405              		.loc 1 1283 0
 406 00a2 0133     		adds	r3, r3, #1
 407 00a4 1D70     		strb	r5, [r3]
1284:Generated_Source\PSoC5/ADC.c **** 
 408              		.loc 1 1284 0
 409 00a6 0133     		adds	r3, r3, #1
 410 00a8 83F80080 		strb	r8, [r3]
1291:Generated_Source\PSoC5/ADC.c ****             #else
 411              		.loc 1 1291 0
 412 00ac 3046     		mov	r0, r6
 413 00ae FFF7FEFF 		bl	ADC_AMux_Select
 414              	.LVL44:
1305:Generated_Source\PSoC5/ADC.c **** 
 415              		.loc 1 1305 0
 416 00b2 4FF4FA42 		mov	r2, #32000
 417 00b6 9B4B     		ldr	r3, .L30+12
 418 00b8 1A60     		str	r2, [r3]
1307:Generated_Source\PSoC5/ADC.c **** 
 419              		.loc 1 1307 0
 420 00ba 3146     		mov	r1, r6
 421 00bc 3846     		mov	r0, r7
 422 00be FFF7FEFF 		bl	ADC_Ext_CP_Clk_SetDividerRegister
 423              	.LVL45:
1311:Generated_Source\PSoC5/ADC.c ****         #endif /* ADC_DEFAULT_INTERNAL_CLK */
 424              		.loc 1 1311 0
 425 00c2 3146     		mov	r1, r6
 426 00c4 BA20     		movs	r0, #186
 427 00c6 FFF7FEFF 		bl	ADC_theACLK_SetDividerRegister
 428              	.LVL46:
1316:Generated_Source\PSoC5/ADC.c ****         #endif   /* End ADC_IRQ_REMOVE */
 429              		.loc 1 1316 0
 430 00ca 9749     		ldr	r1, .L30+16
 431 00cc 1D20     		movs	r0, #29
 432 00ce FFF7FEFF 		bl	CyIntSetVector
 433              	.LVL47:
 434              	.L25:
1321:Generated_Source\PSoC5/ADC.c ****         {
 435              		.loc 1 1321 0
 436 00d2 022C     		cmp	r4, #2
 437 00d4 5DD1     		bne	.L26
1324:Generated_Source\PSoC5/ADC.c ****             ADC_DEC_SHIFT1_REG  = ADC_CFG2_DEC_SHIFT1;
ARM GAS  C:\Users\User\AppData\Local\Temp\ccDgUeH4.s 			page 40


 438              		.loc 1 1324 0
 439 00d6 3822     		movs	r2, #56
 440 00d8 904B     		ldr	r3, .L30+4
 441 00da 1A70     		strb	r2, [r3]
1325:Generated_Source\PSoC5/ADC.c ****             ADC_DEC_SHIFT2_REG  = ADC_CFG2_DEC_SHIFT2;
 442              		.loc 1 1325 0
 443 00dc 0422     		movs	r2, #4
 444 00de 0233     		adds	r3, r3, #2
 445 00e0 1A70     		strb	r2, [r3]
1326:Generated_Source\PSoC5/ADC.c ****             ADC_DEC_DR2_REG     = ADC_CFG2_DEC_DR2;
 446              		.loc 1 1326 0
 447 00e2 0622     		movs	r2, #6
 448 00e4 0133     		adds	r3, r3, #1
 449 00e6 1A70     		strb	r2, [r3]
1327:Generated_Source\PSoC5/ADC.c ****             ADC_DEC_DR2H_REG    = ADC_CFG2_DEC_DR2H;
 450              		.loc 1 1327 0
 451 00e8 0025     		movs	r5, #0
 452 00ea 0133     		adds	r3, r3, #1
 453 00ec 1D70     		strb	r5, [r3]
1328:Generated_Source\PSoC5/ADC.c ****             ADC_DEC_DR1_REG     = ADC_CFG2_DEC_DR1;
 454              		.loc 1 1328 0
 455 00ee 0133     		adds	r3, r3, #1
 456 00f0 1D70     		strb	r5, [r3]
1329:Generated_Source\PSoC5/ADC.c ****             ADC_DEC_OCOR_REG    = ADC_CFG2_DEC_OCOR;
 457              		.loc 1 1329 0
 458 00f2 3F22     		movs	r2, #63
 459 00f4 0133     		adds	r3, r3, #1
 460 00f6 1A70     		strb	r2, [r3]
1330:Generated_Source\PSoC5/ADC.c ****             ADC_DEC_OCORM_REG   = ADC_CFG2_DEC_OCORM;
 461              		.loc 1 1330 0
 462 00f8 0233     		adds	r3, r3, #2
 463 00fa 1D70     		strb	r5, [r3]
1331:Generated_Source\PSoC5/ADC.c ****             ADC_DEC_OCORH_REG   = ADC_CFG2_DEC_OCORH;
 464              		.loc 1 1331 0
 465 00fc 0133     		adds	r3, r3, #1
 466 00fe 1D70     		strb	r5, [r3]
1332:Generated_Source\PSoC5/ADC.c ****             ADC_DEC_COHER_REG   = ADC_CFG2_DEC_COHER;
 467              		.loc 1 1332 0
 468 0100 0133     		adds	r3, r3, #1
 469 0102 1D70     		strb	r5, [r3]
1333:Generated_Source\PSoC5/ADC.c **** 
 470              		.loc 1 1333 0
 471 0104 0126     		movs	r6, #1
 472 0106 0A33     		adds	r3, r3, #10
 473 0108 1E70     		strb	r6, [r3]
1335:Generated_Source\PSoC5/ADC.c ****             ADC_DSM_CR5_REG     = ADC_CFG2_DSM_CR5;
 474              		.loc 1 1335 0
 475 010a 5022     		movs	r2, #80
 476 010c 03F52763 		add	r3, r3, #2672
 477 0110 1A70     		strb	r2, [r3]
1336:Generated_Source\PSoC5/ADC.c ****             ADC_DSM_CR6_REG     = ADC_CFG2_DSM_CR6;
 478              		.loc 1 1336 0
 479 0112 2722     		movs	r2, #39
 480 0114 0133     		adds	r3, r3, #1
 481 0116 1A70     		strb	r2, [r3]
1337:Generated_Source\PSoC5/ADC.c ****             ADC_DSM_CR7_REG     = ADC_CFG2_DSM_CR7;
 482              		.loc 1 1337 0
ARM GAS  C:\Users\User\AppData\Local\Temp\ccDgUeH4.s 			page 41


 483 0118 2C22     		movs	r2, #44
 484 011a 0133     		adds	r3, r3, #1
 485 011c 1A70     		strb	r2, [r3]
1338:Generated_Source\PSoC5/ADC.c ****             ADC_DSM_CR10_REG    = ADC_CFG2_DSM_CR10;
 486              		.loc 1 1338 0
 487 011e 0133     		adds	r3, r3, #1
 488 0120 1D70     		strb	r5, [r3]
1339:Generated_Source\PSoC5/ADC.c ****             ADC_DSM_CR11_REG    = ADC_CFG2_DSM_CR11;
 489              		.loc 1 1339 0
 490 0122 5522     		movs	r2, #85
 491 0124 0333     		adds	r3, r3, #3
 492 0126 1A70     		strb	r2, [r3]
1340:Generated_Source\PSoC5/ADC.c ****             ADC_DSM_CR12_REG    = ADC_CFG2_DSM_CR12;
 493              		.loc 1 1340 0
 494 0128 5A22     		movs	r2, #90
 495 012a 0133     		adds	r3, r3, #1
 496 012c 1A70     		strb	r2, [r3]
1341:Generated_Source\PSoC5/ADC.c ****             ADC_DSM_CR14_REG    = ADC_CFG2_DSM_CR14;
 497              		.loc 1 1341 0
 498 012e 0527     		movs	r7, #5
 499 0130 0133     		adds	r3, r3, #1
 500 0132 1F70     		strb	r7, [r3]
1342:Generated_Source\PSoC5/ADC.c ****             ADC_DSM_CR15_REG    = ADC_CFG2_DSM_CR15;
 501              		.loc 1 1342 0
 502 0134 0233     		adds	r3, r3, #2
 503 0136 1E70     		strb	r6, [r3]
1343:Generated_Source\PSoC5/ADC.c ****             ADC_DSM_CR16_REG    = ADC_CFG2_DSM_CR16;
 504              		.loc 1 1343 0
 505 0138 1122     		movs	r2, #17
 506 013a 0133     		adds	r3, r3, #1
 507 013c 1A70     		strb	r2, [r3]
1344:Generated_Source\PSoC5/ADC.c ****             ADC_DSM_CR17_REG    = ADC_CFG2_DSM_CR17;
 508              		.loc 1 1344 0
 509 013e 1922     		movs	r2, #25
 510 0140 0133     		adds	r3, r3, #1
 511 0142 1A70     		strb	r2, [r3]
1345:Generated_Source\PSoC5/ADC.c ****             /* Set DSM_REF0_REG by disabling and enabling the PRESS cirucit */
 512              		.loc 1 1345 0
 513 0144 9722     		movs	r2, #151
 514 0146 0133     		adds	r3, r3, #1
 515 0148 1A70     		strb	r2, [r3]
1347:Generated_Source\PSoC5/ADC.c ****             ADC_DSM_REF2_REG    = ADC_CFG2_DSM_REF2;
 516              		.loc 1 1347 0
 517 014a 4420     		movs	r0, #68
 518 014c FFF7FEFF 		bl	ADC_SetDSMRef0Reg
 519              	.LVL48:
1348:Generated_Source\PSoC5/ADC.c ****             ADC_DSM_REF3_REG    = ADC_CFG2_DSM_REF3;
 520              		.loc 1 1348 0
 521 0150 5822     		movs	r2, #88
 522 0152 734B     		ldr	r3, .L30+8
 523 0154 1A70     		strb	r2, [r3]
1349:Generated_Source\PSoC5/ADC.c **** 
 524              		.loc 1 1349 0
 525 0156 0133     		adds	r3, r3, #1
 526 0158 1D70     		strb	r5, [r3]
1351:Generated_Source\PSoC5/ADC.c ****             ADC_DSM_BUF1_REG    = ADC_CFG2_DSM_BUF1;
 527              		.loc 1 1351 0
ARM GAS  C:\Users\User\AppData\Local\Temp\ccDgUeH4.s 			page 42


 528 015a 0533     		adds	r3, r3, #5
 529 015c 1F70     		strb	r7, [r3]
1352:Generated_Source\PSoC5/ADC.c ****             ADC_DSM_BUF2_REG    = ADC_CFG2_DSM_BUF2;
 530              		.loc 1 1352 0
 531 015e 0222     		movs	r2, #2
 532 0160 0133     		adds	r3, r3, #1
 533 0162 1A70     		strb	r2, [r3]
1353:Generated_Source\PSoC5/ADC.c ****             ADC_DSM_BUF3_REG    = ADC_CFG2_DSM_BUF3;
 534              		.loc 1 1353 0
 535 0164 0133     		adds	r3, r3, #1
 536 0166 1D70     		strb	r5, [r3]
1354:Generated_Source\PSoC5/ADC.c **** 
 537              		.loc 1 1354 0
 538 0168 0133     		adds	r3, r3, #1
 539 016a 1D70     		strb	r5, [r3]
1364:Generated_Source\PSoC5/ADC.c ****                 #endif /* ADC_IR_VSSA_TO_2VREF) */
 540              		.loc 1 1364 0
 541 016c 2846     		mov	r0, r5
 542 016e FFF7FEFF 		bl	ADC_AMux_Select
 543              	.LVL49:
1376:Generated_Source\PSoC5/ADC.c **** 
 544              		.loc 1 1376 0
 545 0172 4FF47A42 		mov	r2, #64000
 546 0176 6B4B     		ldr	r3, .L30+12
 547 0178 1A60     		str	r2, [r3]
1378:Generated_Source\PSoC5/ADC.c **** 
 548              		.loc 1 1378 0
 549 017a 3146     		mov	r1, r6
 550 017c 3846     		mov	r0, r7
 551 017e FFF7FEFF 		bl	ADC_Ext_CP_Clk_SetDividerRegister
 552              	.LVL50:
1382:Generated_Source\PSoC5/ADC.c ****             #endif /* ADC_DEFAULT_INTERNAL_CLK */
 553              		.loc 1 1382 0
 554 0182 3146     		mov	r1, r6
 555 0184 2520     		movs	r0, #37
 556 0186 FFF7FEFF 		bl	ADC_theACLK_SetDividerRegister
 557              	.LVL51:
1387:Generated_Source\PSoC5/ADC.c ****             #endif   /* End ADC_IRQ_REMOVE */
 558              		.loc 1 1387 0
 559 018a 6849     		ldr	r1, .L30+20
 560 018c 1D20     		movs	r0, #29
 561 018e FFF7FEFF 		bl	CyIntSetVector
 562              	.LVL52:
 563              	.L26:
1393:Generated_Source\PSoC5/ADC.c ****         {
 564              		.loc 1 1393 0
 565 0192 032C     		cmp	r4, #3
 566 0194 5DD1     		bne	.L27
1396:Generated_Source\PSoC5/ADC.c ****             ADC_DEC_SHIFT1_REG  = ADC_CFG3_DEC_SHIFT1;
 567              		.loc 1 1396 0
 568 0196 3822     		movs	r2, #56
 569 0198 604B     		ldr	r3, .L30+4
 570 019a 1A70     		strb	r2, [r3]
1397:Generated_Source\PSoC5/ADC.c ****             ADC_DEC_SHIFT2_REG  = ADC_CFG3_DEC_SHIFT2;
 571              		.loc 1 1397 0
 572 019c 0422     		movs	r2, #4
 573 019e 0233     		adds	r3, r3, #2
ARM GAS  C:\Users\User\AppData\Local\Temp\ccDgUeH4.s 			page 43


 574 01a0 1A70     		strb	r2, [r3]
1398:Generated_Source\PSoC5/ADC.c ****             ADC_DEC_DR2_REG     = ADC_CFG3_DEC_DR2;
 575              		.loc 1 1398 0
 576 01a2 0622     		movs	r2, #6
 577 01a4 0133     		adds	r3, r3, #1
 578 01a6 1A70     		strb	r2, [r3]
1399:Generated_Source\PSoC5/ADC.c ****             ADC_DEC_DR2H_REG    = ADC_CFG3_DEC_DR2H;
 579              		.loc 1 1399 0
 580 01a8 0025     		movs	r5, #0
 581 01aa 0133     		adds	r3, r3, #1
 582 01ac 1D70     		strb	r5, [r3]
1400:Generated_Source\PSoC5/ADC.c ****             ADC_DEC_DR1_REG     = ADC_CFG3_DEC_DR1;
 583              		.loc 1 1400 0
 584 01ae 0133     		adds	r3, r3, #1
 585 01b0 1D70     		strb	r5, [r3]
1401:Generated_Source\PSoC5/ADC.c ****             ADC_DEC_OCOR_REG    = ADC_CFG3_DEC_OCOR;
 586              		.loc 1 1401 0
 587 01b2 3F22     		movs	r2, #63
 588 01b4 0133     		adds	r3, r3, #1
 589 01b6 1A70     		strb	r2, [r3]
1402:Generated_Source\PSoC5/ADC.c ****             ADC_DEC_OCORM_REG   = ADC_CFG3_DEC_OCORM;
 590              		.loc 1 1402 0
 591 01b8 0233     		adds	r3, r3, #2
 592 01ba 1D70     		strb	r5, [r3]
1403:Generated_Source\PSoC5/ADC.c ****             ADC_DEC_OCORH_REG   = ADC_CFG3_DEC_OCORH;
 593              		.loc 1 1403 0
 594 01bc 0133     		adds	r3, r3, #1
 595 01be 1D70     		strb	r5, [r3]
1404:Generated_Source\PSoC5/ADC.c ****             ADC_DEC_COHER_REG   = ADC_CFG3_DEC_COHER;
 596              		.loc 1 1404 0
 597 01c0 0133     		adds	r3, r3, #1
 598 01c2 1D70     		strb	r5, [r3]
1405:Generated_Source\PSoC5/ADC.c **** 
 599              		.loc 1 1405 0
 600 01c4 0126     		movs	r6, #1
 601 01c6 0A33     		adds	r3, r3, #10
 602 01c8 1E70     		strb	r6, [r3]
1407:Generated_Source\PSoC5/ADC.c ****             ADC_DSM_CR5_REG     = ADC_CFG3_DSM_CR5;
 603              		.loc 1 1407 0
 604 01ca 5022     		movs	r2, #80
 605 01cc 03F52763 		add	r3, r3, #2672
 606 01d0 1A70     		strb	r2, [r3]
1408:Generated_Source\PSoC5/ADC.c ****             ADC_DSM_CR6_REG     = ADC_CFG3_DSM_CR6;
 607              		.loc 1 1408 0
 608 01d2 2722     		movs	r2, #39
 609 01d4 0133     		adds	r3, r3, #1
 610 01d6 1A70     		strb	r2, [r3]
1409:Generated_Source\PSoC5/ADC.c ****             ADC_DSM_CR7_REG     = ADC_CFG3_DSM_CR7;
 611              		.loc 1 1409 0
 612 01d8 2C22     		movs	r2, #44
 613 01da 0133     		adds	r3, r3, #1
 614 01dc 1A70     		strb	r2, [r3]
1410:Generated_Source\PSoC5/ADC.c ****             ADC_DSM_CR10_REG    = ADC_CFG3_DSM_CR10;
 615              		.loc 1 1410 0
 616 01de 0133     		adds	r3, r3, #1
 617 01e0 1D70     		strb	r5, [r3]
1411:Generated_Source\PSoC5/ADC.c ****             ADC_DSM_CR11_REG    = ADC_CFG3_DSM_CR11;
ARM GAS  C:\Users\User\AppData\Local\Temp\ccDgUeH4.s 			page 44


 618              		.loc 1 1411 0
 619 01e2 5522     		movs	r2, #85
 620 01e4 0333     		adds	r3, r3, #3
 621 01e6 1A70     		strb	r2, [r3]
1412:Generated_Source\PSoC5/ADC.c ****             ADC_DSM_CR12_REG    = ADC_CFG3_DSM_CR12;
 622              		.loc 1 1412 0
 623 01e8 5A22     		movs	r2, #90
 624 01ea 0133     		adds	r3, r3, #1
 625 01ec 1A70     		strb	r2, [r3]
1413:Generated_Source\PSoC5/ADC.c ****             ADC_DSM_CR14_REG    = ADC_CFG3_DSM_CR14;
 626              		.loc 1 1413 0
 627 01ee 0527     		movs	r7, #5
 628 01f0 0133     		adds	r3, r3, #1
 629 01f2 1F70     		strb	r7, [r3]
1414:Generated_Source\PSoC5/ADC.c ****             ADC_DSM_CR15_REG    = ADC_CFG3_DSM_CR15;
 630              		.loc 1 1414 0
 631 01f4 0233     		adds	r3, r3, #2
 632 01f6 1E70     		strb	r6, [r3]
1415:Generated_Source\PSoC5/ADC.c ****             ADC_DSM_CR16_REG    = ADC_CFG3_DSM_CR16;
 633              		.loc 1 1415 0
 634 01f8 1122     		movs	r2, #17
 635 01fa 0133     		adds	r3, r3, #1
 636 01fc 1A70     		strb	r2, [r3]
1416:Generated_Source\PSoC5/ADC.c ****             ADC_DSM_CR17_REG    = ADC_CFG3_DSM_CR17;
 637              		.loc 1 1416 0
 638 01fe 1922     		movs	r2, #25
 639 0200 0133     		adds	r3, r3, #1
 640 0202 1A70     		strb	r2, [r3]
1417:Generated_Source\PSoC5/ADC.c ****             /* Set DSM_REF0_REG by disabling and enabling the PRESS circuit */
 641              		.loc 1 1417 0
 642 0204 9722     		movs	r2, #151
 643 0206 0133     		adds	r3, r3, #1
 644 0208 1A70     		strb	r2, [r3]
1419:Generated_Source\PSoC5/ADC.c ****             ADC_DSM_REF2_REG    = ADC_CFG3_DSM_REF2;
 645              		.loc 1 1419 0
 646 020a 4420     		movs	r0, #68
 647 020c FFF7FEFF 		bl	ADC_SetDSMRef0Reg
 648              	.LVL53:
1420:Generated_Source\PSoC5/ADC.c ****             ADC_DSM_REF3_REG    = ADC_CFG3_DSM_REF3;
 649              		.loc 1 1420 0
 650 0210 5822     		movs	r2, #88
 651 0212 434B     		ldr	r3, .L30+8
 652 0214 1A70     		strb	r2, [r3]
1421:Generated_Source\PSoC5/ADC.c **** 
 653              		.loc 1 1421 0
 654 0216 0133     		adds	r3, r3, #1
 655 0218 1D70     		strb	r5, [r3]
1423:Generated_Source\PSoC5/ADC.c ****             ADC_DSM_BUF1_REG    = ADC_CFG3_DSM_BUF1;
 656              		.loc 1 1423 0
 657 021a 0533     		adds	r3, r3, #5
 658 021c 1F70     		strb	r7, [r3]
1424:Generated_Source\PSoC5/ADC.c ****             ADC_DSM_BUF2_REG    = ADC_CFG3_DSM_BUF2;
 659              		.loc 1 1424 0
 660 021e 0222     		movs	r2, #2
 661 0220 0133     		adds	r3, r3, #1
 662 0222 1A70     		strb	r2, [r3]
1425:Generated_Source\PSoC5/ADC.c ****             ADC_DSM_BUF3_REG    = ADC_CFG3_DSM_BUF3;
ARM GAS  C:\Users\User\AppData\Local\Temp\ccDgUeH4.s 			page 45


 663              		.loc 1 1425 0
 664 0224 0133     		adds	r3, r3, #1
 665 0226 1D70     		strb	r5, [r3]
1426:Generated_Source\PSoC5/ADC.c **** 
 666              		.loc 1 1426 0
 667 0228 0133     		adds	r3, r3, #1
 668 022a 1D70     		strb	r5, [r3]
1435:Generated_Source\PSoC5/ADC.c ****                 #endif /* ADC_IR_VSSA_TO_2VREF) */
 669              		.loc 1 1435 0
 670 022c 2846     		mov	r0, r5
 671 022e FFF7FEFF 		bl	ADC_AMux_Select
 672              	.LVL54:
1446:Generated_Source\PSoC5/ADC.c **** 
 673              		.loc 1 1446 0
 674 0232 4FF47A42 		mov	r2, #64000
 675 0236 3B4B     		ldr	r3, .L30+12
 676 0238 1A60     		str	r2, [r3]
1448:Generated_Source\PSoC5/ADC.c **** 
 677              		.loc 1 1448 0
 678 023a 3146     		mov	r1, r6
 679 023c 3846     		mov	r0, r7
 680 023e FFF7FEFF 		bl	ADC_Ext_CP_Clk_SetDividerRegister
 681              	.LVL55:
1452:Generated_Source\PSoC5/ADC.c ****             #endif /* ADC_DEFAULT_INTERNAL_CLK */
 682              		.loc 1 1452 0
 683 0242 3146     		mov	r1, r6
 684 0244 2520     		movs	r0, #37
 685 0246 FFF7FEFF 		bl	ADC_theACLK_SetDividerRegister
 686              	.LVL56:
1457:Generated_Source\PSoC5/ADC.c ****             #endif   /* End ADC_IRQ_REMOVE */
 687              		.loc 1 1457 0
 688 024a 3949     		ldr	r1, .L30+24
 689 024c 1D20     		movs	r0, #29
 690 024e FFF7FEFF 		bl	CyIntSetVector
 691              	.LVL57:
 692              	.L27:
1463:Generated_Source\PSoC5/ADC.c ****         {
 693              		.loc 1 1463 0
 694 0252 042C     		cmp	r4, #4
 695 0254 5DD1     		bne	.L24
1466:Generated_Source\PSoC5/ADC.c ****             ADC_DEC_SHIFT1_REG  = ADC_CFG4_DEC_SHIFT1;
 696              		.loc 1 1466 0
 697 0256 3822     		movs	r2, #56
 698 0258 304B     		ldr	r3, .L30+4
 699 025a 1A70     		strb	r2, [r3]
1467:Generated_Source\PSoC5/ADC.c ****             ADC_DEC_SHIFT2_REG  = ADC_CFG4_DEC_SHIFT2;
 700              		.loc 1 1467 0
 701 025c 0422     		movs	r2, #4
 702 025e 0233     		adds	r3, r3, #2
 703 0260 1A70     		strb	r2, [r3]
1468:Generated_Source\PSoC5/ADC.c ****             ADC_DEC_DR2_REG     = ADC_CFG4_DEC_DR2;
 704              		.loc 1 1468 0
 705 0262 0622     		movs	r2, #6
 706 0264 0133     		adds	r3, r3, #1
 707 0266 1A70     		strb	r2, [r3]
1469:Generated_Source\PSoC5/ADC.c ****             ADC_DEC_DR2H_REG    = ADC_CFG4_DEC_DR2H;
 708              		.loc 1 1469 0
ARM GAS  C:\Users\User\AppData\Local\Temp\ccDgUeH4.s 			page 46


 709 0268 0024     		movs	r4, #0
 710 026a 0133     		adds	r3, r3, #1
 711 026c 1C70     		strb	r4, [r3]
1470:Generated_Source\PSoC5/ADC.c ****             ADC_DEC_DR1_REG     = ADC_CFG4_DEC_DR1;
 712              		.loc 1 1470 0
 713 026e 0133     		adds	r3, r3, #1
 714 0270 1C70     		strb	r4, [r3]
1471:Generated_Source\PSoC5/ADC.c ****             ADC_DEC_OCOR_REG    = ADC_CFG4_DEC_OCOR;
 715              		.loc 1 1471 0
 716 0272 3F22     		movs	r2, #63
 717 0274 0133     		adds	r3, r3, #1
 718 0276 1A70     		strb	r2, [r3]
1472:Generated_Source\PSoC5/ADC.c ****             ADC_DEC_OCORM_REG   = ADC_CFG4_DEC_OCORM;
 719              		.loc 1 1472 0
 720 0278 0233     		adds	r3, r3, #2
 721 027a 1C70     		strb	r4, [r3]
1473:Generated_Source\PSoC5/ADC.c ****             ADC_DEC_OCORH_REG   = ADC_CFG4_DEC_OCORH;
 722              		.loc 1 1473 0
 723 027c 0133     		adds	r3, r3, #1
 724 027e 1C70     		strb	r4, [r3]
1474:Generated_Source\PSoC5/ADC.c ****             ADC_DEC_COHER_REG   = ADC_CFG4_DEC_COHER;
 725              		.loc 1 1474 0
 726 0280 0133     		adds	r3, r3, #1
 727 0282 1C70     		strb	r4, [r3]
1475:Generated_Source\PSoC5/ADC.c **** 
 728              		.loc 1 1475 0
 729 0284 0125     		movs	r5, #1
 730 0286 0A33     		adds	r3, r3, #10
 731 0288 1D70     		strb	r5, [r3]
1477:Generated_Source\PSoC5/ADC.c ****             ADC_DSM_CR5_REG     = ADC_CFG4_DSM_CR5;
 732              		.loc 1 1477 0
 733 028a 5022     		movs	r2, #80
 734 028c 03F52763 		add	r3, r3, #2672
 735 0290 1A70     		strb	r2, [r3]
1478:Generated_Source\PSoC5/ADC.c ****             ADC_DSM_CR6_REG     = ADC_CFG4_DSM_CR6;
 736              		.loc 1 1478 0
 737 0292 2722     		movs	r2, #39
 738 0294 0133     		adds	r3, r3, #1
 739 0296 1A70     		strb	r2, [r3]
1479:Generated_Source\PSoC5/ADC.c ****             ADC_DSM_CR7_REG     = ADC_CFG4_DSM_CR7;
 740              		.loc 1 1479 0
 741 0298 2C22     		movs	r2, #44
 742 029a 0133     		adds	r3, r3, #1
 743 029c 1A70     		strb	r2, [r3]
1480:Generated_Source\PSoC5/ADC.c ****             ADC_DSM_CR10_REG    = ADC_CFG4_DSM_CR10;
 744              		.loc 1 1480 0
 745 029e 0133     		adds	r3, r3, #1
 746 02a0 1C70     		strb	r4, [r3]
1481:Generated_Source\PSoC5/ADC.c ****             ADC_DSM_CR11_REG    = ADC_CFG4_DSM_CR11;
 747              		.loc 1 1481 0
 748 02a2 5522     		movs	r2, #85
 749 02a4 0333     		adds	r3, r3, #3
 750 02a6 1A70     		strb	r2, [r3]
1482:Generated_Source\PSoC5/ADC.c ****             ADC_DSM_CR12_REG    = ADC_CFG4_DSM_CR12;
 751              		.loc 1 1482 0
 752 02a8 5A22     		movs	r2, #90
 753 02aa 0133     		adds	r3, r3, #1
ARM GAS  C:\Users\User\AppData\Local\Temp\ccDgUeH4.s 			page 47


 754 02ac 1A70     		strb	r2, [r3]
1483:Generated_Source\PSoC5/ADC.c ****             ADC_DSM_CR14_REG    = ADC_CFG4_DSM_CR14;
 755              		.loc 1 1483 0
 756 02ae 0526     		movs	r6, #5
 757 02b0 0133     		adds	r3, r3, #1
 758 02b2 1E70     		strb	r6, [r3]
1484:Generated_Source\PSoC5/ADC.c ****             ADC_DSM_CR15_REG    = ADC_CFG4_DSM_CR15;
 759              		.loc 1 1484 0
 760 02b4 0233     		adds	r3, r3, #2
 761 02b6 1D70     		strb	r5, [r3]
1485:Generated_Source\PSoC5/ADC.c ****             ADC_DSM_CR16_REG    = ADC_CFG4_DSM_CR16;
 762              		.loc 1 1485 0
 763 02b8 1122     		movs	r2, #17
 764 02ba 0133     		adds	r3, r3, #1
 765 02bc 1A70     		strb	r2, [r3]
1486:Generated_Source\PSoC5/ADC.c ****             ADC_DSM_CR17_REG    = ADC_CFG4_DSM_CR17;
 766              		.loc 1 1486 0
 767 02be 1922     		movs	r2, #25
 768 02c0 0133     		adds	r3, r3, #1
 769 02c2 1A70     		strb	r2, [r3]
1487:Generated_Source\PSoC5/ADC.c ****             /* Set DSM_REF0_REG by disabling and enabling the PRESS circuit */
 770              		.loc 1 1487 0
 771 02c4 9722     		movs	r2, #151
 772 02c6 0133     		adds	r3, r3, #1
 773 02c8 1A70     		strb	r2, [r3]
1489:Generated_Source\PSoC5/ADC.c ****             ADC_DSM_REF2_REG    = ADC_CFG4_DSM_REF2;
 774              		.loc 1 1489 0
 775 02ca 4420     		movs	r0, #68
 776 02cc FFF7FEFF 		bl	ADC_SetDSMRef0Reg
 777              	.LVL58:
1490:Generated_Source\PSoC5/ADC.c ****             ADC_DSM_REF3_REG    = ADC_CFG4_DSM_REF3;
 778              		.loc 1 1490 0
 779 02d0 5822     		movs	r2, #88
 780 02d2 134B     		ldr	r3, .L30+8
 781 02d4 1A70     		strb	r2, [r3]
1491:Generated_Source\PSoC5/ADC.c **** 
 782              		.loc 1 1491 0
 783 02d6 0133     		adds	r3, r3, #1
 784 02d8 1C70     		strb	r4, [r3]
1493:Generated_Source\PSoC5/ADC.c ****             ADC_DSM_BUF1_REG    = ADC_CFG4_DSM_BUF1;
 785              		.loc 1 1493 0
 786 02da 0533     		adds	r3, r3, #5
 787 02dc 1E70     		strb	r6, [r3]
1494:Generated_Source\PSoC5/ADC.c ****             ADC_DSM_BUF2_REG    = ADC_CFG4_DSM_BUF2;
 788              		.loc 1 1494 0
 789 02de 0222     		movs	r2, #2
 790 02e0 0133     		adds	r3, r3, #1
 791 02e2 1A70     		strb	r2, [r3]
1495:Generated_Source\PSoC5/ADC.c ****             ADC_DSM_BUF3_REG    = ADC_CFG4_DSM_BUF3;
 792              		.loc 1 1495 0
 793 02e4 0133     		adds	r3, r3, #1
 794 02e6 1C70     		strb	r4, [r3]
1496:Generated_Source\PSoC5/ADC.c **** 
 795              		.loc 1 1496 0
 796 02e8 0133     		adds	r3, r3, #1
 797 02ea 1C70     		strb	r4, [r3]
1505:Generated_Source\PSoC5/ADC.c ****                 #endif /* ADC_IR_VSSA_TO_2VREF) */
ARM GAS  C:\Users\User\AppData\Local\Temp\ccDgUeH4.s 			page 48


 798              		.loc 1 1505 0
 799 02ec 2046     		mov	r0, r4
 800 02ee FFF7FEFF 		bl	ADC_AMux_Select
 801              	.LVL59:
1516:Generated_Source\PSoC5/ADC.c **** 
 802              		.loc 1 1516 0
 803 02f2 4FF47A42 		mov	r2, #64000
 804 02f6 0B4B     		ldr	r3, .L30+12
 805 02f8 1A60     		str	r2, [r3]
1518:Generated_Source\PSoC5/ADC.c **** 
 806              		.loc 1 1518 0
 807 02fa 2946     		mov	r1, r5
 808 02fc 3046     		mov	r0, r6
 809 02fe FFF7FEFF 		bl	ADC_Ext_CP_Clk_SetDividerRegister
 810              	.LVL60:
1522:Generated_Source\PSoC5/ADC.c ****             #endif /* ADC_DEFAULT_INTERNAL_CLK */
 811              		.loc 1 1522 0
 812 0302 2946     		mov	r1, r5
 813 0304 2520     		movs	r0, #37
 814 0306 FFF7FEFF 		bl	ADC_theACLK_SetDividerRegister
 815              	.LVL61:
1527:Generated_Source\PSoC5/ADC.c ****             #endif   /* End ADC_IRQ_REMOVE */
 816              		.loc 1 1527 0
 817 030a 0A49     		ldr	r1, .L30+28
 818 030c 1D20     		movs	r0, #29
 819 030e FFF7FEFF 		bl	CyIntSetVector
 820              	.LVL62:
 821              	.L24:
 822 0312 BDE8F081 		pop	{r4, r5, r6, r7, r8, pc}
 823              	.L31:
 824 0316 00BF     		.align	2
 825              	.L30:
 826 0318 00000000 		.word	.LANCHOR0
 827 031c 004E0040 		.word	1073761792
 828 0320 94580040 		.word	1073764500
 829 0324 00000000 		.word	ADC_CountsPerVolt
 830 0328 00000000 		.word	ADC_ISR1
 831 032c 00000000 		.word	ADC_ISR2
 832 0330 00000000 		.word	ADC_ISR3
 833 0334 00000000 		.word	ADC_ISR4
 834              		.cfi_endproc
 835              	.LFE19:
 836              		.size	ADC_InitConfig, .-ADC_InitConfig
 837              		.section	.text.ADC_Init,"ax",%progbits
 838              		.align	2
 839              		.global	ADC_Init
 840              		.thumb
 841              		.thumb_func
 842              		.type	ADC_Init, %function
 843              	ADC_Init:
 844              	.LFB0:
  92:Generated_Source\PSoC5/ADC.c **** 
 845              		.loc 1 92 0
 846              		.cfi_startproc
 847              		@ args = 0, pretend = 0, frame = 0
 848              		@ frame_needed = 0, uses_anonymous_args = 0
 849 0000 2DE9F041 		push	{r4, r5, r6, r7, r8, lr}
ARM GAS  C:\Users\User\AppData\Local\Temp\ccDgUeH4.s 			page 49


 850              		.cfi_def_cfa_offset 24
 851              		.cfi_offset 4, -24
 852              		.cfi_offset 5, -20
 853              		.cfi_offset 6, -16
 854              		.cfi_offset 7, -12
 855              		.cfi_offset 8, -8
 856              		.cfi_offset 14, -4
 857 0004 82B0     		sub	sp, sp, #8
 858              		.cfi_def_cfa_offset 32
  94:Generated_Source\PSoC5/ADC.c ****     ADC_convDone = 0u;
 859              		.loc 1 94 0
 860 0006 394D     		ldr	r5, .L34
 861 0008 0127     		movs	r7, #1
 862 000a 2F70     		strb	r7, [r5]
  95:Generated_Source\PSoC5/ADC.c **** 
 863              		.loc 1 95 0
 864 000c 384E     		ldr	r6, .L34+4
 865 000e 0024     		movs	r4, #0
 866 0010 7474     		strb	r4, [r6, #17]
  97:Generated_Source\PSoC5/ADC.c **** 
 867              		.loc 1 97 0
 868 0012 1020     		movs	r0, #16
 869 0014 FFF7FEFF 		bl	ADC_Ext_CP_Clk_SetModeRegister
 870              	.LVL63:
 101:Generated_Source\PSoC5/ADC.c ****     #endif /* ADC_DEFAULT_INTERNAL_CLK */
 871              		.loc 1 101 0
 872 0018 1020     		movs	r0, #16
 873 001a FFF7FEFF 		bl	ADC_theACLK_SetModeRegister
 874              	.LVL64:
 106:Generated_Source\PSoC5/ADC.c ****     #endif   /* End ADC_IRQ_REMOVE */
 875              		.loc 1 106 0
 876 001e 0721     		movs	r1, #7
 877 0020 1D20     		movs	r0, #29
 878 0022 FFF7FEFF 		bl	CyIntSetPriority
 879              	.LVL65:
 110:Generated_Source\PSoC5/ADC.c ****     ADC_DSM_DEM1_REG    = ADC_CFG1_DSM_DEM1;
 880              		.loc 1 110 0
 881 0026 4FF00408 		mov	r8, #4
 882 002a 324B     		ldr	r3, .L34+8
 883 002c 83F80080 		strb	r8, [r3]
 111:Generated_Source\PSoC5/ADC.c ****     ADC_DSM_MISC_REG    = ADC_CFG1_DSM_MISC;
 884              		.loc 1 111 0
 885 0030 0133     		adds	r3, r3, #1
 886 0032 1C70     		strb	r4, [r3]
 112:Generated_Source\PSoC5/ADC.c ****     ADC_DSM_CLK_REG    |= ADC_CFG1_DSM_CLK;
 887              		.loc 1 112 0
 888 0034 0733     		adds	r3, r3, #7
 889 0036 1C70     		strb	r4, [r3]
 113:Generated_Source\PSoC5/ADC.c ****     ADC_DSM_REF1_REG    = ADC_CFG1_DSM_REF1;
 890              		.loc 1 113 0
 891 0038 2F4A     		ldr	r2, .L34+12
 892 003a 1378     		ldrb	r3, [r2]	@ zero_extendqisi2
 893 003c 43F01803 		orr	r3, r3, #24
 894 0040 1370     		strb	r3, [r2]
 114:Generated_Source\PSoC5/ADC.c **** 
 895              		.loc 1 114 0
 896 0042 2E4B     		ldr	r3, .L34+16
ARM GAS  C:\Users\User\AppData\Local\Temp\ccDgUeH4.s 			page 50


 897 0044 1C70     		strb	r4, [r3]
 116:Generated_Source\PSoC5/ADC.c ****     ADC_DSM_OUT1_REG    = ADC_CFG1_DSM_OUT1;
 898              		.loc 1 116 0
 899 0046 03F2F523 		addw	r3, r3, #757
 900 004a 1C70     		strb	r4, [r3]
 117:Generated_Source\PSoC5/ADC.c **** 
 901              		.loc 1 117 0
 902 004c 0133     		adds	r3, r3, #1
 903 004e 1C70     		strb	r4, [r3]
 119:Generated_Source\PSoC5/ADC.c ****     ADC_DSM_CR1_REG     = ADC_CFG1_DSM_CR1;
 904              		.loc 1 119 0
 905 0050 0A22     		movs	r2, #10
 906 0052 A3F20933 		subw	r3, r3, #777
 907 0056 1A70     		strb	r2, [r3]
 120:Generated_Source\PSoC5/ADC.c **** #if(ADC_MI_ENABLE != 0u) /* Enable Modulator Input */
 908              		.loc 1 120 0
 909 0058 0133     		adds	r3, r3, #1
 910 005a 1C70     		strb	r4, [r3]
 124:Generated_Source\PSoC5/ADC.c **** #endif /* ADC_MI_ENABLE != 0u*/    
 911              		.loc 1 124 0
 912 005c 0233     		adds	r3, r3, #2
 913 005e 1C70     		strb	r4, [r3]
 126:Generated_Source\PSoC5/ADC.c ****     ADC_DSM_CR9_REG     = ADC_CFG1_DSM_CR9;
 914              		.loc 1 126 0
 915 0060 5B22     		movs	r2, #91
 916 0062 0533     		adds	r3, r3, #5
 917 0064 1A70     		strb	r2, [r3]
 127:Generated_Source\PSoC5/ADC.c ****     ADC_DSM_CR13_REG    = ADC_CFG1_DSM_CR13;
 918              		.loc 1 127 0
 919 0066 5E22     		movs	r2, #94
 920 0068 0133     		adds	r3, r3, #1
 921 006a 1A70     		strb	r2, [r3]
 128:Generated_Source\PSoC5/ADC.c **** 
 922              		.loc 1 128 0
 923 006c 0433     		adds	r3, r3, #4
 924 006e 1C70     		strb	r4, [r3]
 130:Generated_Source\PSoC5/ADC.c **** 
 925              		.loc 1 130 0
 926 0070 1422     		movs	r2, #20
 927 0072 A3F68C23 		subw	r3, r3, #2700
 928 0076 1A70     		strb	r2, [r3]
 133:Generated_Source\PSoC5/ADC.c ****                                       ADC_CFG1_IDEAL_DEC_GAIN,
 929              		.loc 1 133 0
 930 0078 0097     		str	r7, [sp]
 931 007a 1023     		movs	r3, #16
 932 007c 4FF40042 		mov	r2, #32768
 933 0080 49F2DA01 		movw	r1, #37082
 934 0084 3846     		mov	r0, r7
 935 0086 FFF7FEFF 		bl	ADC_GainCompensation
 936              	.LVL66:
 139:Generated_Source\PSoC5/ADC.c ****                                           ADC_CFG2_IDEAL_DEC_GAIN,
 937              		.loc 1 139 0
 938 008a 0223     		movs	r3, #2
 939 008c 0093     		str	r3, [sp]
 940 008e 1023     		movs	r3, #16
 941 0090 4FF40042 		mov	r2, #32768
 942 0094 49F2DA01 		movw	r1, #37082
ARM GAS  C:\Users\User\AppData\Local\Temp\ccDgUeH4.s 			page 51


 943 0098 2046     		mov	r0, r4
 944 009a FFF7FEFF 		bl	ADC_GainCompensation
 945              	.LVL67:
 146:Generated_Source\PSoC5/ADC.c ****                                           ADC_CFG3_IDEAL_DEC_GAIN,
 946              		.loc 1 146 0
 947 009e 0323     		movs	r3, #3
 948 00a0 0093     		str	r3, [sp]
 949 00a2 1023     		movs	r3, #16
 950 00a4 4FF40042 		mov	r2, #32768
 951 00a8 49F2DA01 		movw	r1, #37082
 952 00ac 2046     		mov	r0, r4
 953 00ae FFF7FEFF 		bl	ADC_GainCompensation
 954              	.LVL68:
 153:Generated_Source\PSoC5/ADC.c ****                                           ADC_CFG4_IDEAL_DEC_GAIN,
 955              		.loc 1 153 0
 956 00b2 CDF80080 		str	r8, [sp]
 957 00b6 1023     		movs	r3, #16
 958 00b8 4FF40042 		mov	r2, #32768
 959 00bc 49F2DA01 		movw	r1, #37082
 960 00c0 2046     		mov	r0, r4
 961 00c2 FFF7FEFF 		bl	ADC_GainCompensation
 962              	.LVL69:
 161:Generated_Source\PSoC5/ADC.c ****     CY_SET_REG16(ADC_DEC_GCOR_16B_PTR, ADC_gcor[ADC_Config - 1u].gcor);
 963              		.loc 1 161 0
 964 00c6 2B78     		ldrb	r3, [r5]	@ zero_extendqisi2
 965 00c8 013B     		subs	r3, r3, #1
 966 00ca 06EB8303 		add	r3, r6, r3, lsl #2
 967 00ce 9A78     		ldrb	r2, [r3, #2]	@ zero_extendqisi2
 968 00d0 0B4B     		ldr	r3, .L34+20
 969 00d2 1A70     		strb	r2, [r3]
 162:Generated_Source\PSoC5/ADC.c **** 
 970              		.loc 1 162 0
 971 00d4 2B78     		ldrb	r3, [r5]	@ zero_extendqisi2
 972 00d6 013B     		subs	r3, r3, #1
 973 00d8 36F82320 		ldrh	r2, [r6, r3, lsl #2]
 974 00dc 094B     		ldr	r3, .L34+24
 975 00de 1A80     		strh	r2, [r3]	@ movhi
 165:Generated_Source\PSoC5/ADC.c **** }
 976              		.loc 1 165 0
 977 00e0 2878     		ldrb	r0, [r5]	@ zero_extendqisi2
 978 00e2 FFF7FEFF 		bl	ADC_InitConfig
 979              	.LVL70:
 166:Generated_Source\PSoC5/ADC.c **** 
 980              		.loc 1 166 0
 981 00e6 02B0     		add	sp, sp, #8
 982              		.cfi_def_cfa_offset 24
 983              		@ sp needed
 984 00e8 BDE8F081 		pop	{r4, r5, r6, r7, r8, pc}
 985              	.L35:
 986              		.align	2
 987              	.L34:
 988 00ec 00000000 		.word	.LANCHOR1
 989 00f0 00000000 		.word	.LANCHOR0
 990 00f4 96580040 		.word	1073764502
 991 00f8 075B0040 		.word	1073765127
 992 00fc 93580040 		.word	1073764499
 993 0100 0E4E0040 		.word	1073761806
ARM GAS  C:\Users\User\AppData\Local\Temp\ccDgUeH4.s 			page 52


 994 0104 0C4E0040 		.word	1073761804
 995              		.cfi_endproc
 996              	.LFE0:
 997              		.size	ADC_Init, .-ADC_Init
 998              		.section	.text.ADC_Enable,"ax",%progbits
 999              		.align	2
 1000              		.global	ADC_Enable
 1001              		.thumb
 1002              		.thumb_func
 1003              		.type	ADC_Enable, %function
 1004              	ADC_Enable:
 1005              	.LFB1:
 187:Generated_Source\PSoC5/ADC.c **** 	uint8 config;
 1006              		.loc 1 187 0
 1007              		.cfi_startproc
 1008              		@ args = 0, pretend = 0, frame = 0
 1009              		@ frame_needed = 0, uses_anonymous_args = 0
 1010 0000 10B5     		push	{r4, lr}
 1011              		.cfi_def_cfa_offset 8
 1012              		.cfi_offset 4, -8
 1013              		.cfi_offset 14, -4
 190:Generated_Source\PSoC5/ADC.c **** 
 1014              		.loc 1 190 0
 1015 0002 FFF7FEFF 		bl	CyEnterCriticalSection
 1016              	.LVL71:
 1017 0006 0446     		mov	r4, r0
 1018              	.LVL72:
 193:Generated_Source\PSoC5/ADC.c ****     
 1019              		.loc 1 193 0
 1020 0008 314B     		ldr	r3, .L39
 1021 000a 1A78     		ldrb	r2, [r3]	@ zero_extendqisi2
 1022 000c D2B2     		uxtb	r2, r2
 1023              	.LVL73:
 196:Generated_Source\PSoC5/ADC.c ****     ADC_PWRMGR_DSM_REG |= ADC_ACT_PWR_DSM_EN;
 1024              		.loc 1 196 0
 1025 000e 314B     		ldr	r3, .L39+4
 1026 0010 1978     		ldrb	r1, [r3]	@ zero_extendqisi2
 1027 0012 41F00101 		orr	r1, r1, #1
 1028 0016 1970     		strb	r1, [r3]
 197:Generated_Source\PSoC5/ADC.c **** 
 1029              		.loc 1 197 0
 1030 0018 1978     		ldrb	r1, [r3]	@ zero_extendqisi2
 1031 001a 41F01001 		orr	r1, r1, #16
 1032 001e 1970     		strb	r1, [r3]
 200:Generated_Source\PSoC5/ADC.c ****     ADC_STBY_PWRMGR_DSM_REG |= ADC_STBY_PWR_DSM_EN;
 1033              		.loc 1 200 0
 1034 0020 1033     		adds	r3, r3, #16
 1035 0022 1978     		ldrb	r1, [r3]	@ zero_extendqisi2
 1036 0024 41F00101 		orr	r1, r1, #1
 1037 0028 1970     		strb	r1, [r3]
 201:Generated_Source\PSoC5/ADC.c **** 
 1038              		.loc 1 201 0
 1039 002a 1978     		ldrb	r1, [r3]	@ zero_extendqisi2
 1040 002c 41F01001 		orr	r1, r1, #16
 1041 0030 1970     		strb	r1, [r3]
 204:Generated_Source\PSoC5/ADC.c ****     ADC_RESET_CR5_REG |= ADC_IGNORE_PRESA2;
 1042              		.loc 1 204 0
ARM GAS  C:\Users\User\AppData\Local\Temp\ccDgUeH4.s 			page 53


 1043 0032 2949     		ldr	r1, .L39+8
 1044 0034 0B78     		ldrb	r3, [r1]	@ zero_extendqisi2
 1045 0036 43F00203 		orr	r3, r3, #2
 1046 003a 0B70     		strb	r3, [r1]
 205:Generated_Source\PSoC5/ADC.c **** 
 1047              		.loc 1 205 0
 1048 003c 0131     		adds	r1, r1, #1
 1049 003e 0B78     		ldrb	r3, [r1]	@ zero_extendqisi2
 1050 0040 43F00203 		orr	r3, r3, #2
 1051 0044 0B70     		strb	r3, [r1]
 207:Generated_Source\PSoC5/ADC.c **** 
 1052              		.loc 1 207 0
 1053 0046 01F58C51 		add	r1, r1, #4480
 1054 004a 1831     		adds	r1, r1, #24
 1055 004c 0B78     		ldrb	r3, [r1]	@ zero_extendqisi2
 1056 004e 43F00303 		orr	r3, r3, #3
 1057 0052 0B70     		strb	r3, [r1]
 246:Generated_Source\PSoC5/ADC.c ****             (ADC_CFG1_INPUT_RANGE == ADC_IR_VSSA_TO_2VREF) &&
 1058              		.loc 1 246 0
 1059 0054 012A     		cmp	r2, #1
 1060 0056 04D1     		bne	.L37
 264:Generated_Source\PSoC5/ADC.c ****         }
 1061              		.loc 1 264 0
 1062 0058 204A     		ldr	r2, .L39+12
 1063              	.LVL74:
 1064 005a 1378     		ldrb	r3, [r2]	@ zero_extendqisi2
 1065 005c 43F00803 		orr	r3, r3, #8
 1066 0060 1370     		strb	r3, [r2]
 1067              	.L37:
 273:Generated_Source\PSoC5/ADC.c **** 
 1068              		.loc 1 273 0
 1069 0062 0320     		movs	r0, #3
 1070 0064 FFF7FEFF 		bl	CyDelayUs
 1071              	.LVL75:
 276:Generated_Source\PSoC5/ADC.c ****     ADC_RESET_CR5_REG &= (uint8)~ADC_IGNORE_PRESA2;
 1072              		.loc 1 276 0
 1073 0068 1B4A     		ldr	r2, .L39+8
 1074 006a 1378     		ldrb	r3, [r2]	@ zero_extendqisi2
 1075 006c 03F0FD03 		and	r3, r3, #253
 1076 0070 1370     		strb	r3, [r2]
 277:Generated_Source\PSoC5/ADC.c **** 
 1077              		.loc 1 277 0
 1078 0072 0132     		adds	r2, r2, #1
 1079 0074 1378     		ldrb	r3, [r2]	@ zero_extendqisi2
 1080 0076 03F0FD03 		and	r3, r3, #253
 1081 007a 1370     		strb	r3, [r2]
 280:Generated_Source\PSoC5/ADC.c **** 
 1082              		.loc 1 280 0
 1083 007c 02F58B52 		add	r2, r2, #4448
 1084 0080 1E32     		adds	r2, r2, #30
 1085 0082 1378     		ldrb	r3, [r2]	@ zero_extendqisi2
 1086 0084 43F00603 		orr	r3, r3, #6
 1087 0088 1370     		strb	r3, [r2]
 283:Generated_Source\PSoC5/ADC.c **** 
 1088              		.loc 1 283 0
 1089 008a 7A22     		movs	r2, #122
 1090 008c 144B     		ldr	r3, .L39+16
ARM GAS  C:\Users\User\AppData\Local\Temp\ccDgUeH4.s 			page 54


 1091 008e 1A70     		strb	r2, [r3]
 287:Generated_Source\PSoC5/ADC.c ****         ADC_STBY_PWRMGR_CLK_REG |= ADC_STBY_PWR_CLK_EN;
 1092              		.loc 1 287 0
 1093 0090 144A     		ldr	r2, .L39+20
 1094 0092 1378     		ldrb	r3, [r2]	@ zero_extendqisi2
 1095 0094 43F00103 		orr	r3, r3, #1
 1096 0098 1370     		strb	r3, [r2]
 288:Generated_Source\PSoC5/ADC.c ****     #endif /* ADC_DEFAULT_INTERNAL_CLK */
 1097              		.loc 1 288 0
 1098 009a 1032     		adds	r2, r2, #16
 1099 009c 1378     		ldrb	r3, [r2]	@ zero_extendqisi2
 1100 009e 43F00103 		orr	r3, r3, #1
 1101 00a2 1370     		strb	r3, [r2]
 292:Generated_Source\PSoC5/ADC.c ****     ADC_STBY_PWRMGR_CHARGE_PUMP_CLK_REG |= ADC_STBY_PWR_CHARGE_PUMP_CLK_EN;
 1102              		.loc 1 292 0
 1103 00a4 0F3A     		subs	r2, r2, #15
 1104 00a6 1378     		ldrb	r3, [r2]	@ zero_extendqisi2
 1105 00a8 43F00103 		orr	r3, r3, #1
 1106 00ac 1370     		strb	r3, [r2]
 293:Generated_Source\PSoC5/ADC.c **** 
 1107              		.loc 1 293 0
 1108 00ae 1032     		adds	r2, r2, #16
 1109 00b0 1378     		ldrb	r3, [r2]	@ zero_extendqisi2
 1110 00b2 43F00103 		orr	r3, r3, #1
 1111 00b6 1370     		strb	r3, [r2]
 297:Generated_Source\PSoC5/ADC.c ****         /* Enable interrupt */
 1112              		.loc 1 297 0
 1113 00b8 4FF00053 		mov	r3, #536870912
 1114 00bc 0A4A     		ldr	r2, .L39+24
 1115 00be 1360     		str	r3, [r2]
 299:Generated_Source\PSoC5/ADC.c ****     #endif   /* End ADC_IRQ_REMOVE */
 1116              		.loc 1 299 0
 1117 00c0 A2F5C072 		sub	r2, r2, #384
 1118 00c4 1360     		str	r3, [r2]
 302:Generated_Source\PSoC5/ADC.c **** 
 1119              		.loc 1 302 0
 1120 00c6 2046     		mov	r0, r4
 1121 00c8 FFF7FEFF 		bl	CyExitCriticalSection
 1122              	.LVL76:
 1123 00cc 10BD     		pop	{r4, pc}
 1124              	.LVL77:
 1125              	.L40:
 1126 00ce 00BF     		.align	2
 1127              	.L39:
 1128 00d0 00000000 		.word	.LANCHOR1
 1129 00d4 AA430040 		.word	1073759146
 1130 00d8 F8460040 		.word	1073759992
 1131 00dc 92580040 		.word	1073764498
 1132 00e0 82580040 		.word	1073764482
 1133 00e4 A1430040 		.word	1073759137
 1134 00e8 80E200E0 		.word	-536812928
 1135              		.cfi_endproc
 1136              	.LFE1:
 1137              		.size	ADC_Enable, .-ADC_Enable
 1138              		.section	.text.ADC_Start,"ax",%progbits
 1139              		.align	2
 1140              		.global	ADC_Start
ARM GAS  C:\Users\User\AppData\Local\Temp\ccDgUeH4.s 			page 55


 1141              		.thumb
 1142              		.thumb_func
 1143              		.type	ADC_Start, %function
 1144              	ADC_Start:
 1145              	.LFB2:
 335:Generated_Source\PSoC5/ADC.c ****     if(ADC_initVar == 0u)
 1146              		.loc 1 335 0
 1147              		.cfi_startproc
 1148              		@ args = 0, pretend = 0, frame = 0
 1149              		@ frame_needed = 0, uses_anonymous_args = 0
 1150 0000 08B5     		push	{r3, lr}
 1151              		.cfi_def_cfa_offset 8
 1152              		.cfi_offset 3, -8
 1153              		.cfi_offset 14, -4
 336:Generated_Source\PSoC5/ADC.c ****     {
 1154              		.loc 1 336 0
 1155 0002 084B     		ldr	r3, .L45
 1156 0004 9B7C     		ldrb	r3, [r3, #18]	@ zero_extendqisi2
 1157 0006 4BB9     		cbnz	r3, .L42
 338:Generated_Source\PSoC5/ADC.c ****         {
 1158              		.loc 1 338 0
 1159 0008 064B     		ldr	r3, .L45
 1160 000a DB7C     		ldrb	r3, [r3, #19]	@ zero_extendqisi2
 1161 000c 13F0FF0F 		tst	r3, #255
 1162 0010 01D1     		bne	.L43
 340:Generated_Source\PSoC5/ADC.c ****         }
 1163              		.loc 1 340 0
 1164 0012 FFF7FEFF 		bl	ADC_Init
 1165              	.LVL78:
 1166              	.L43:
 342:Generated_Source\PSoC5/ADC.c ****     }
 1167              		.loc 1 342 0
 1168 0016 0122     		movs	r2, #1
 1169 0018 024B     		ldr	r3, .L45
 1170 001a 9A74     		strb	r2, [r3, #18]
 1171              	.L42:
 346:Generated_Source\PSoC5/ADC.c **** }
 1172              		.loc 1 346 0
 1173 001c FFF7FEFF 		bl	ADC_Enable
 1174              	.LVL79:
 1175 0020 08BD     		pop	{r3, pc}
 1176              	.L46:
 1177 0022 00BF     		.align	2
 1178              	.L45:
 1179 0024 00000000 		.word	.LANCHOR0
 1180              		.cfi_endproc
 1181              	.LFE2:
 1182              		.size	ADC_Start, .-ADC_Start
 1183              		.section	.text.ADC_Stop,"ax",%progbits
 1184              		.align	2
 1185              		.global	ADC_Stop
 1186              		.thumb
 1187              		.thumb_func
 1188              		.type	ADC_Stop, %function
 1189              	ADC_Stop:
 1190              	.LFB3:
 368:Generated_Source\PSoC5/ADC.c ****     uint8 enableInterrupts;
ARM GAS  C:\Users\User\AppData\Local\Temp\ccDgUeH4.s 			page 56


 1191              		.loc 1 368 0
 1192              		.cfi_startproc
 1193              		@ args = 0, pretend = 0, frame = 0
 1194              		@ frame_needed = 0, uses_anonymous_args = 0
 1195 0000 70B5     		push	{r4, r5, r6, lr}
 1196              		.cfi_def_cfa_offset 16
 1197              		.cfi_offset 4, -16
 1198              		.cfi_offset 5, -12
 1199              		.cfi_offset 6, -8
 1200              		.cfi_offset 14, -4
 370:Generated_Source\PSoC5/ADC.c **** 
 1201              		.loc 1 370 0
 1202 0002 FFF7FEFF 		bl	CyEnterCriticalSection
 1203              	.LVL80:
 1204 0006 0646     		mov	r6, r0
 1205              	.LVL81:
 373:Generated_Source\PSoC5/ADC.c ****     ADC_DEC_SR_REG |=  ADC_DEC_INTR_CLEAR;
 1206              		.loc 1 373 0
 1207 0008 314A     		ldr	r2, .L49
 1208 000a 1378     		ldrb	r3, [r2]	@ zero_extendqisi2
 1209 000c 03F0FE03 		and	r3, r3, #254
 1210 0010 1370     		strb	r3, [r2]
 374:Generated_Source\PSoC5/ADC.c **** 
 1211              		.loc 1 374 0
 1212 0012 0132     		adds	r2, r2, #1
 1213 0014 1378     		ldrb	r3, [r2]	@ zero_extendqisi2
 1214 0016 43F00403 		orr	r3, r3, #4
 1215 001a 1370     		strb	r3, [r2]
 378:Generated_Source\PSoC5/ADC.c ****     ADC_RESET_CR5_REG |= ADC_IGNORE_PRESA2;
 1216              		.loc 1 378 0
 1217 001c 2D4D     		ldr	r5, .L49+4
 1218 001e 2B78     		ldrb	r3, [r5]	@ zero_extendqisi2
 1219 0020 43F00203 		orr	r3, r3, #2
 1220 0024 2B70     		strb	r3, [r5]
 379:Generated_Source\PSoC5/ADC.c **** 
 1221              		.loc 1 379 0
 1222 0026 2C4C     		ldr	r4, .L49+8
 1223 0028 2378     		ldrb	r3, [r4]	@ zero_extendqisi2
 1224 002a 43F00203 		orr	r3, r3, #2
 1225 002e 2370     		strb	r3, [r4]
 381:Generated_Source\PSoC5/ADC.c ****     ADC_DSM_REF0_REG &= (uint8)~ADC_DSM_EN_BUF_VREF_INN;
 1226              		.loc 1 381 0
 1227 0030 02F52962 		add	r2, r2, #2704
 1228 0034 1378     		ldrb	r3, [r2]	@ zero_extendqisi2
 1229 0036 03F0FC03 		and	r3, r3, #252
 1230 003a 1370     		strb	r3, [r2]
 382:Generated_Source\PSoC5/ADC.c **** 
 1231              		.loc 1 382 0
 1232 003c 0132     		adds	r2, r2, #1
 1233 003e 1378     		ldrb	r3, [r2]	@ zero_extendqisi2
 1234 0040 03F0F703 		and	r3, r3, #247
 1235 0044 1370     		strb	r3, [r2]
 385:Generated_Source\PSoC5/ADC.c **** 
 1236              		.loc 1 385 0
 1237 0046 0320     		movs	r0, #3
 1238 0048 FFF7FEFF 		bl	CyDelayUs
 1239              	.LVL82:
ARM GAS  C:\Users\User\AppData\Local\Temp\ccDgUeH4.s 			page 57


 388:Generated_Source\PSoC5/ADC.c ****     ADC_RESET_CR5_REG &= (uint8)~ADC_IGNORE_PRESA2;
 1240              		.loc 1 388 0
 1241 004c 2B78     		ldrb	r3, [r5]	@ zero_extendqisi2
 1242 004e 03F0FD03 		and	r3, r3, #253
 1243 0052 2B70     		strb	r3, [r5]
 389:Generated_Source\PSoC5/ADC.c **** 
 1244              		.loc 1 389 0
 1245 0054 2378     		ldrb	r3, [r4]	@ zero_extendqisi2
 1246 0056 03F0FD03 		and	r3, r3, #253
 1247 005a 2370     		strb	r3, [r4]
 392:Generated_Source\PSoC5/ADC.c **** 
 1248              		.loc 1 392 0
 1249 005c 1F4B     		ldr	r3, .L49+12
 1250 005e 1A78     		ldrb	r2, [r3]	@ zero_extendqisi2
 1251 0060 02F0EF02 		and	r2, r2, #239
 1252 0064 1A70     		strb	r2, [r3]
 395:Generated_Source\PSoC5/ADC.c **** 
 1253              		.loc 1 395 0
 1254 0066 1A78     		ldrb	r2, [r3]	@ zero_extendqisi2
 1255 0068 02F0FE02 		and	r2, r2, #254
 1256 006c 1A70     		strb	r2, [r3]
 398:Generated_Source\PSoC5/ADC.c ****     ADC_STBY_PWRMGR_DSM_REG &= (uint8)~ADC_STBY_PWR_DSM_EN;
 1257              		.loc 1 398 0
 1258 006e 1033     		adds	r3, r3, #16
 1259 0070 1A78     		ldrb	r2, [r3]	@ zero_extendqisi2
 1260 0072 02F0FE02 		and	r2, r2, #254
 1261 0076 1A70     		strb	r2, [r3]
 399:Generated_Source\PSoC5/ADC.c **** 
 1262              		.loc 1 399 0
 1263 0078 1A78     		ldrb	r2, [r3]	@ zero_extendqisi2
 1264 007a 02F0EF02 		and	r2, r2, #239
 1265 007e 1A70     		strb	r2, [r3]
 402:Generated_Source\PSoC5/ADC.c **** 
 1266              		.loc 1 402 0
 1267 0080 174A     		ldr	r2, .L49+16
 1268 0082 1378     		ldrb	r3, [r2]	@ zero_extendqisi2
 1269 0084 03F0F903 		and	r3, r3, #249
 1270 0088 1370     		strb	r3, [r2]
 406:Generated_Source\PSoC5/ADC.c ****         ADC_STBY_PWRMGR_CLK_REG &= (uint8)~ADC_STBY_PWR_CLK_EN;
 1271              		.loc 1 406 0
 1272 008a A2F5A652 		sub	r2, r2, #5312
 1273 008e 163A     		subs	r2, r2, #22
 1274 0090 1378     		ldrb	r3, [r2]	@ zero_extendqisi2
 1275 0092 03F0FE03 		and	r3, r3, #254
 1276 0096 1370     		strb	r3, [r2]
 407:Generated_Source\PSoC5/ADC.c ****     #endif /* ADC_DEFAULT_INTERNAL_CLK */
 1277              		.loc 1 407 0
 1278 0098 1032     		adds	r2, r2, #16
 1279 009a 1378     		ldrb	r3, [r2]	@ zero_extendqisi2
 1280 009c 03F0FE03 		and	r3, r3, #254
 1281 00a0 1370     		strb	r3, [r2]
 411:Generated_Source\PSoC5/ADC.c ****     /* Disable power to charge pump clock */
 1282              		.loc 1 411 0
 1283 00a2 02F5A652 		add	r2, r2, #5312
 1284 00a6 1132     		adds	r2, r2, #17
 1285 00a8 1378     		ldrb	r3, [r2]	@ zero_extendqisi2
 1286 00aa 03F0F703 		and	r3, r3, #247
ARM GAS  C:\Users\User\AppData\Local\Temp\ccDgUeH4.s 			page 58


 1287 00ae 1370     		strb	r3, [r2]
 413:Generated_Source\PSoC5/ADC.c ****     ADC_STBY_PWRMGR_CHARGE_PUMP_CLK_REG &= (uint8)~ADC_STBY_PWR_CHARGE_PUMP_CLK_EN;
 1288              		.loc 1 413 0
 1289 00b0 A2F5A752 		sub	r2, r2, #5344
 1290 00b4 1378     		ldrb	r3, [r2]	@ zero_extendqisi2
 1291 00b6 03F0FE03 		and	r3, r3, #254
 1292 00ba 1370     		strb	r3, [r2]
 414:Generated_Source\PSoC5/ADC.c ****     
 1293              		.loc 1 414 0
 1294 00bc 1032     		adds	r2, r2, #16
 1295 00be 1378     		ldrb	r3, [r2]	@ zero_extendqisi2
 1296 00c0 03F0FE03 		and	r3, r3, #254
 1297 00c4 1370     		strb	r3, [r2]
 416:Generated_Source\PSoC5/ADC.c **** }
 1298              		.loc 1 416 0
 1299 00c6 3046     		mov	r0, r6
 1300 00c8 FFF7FEFF 		bl	CyExitCriticalSection
 1301              	.LVL83:
 1302 00cc 70BD     		pop	{r4, r5, r6, pc}
 1303              	.LVL84:
 1304              	.L50:
