ARM GAS  C:\Users\User\AppData\Local\Temp\ccAaYIaT.s 			page 1


   1              		.syntax unified
   2              		.cpu cortex-m3
   3              		.fpu softvfp
   4              		.eabi_attribute 20, 1
   5              		.eabi_attribute 21, 1
   6              		.eabi_attribute 23, 3
   7              		.eabi_attribute 24, 1
   8              		.eabi_attribute 25, 1
   9              		.eabi_attribute 26, 1
  10              		.eabi_attribute 30, 1
  11              		.eabi_attribute 34, 1
  12              		.eabi_attribute 18, 4
  13              		.thumb
  14              		.syntax unified
  15              		.file	"ADC_PM.c"
  16              		.text
  17              	.Ltext0:
  18              		.cfi_sections	.debug_frame
  19              		.section	.text.ADC_SaveConfig,"ax",%progbits
  20              		.align	2
  21              		.global	ADC_SaveConfig
  22              		.thumb
  23              		.thumb_func
  24              		.type	ADC_SaveConfig, %function
  25              	ADC_SaveConfig:
  26              	.LFB0:
  27              		.file 1 "Generated_Source\\PSoC5\\ADC_PM.c"
   1:Generated_Source\PSoC5/ADC_PM.c **** /*******************************************************************************
   2:Generated_Source\PSoC5/ADC_PM.c **** * File Name: ADC_PM.c
   3:Generated_Source\PSoC5/ADC_PM.c **** * Version 3.30
   4:Generated_Source\PSoC5/ADC_PM.c **** *
   5:Generated_Source\PSoC5/ADC_PM.c **** * Description:
   6:Generated_Source\PSoC5/ADC_PM.c **** *  This file provides the power manager source code to the API for the
   7:Generated_Source\PSoC5/ADC_PM.c **** *  Delta-Sigma ADC Component.
   8:Generated_Source\PSoC5/ADC_PM.c **** *
   9:Generated_Source\PSoC5/ADC_PM.c **** * Note:
  10:Generated_Source\PSoC5/ADC_PM.c **** *
  11:Generated_Source\PSoC5/ADC_PM.c **** ********************************************************************************
  12:Generated_Source\PSoC5/ADC_PM.c **** * Copyright 2008-2017, Cypress Semiconductor Corporation.  All rights reserved.
  13:Generated_Source\PSoC5/ADC_PM.c **** * You may use this file only in accordance with the license, terms, conditions,
  14:Generated_Source\PSoC5/ADC_PM.c **** * disclaimers, and limitations in the end user license agreement accompanying
  15:Generated_Source\PSoC5/ADC_PM.c **** * the software package with which this file was provided.
  16:Generated_Source\PSoC5/ADC_PM.c **** *******************************************************************************/
  17:Generated_Source\PSoC5/ADC_PM.c **** 
  18:Generated_Source\PSoC5/ADC_PM.c **** #include "ADC.h"
  19:Generated_Source\PSoC5/ADC_PM.c **** 
  20:Generated_Source\PSoC5/ADC_PM.c **** static ADC_BACKUP_STRUCT ADC_backup =
  21:Generated_Source\PSoC5/ADC_PM.c **** {
  22:Generated_Source\PSoC5/ADC_PM.c ****     ADC_DISABLED,
  23:Generated_Source\PSoC5/ADC_PM.c ****     ADC_CFG1_DEC_CR
  24:Generated_Source\PSoC5/ADC_PM.c **** };
  25:Generated_Source\PSoC5/ADC_PM.c **** 
  26:Generated_Source\PSoC5/ADC_PM.c **** 
  27:Generated_Source\PSoC5/ADC_PM.c **** /*******************************************************************************
  28:Generated_Source\PSoC5/ADC_PM.c **** * Function Name: ADC_SaveConfig
  29:Generated_Source\PSoC5/ADC_PM.c **** ********************************************************************************
  30:Generated_Source\PSoC5/ADC_PM.c **** *
ARM GAS  C:\Users\User\AppData\Local\Temp\ccAaYIaT.s 			page 2


  31:Generated_Source\PSoC5/ADC_PM.c **** * Summary:
  32:Generated_Source\PSoC5/ADC_PM.c **** *  Save the register configuration which are not retention.
  33:Generated_Source\PSoC5/ADC_PM.c **** *
  34:Generated_Source\PSoC5/ADC_PM.c **** * Parameters:
  35:Generated_Source\PSoC5/ADC_PM.c **** *  None
  36:Generated_Source\PSoC5/ADC_PM.c **** *
  37:Generated_Source\PSoC5/ADC_PM.c **** * Return:
  38:Generated_Source\PSoC5/ADC_PM.c **** *  None
  39:Generated_Source\PSoC5/ADC_PM.c **** *
  40:Generated_Source\PSoC5/ADC_PM.c **** * Global variables:
  41:Generated_Source\PSoC5/ADC_PM.c **** *  ADC_backup:  This global structure variable is used to store
  42:Generated_Source\PSoC5/ADC_PM.c **** *  configuration registers which are non retention whenever user wants to go
  43:Generated_Source\PSoC5/ADC_PM.c **** *  sleep mode by calling Sleep() API.
  44:Generated_Source\PSoC5/ADC_PM.c **** *
  45:Generated_Source\PSoC5/ADC_PM.c **** *******************************************************************************/
  46:Generated_Source\PSoC5/ADC_PM.c **** void ADC_SaveConfig(void) 
  47:Generated_Source\PSoC5/ADC_PM.c **** {
  28              		.loc 1 47 0
  29              		.cfi_startproc
  30              		@ args = 0, pretend = 0, frame = 0
  31              		@ frame_needed = 0, uses_anonymous_args = 0
  32              		@ link register save eliminated.
  48:Generated_Source\PSoC5/ADC_PM.c ****     ADC_backup.deccr = ADC_DEC_CR_REG;
  33              		.loc 1 48 0
  34 0000 024B     		ldr	r3, .L2
  35 0002 1A78     		ldrb	r2, [r3]	@ zero_extendqisi2
  36 0004 024B     		ldr	r3, .L2+4
  37 0006 5A70     		strb	r2, [r3, #1]
  38 0008 7047     		bx	lr
  39              	.L3:
  40 000a 00BF     		.align	2
  41              	.L2:
  42 000c 004E0040 		.word	1073761792
  43 0010 00000000 		.word	.LANCHOR0
  44              		.cfi_endproc
  45              	.LFE0:
  46              		.size	ADC_SaveConfig, .-ADC_SaveConfig
  47              		.section	.text.ADC_RestoreConfig,"ax",%progbits
  48              		.align	2
  49              		.global	ADC_RestoreConfig
  50              		.thumb
  51              		.thumb_func
  52              		.type	ADC_RestoreConfig, %function
  53              	ADC_RestoreConfig:
  54              	.LFB1:
  49:Generated_Source\PSoC5/ADC_PM.c **** }
  50:Generated_Source\PSoC5/ADC_PM.c **** 
  51:Generated_Source\PSoC5/ADC_PM.c **** 
  52:Generated_Source\PSoC5/ADC_PM.c **** /*******************************************************************************
  53:Generated_Source\PSoC5/ADC_PM.c **** * Function Name: ADC_RestoreConfig
  54:Generated_Source\PSoC5/ADC_PM.c **** ********************************************************************************
  55:Generated_Source\PSoC5/ADC_PM.c **** *
  56:Generated_Source\PSoC5/ADC_PM.c **** * Summary:
  57:Generated_Source\PSoC5/ADC_PM.c **** *  Restore the register configurations which are not retention.
  58:Generated_Source\PSoC5/ADC_PM.c **** *
  59:Generated_Source\PSoC5/ADC_PM.c **** * Parameters:
  60:Generated_Source\PSoC5/ADC_PM.c **** *  None
ARM GAS  C:\Users\User\AppData\Local\Temp\ccAaYIaT.s 			page 3


  61:Generated_Source\PSoC5/ADC_PM.c **** *
  62:Generated_Source\PSoC5/ADC_PM.c **** * Return:
  63:Generated_Source\PSoC5/ADC_PM.c **** *  None
  64:Generated_Source\PSoC5/ADC_PM.c **** *
  65:Generated_Source\PSoC5/ADC_PM.c **** * Global variables:
  66:Generated_Source\PSoC5/ADC_PM.c **** *  ADC_backup:  This global structure variable is used to restore
  67:Generated_Source\PSoC5/ADC_PM.c **** *  configuration registers which are non retention whenever user wants to switch
  68:Generated_Source\PSoC5/ADC_PM.c **** *  to active power mode by calling Wakeup() API.
  69:Generated_Source\PSoC5/ADC_PM.c **** *
  70:Generated_Source\PSoC5/ADC_PM.c **** *******************************************************************************/
  71:Generated_Source\PSoC5/ADC_PM.c **** void ADC_RestoreConfig(void) 
  72:Generated_Source\PSoC5/ADC_PM.c **** {
  55              		.loc 1 72 0
  56              		.cfi_startproc
  57              		@ args = 0, pretend = 0, frame = 0
  58              		@ frame_needed = 0, uses_anonymous_args = 0
  59              		@ link register save eliminated.
  73:Generated_Source\PSoC5/ADC_PM.c ****     ADC_DEC_CR_REG = ADC_backup.deccr;
  60              		.loc 1 73 0
  61 0000 024B     		ldr	r3, .L5
  62 0002 5A78     		ldrb	r2, [r3, #1]	@ zero_extendqisi2
  63 0004 024B     		ldr	r3, .L5+4
  64 0006 1A70     		strb	r2, [r3]
  65 0008 7047     		bx	lr
  66              	.L6:
  67 000a 00BF     		.align	2
  68              	.L5:
  69 000c 00000000 		.word	.LANCHOR0
  70 0010 004E0040 		.word	1073761792
  71              		.cfi_endproc
  72              	.LFE1:
  73              		.size	ADC_RestoreConfig, .-ADC_RestoreConfig
  74              		.section	.text.ADC_Sleep,"ax",%progbits
  75              		.align	2
  76              		.global	ADC_Sleep
  77              		.thumb
  78              		.thumb_func
  79              		.type	ADC_Sleep, %function
  80              	ADC_Sleep:
  81              	.LFB2:
  74:Generated_Source\PSoC5/ADC_PM.c **** }
  75:Generated_Source\PSoC5/ADC_PM.c **** 
  76:Generated_Source\PSoC5/ADC_PM.c **** 
  77:Generated_Source\PSoC5/ADC_PM.c **** /*******************************************************************************
  78:Generated_Source\PSoC5/ADC_PM.c **** * Function Name: ADC_Sleep
  79:Generated_Source\PSoC5/ADC_PM.c **** ********************************************************************************
  80:Generated_Source\PSoC5/ADC_PM.c **** *
  81:Generated_Source\PSoC5/ADC_PM.c **** * Summary:
  82:Generated_Source\PSoC5/ADC_PM.c **** *  Stops the operation of the block and saves the user configuration.
  83:Generated_Source\PSoC5/ADC_PM.c **** *
  84:Generated_Source\PSoC5/ADC_PM.c **** * Parameters:
  85:Generated_Source\PSoC5/ADC_PM.c **** *  None
  86:Generated_Source\PSoC5/ADC_PM.c **** *
  87:Generated_Source\PSoC5/ADC_PM.c **** * Return:
  88:Generated_Source\PSoC5/ADC_PM.c **** *  None
  89:Generated_Source\PSoC5/ADC_PM.c **** *
  90:Generated_Source\PSoC5/ADC_PM.c **** * Global variables:
ARM GAS  C:\Users\User\AppData\Local\Temp\ccAaYIaT.s 			page 4


  91:Generated_Source\PSoC5/ADC_PM.c **** *  ADC_backup:  The structure field 'enableState' is modified
  92:Generated_Source\PSoC5/ADC_PM.c **** *  depending on the enable state of the block before entering to sleep mode.
  93:Generated_Source\PSoC5/ADC_PM.c **** *
  94:Generated_Source\PSoC5/ADC_PM.c **** *******************************************************************************/
  95:Generated_Source\PSoC5/ADC_PM.c **** void ADC_Sleep(void) 
  96:Generated_Source\PSoC5/ADC_PM.c **** {
  82              		.loc 1 96 0
  83              		.cfi_startproc
  84              		@ args = 0, pretend = 0, frame = 0
  85              		@ frame_needed = 0, uses_anonymous_args = 0
  86 0000 08B5     		push	{r3, lr}
  87              		.cfi_def_cfa_offset 8
  88              		.cfi_offset 3, -8
  89              		.cfi_offset 14, -4
  97:Generated_Source\PSoC5/ADC_PM.c ****     /* Save ADC enable state */
  98:Generated_Source\PSoC5/ADC_PM.c ****     if((ADC_ACT_PWR_DEC_EN == (ADC_PWRMGR_DEC_REG & ADC_ACT_PWR_DEC_EN)) &&
  90              		.loc 1 98 0
  91 0002 0F4B     		ldr	r3, .L12
  92 0004 1B78     		ldrb	r3, [r3]	@ zero_extendqisi2
  93 0006 13F0010F 		tst	r3, #1
  94 000a 12D0     		beq	.L8
  99:Generated_Source\PSoC5/ADC_PM.c ****        (ADC_ACT_PWR_DSM_EN == (ADC_PWRMGR_DSM_REG & ADC_ACT_PWR_DSM_EN)))
  95              		.loc 1 99 0 discriminator 1
  96 000c 0C4B     		ldr	r3, .L12
  97 000e 1B78     		ldrb	r3, [r3]	@ zero_extendqisi2
  98:Generated_Source\PSoC5/ADC_PM.c ****        (ADC_ACT_PWR_DSM_EN == (ADC_PWRMGR_DSM_REG & ADC_ACT_PWR_DSM_EN)))
  98              		.loc 1 98 0 discriminator 1
  99 0010 13F0100F 		tst	r3, #16
 100 0014 0DD0     		beq	.L8
 100:Generated_Source\PSoC5/ADC_PM.c ****     {
 101:Generated_Source\PSoC5/ADC_PM.c ****         /* Component is enabled */
 102:Generated_Source\PSoC5/ADC_PM.c ****         ADC_backup.enableState = ADC_ENABLED;
 101              		.loc 1 102 0
 102 0016 0122     		movs	r2, #1
 103 0018 0A4B     		ldr	r3, .L12+4
 104 001a 1A70     		strb	r2, [r3]
 103:Generated_Source\PSoC5/ADC_PM.c ****         if((ADC_DEC_CR_REG & ADC_DEC_START_CONV) != 0u)
 105              		.loc 1 103 0
 106 001c 0A4B     		ldr	r3, .L12+8
 107 001e 1B78     		ldrb	r3, [r3]	@ zero_extendqisi2
 108 0020 13F0010F 		tst	r3, #1
 109 0024 02D0     		beq	.L9
 104:Generated_Source\PSoC5/ADC_PM.c ****         {   
 105:Generated_Source\PSoC5/ADC_PM.c ****             /* Conversion is started */
 106:Generated_Source\PSoC5/ADC_PM.c ****             ADC_backup.enableState |= ADC_STARTED;
 110              		.loc 1 106 0
 111 0026 0322     		movs	r2, #3
 112 0028 064B     		ldr	r3, .L12+4
 113 002a 1A70     		strb	r2, [r3]
 114              	.L9:
 107:Generated_Source\PSoC5/ADC_PM.c ****         }
 108:Generated_Source\PSoC5/ADC_PM.c **** 		
 109:Generated_Source\PSoC5/ADC_PM.c ****         /* Stop the configuration */
 110:Generated_Source\PSoC5/ADC_PM.c ****         ADC_Stop();
 115              		.loc 1 110 0
 116 002c FFF7FEFF 		bl	ADC_Stop
 117              	.LVL0:
ARM GAS  C:\Users\User\AppData\Local\Temp\ccAaYIaT.s 			page 5


 118 0030 02E0     		b	.L10
 119              	.L8:
 111:Generated_Source\PSoC5/ADC_PM.c ****     }
 112:Generated_Source\PSoC5/ADC_PM.c ****     else
 113:Generated_Source\PSoC5/ADC_PM.c ****     {
 114:Generated_Source\PSoC5/ADC_PM.c ****         /* Component is disabled */
 115:Generated_Source\PSoC5/ADC_PM.c ****         ADC_backup.enableState = ADC_DISABLED;
 120              		.loc 1 115 0
 121 0032 0022     		movs	r2, #0
 122 0034 034B     		ldr	r3, .L12+4
 123 0036 1A70     		strb	r2, [r3]
 124              	.L10:
 116:Generated_Source\PSoC5/ADC_PM.c ****     }
 117:Generated_Source\PSoC5/ADC_PM.c **** 
 118:Generated_Source\PSoC5/ADC_PM.c ****     /* Save the user configuration */
 119:Generated_Source\PSoC5/ADC_PM.c ****     ADC_SaveConfig();
 125              		.loc 1 119 0
 126 0038 FFF7FEFF 		bl	ADC_SaveConfig
 127              	.LVL1:
 128 003c 08BD     		pop	{r3, pc}
 129              	.L13:
 130 003e 00BF     		.align	2
 131              	.L12:
 132 0040 AA430040 		.word	1073759146
 133 0044 00000000 		.word	.LANCHOR0
 134 0048 004E0040 		.word	1073761792
 135              		.cfi_endproc
 136              	.LFE2:
 137              		.size	ADC_Sleep, .-ADC_Sleep
 138              		.section	.text.ADC_Wakeup,"ax",%progbits
 139              		.align	2
 140              		.global	ADC_Wakeup
 141              		.thumb
 142              		.thumb_func
 143              		.type	ADC_Wakeup, %function
 144              	ADC_Wakeup:
 145              	.LFB3:
 120:Generated_Source\PSoC5/ADC_PM.c **** }
 121:Generated_Source\PSoC5/ADC_PM.c **** 
 122:Generated_Source\PSoC5/ADC_PM.c **** 
 123:Generated_Source\PSoC5/ADC_PM.c **** /*******************************************************************************
 124:Generated_Source\PSoC5/ADC_PM.c **** * Function Name: ADC_Wakeup
 125:Generated_Source\PSoC5/ADC_PM.c **** ********************************************************************************
 126:Generated_Source\PSoC5/ADC_PM.c **** *
 127:Generated_Source\PSoC5/ADC_PM.c **** * Summary:
 128:Generated_Source\PSoC5/ADC_PM.c **** *  Restores the user configuration and enables the power to the block.
 129:Generated_Source\PSoC5/ADC_PM.c **** *
 130:Generated_Source\PSoC5/ADC_PM.c **** * Parameters:
 131:Generated_Source\PSoC5/ADC_PM.c **** *  None
 132:Generated_Source\PSoC5/ADC_PM.c **** *
 133:Generated_Source\PSoC5/ADC_PM.c **** * Return:
 134:Generated_Source\PSoC5/ADC_PM.c **** *  None
 135:Generated_Source\PSoC5/ADC_PM.c **** *
 136:Generated_Source\PSoC5/ADC_PM.c **** * Global variables:
 137:Generated_Source\PSoC5/ADC_PM.c **** *  ADC_backup:  The structure field 'enableState' is used to
 138:Generated_Source\PSoC5/ADC_PM.c **** *  restore the enable state of block after wakeup from sleep mode.
 139:Generated_Source\PSoC5/ADC_PM.c **** *
ARM GAS  C:\Users\User\AppData\Local\Temp\ccAaYIaT.s 			page 6


 140:Generated_Source\PSoC5/ADC_PM.c **** *******************************************************************************/
 141:Generated_Source\PSoC5/ADC_PM.c **** void ADC_Wakeup(void) 
 142:Generated_Source\PSoC5/ADC_PM.c **** {
 146              		.loc 1 142 0
 147              		.cfi_startproc
 148              		@ args = 0, pretend = 0, frame = 0
 149              		@ frame_needed = 0, uses_anonymous_args = 0
 150 0000 08B5     		push	{r3, lr}
 151              		.cfi_def_cfa_offset 8
 152              		.cfi_offset 3, -8
 153              		.cfi_offset 14, -4
 143:Generated_Source\PSoC5/ADC_PM.c ****     /* Restore the configuration */
 144:Generated_Source\PSoC5/ADC_PM.c ****     ADC_RestoreConfig();
 154              		.loc 1 144 0
 155 0002 FFF7FEFF 		bl	ADC_RestoreConfig
 156              	.LVL2:
 145:Generated_Source\PSoC5/ADC_PM.c **** 
 146:Generated_Source\PSoC5/ADC_PM.c ****     /* Enables the component operation */
 147:Generated_Source\PSoC5/ADC_PM.c ****     if(ADC_backup.enableState != ADC_DISABLED)
 157              		.loc 1 147 0
 158 0006 064B     		ldr	r3, .L17
 159 0008 1B78     		ldrb	r3, [r3]	@ zero_extendqisi2
 160 000a 43B1     		cbz	r3, .L14
 148:Generated_Source\PSoC5/ADC_PM.c ****     {
 149:Generated_Source\PSoC5/ADC_PM.c ****         ADC_Enable();
 161              		.loc 1 149 0
 162 000c FFF7FEFF 		bl	ADC_Enable
 163              	.LVL3:
 150:Generated_Source\PSoC5/ADC_PM.c ****         if((ADC_backup.enableState & ADC_STARTED) != 0u)
 164              		.loc 1 150 0
 165 0010 034B     		ldr	r3, .L17
 166 0012 1B78     		ldrb	r3, [r3]	@ zero_extendqisi2
 167 0014 13F0020F 		tst	r3, #2
 168 0018 01D0     		beq	.L14
 151:Generated_Source\PSoC5/ADC_PM.c ****         {
 152:Generated_Source\PSoC5/ADC_PM.c ****             ADC_StartConvert();
 169              		.loc 1 152 0
 170 001a FFF7FEFF 		bl	ADC_StartConvert
 171              	.LVL4:
 172              	.L14:
 173 001e 08BD     		pop	{r3, pc}
 174              	.L18:
 175              		.align	2
 176              	.L17:
 177 0020 00000000 		.word	.LANCHOR0
 178              		.cfi_endproc
 179              	.LFE3:
 180              		.size	ADC_Wakeup, .-ADC_Wakeup
 181              		.data
 182              		.align	2
 183              		.set	.LANCHOR0,. + 0
 184              		.type	ADC_backup, %object
 185              		.size	ADC_backup, 2
 186              	ADC_backup:
 187 0000 00       		.byte	0
 188 0001 38       		.byte	56
 189              		.text
ARM GAS  C:\Users\User\AppData\Local\Temp\ccAaYIaT.s 			page 7


 190              	.Letext0:
 191              		.file 2 "Generated_Source\\PSoC5\\cytypes.h"
 192              		.file 3 "Generated_Source\\PSoC5\\ADC.h"
